{
  "contractName": "CommunicationManager",
  "abi": [
    {
      "constant": true,
      "inputs": [
        {
          "name": "",
          "type": "bytes32"
        },
        {
          "name": "",
          "type": "uint256"
        }
      ],
      "name": "_verifiedCommunications",
      "outputs": [
        {
          "name": "",
          "type": "bytes32"
        }
      ],
      "payable": false,
      "stateMutability": "view",
      "type": "function"
    },
    {
      "constant": true,
      "inputs": [],
      "name": "owner",
      "outputs": [
        {
          "name": "",
          "type": "address"
        }
      ],
      "payable": false,
      "stateMutability": "view",
      "type": "function"
    },
    {
      "constant": true,
      "inputs": [],
      "name": "isOwner",
      "outputs": [
        {
          "name": "",
          "type": "bool"
        }
      ],
      "payable": false,
      "stateMutability": "view",
      "type": "function"
    },
    {
      "constant": false,
      "inputs": [
        {
          "name": "newOwner",
          "type": "address"
        }
      ],
      "name": "transferOwnership",
      "outputs": [],
      "payable": false,
      "stateMutability": "nonpayable",
      "type": "function"
    },
    {
      "inputs": [
        {
          "name": "_dependencyManagerAddress",
          "type": "address"
        }
      ],
      "payable": false,
      "stateMutability": "nonpayable",
      "type": "constructor"
    },
    {
      "anonymous": false,
      "inputs": [
        {
          "indexed": false,
          "name": "_from",
          "type": "string"
        },
        {
          "indexed": false,
          "name": "_to",
          "type": "string"
        }
      ],
      "name": "AllowCommunicaton",
      "type": "event"
    },
    {
      "anonymous": false,
      "inputs": [
        {
          "indexed": true,
          "name": "previousOwner",
          "type": "address"
        },
        {
          "indexed": true,
          "name": "newOwner",
          "type": "address"
        }
      ],
      "name": "OwnershipTransferred",
      "type": "event"
    },
    {
      "constant": false,
      "inputs": [
        {
          "name": "_from",
          "type": "string"
        },
        {
          "name": "_to",
          "type": "string"
        }
      ],
      "name": "addCommunication",
      "outputs": [],
      "payable": false,
      "stateMutability": "nonpayable",
      "type": "function"
    },
    {
      "constant": false,
      "inputs": [
        {
          "name": "_from",
          "type": "string"
        },
        {
          "name": "_to",
          "type": "string"
        }
      ],
      "name": "revokeCommunication",
      "outputs": [],
      "payable": false,
      "stateMutability": "nonpayable",
      "type": "function"
    },
    {
      "constant": true,
      "inputs": [
        {
          "name": "_contract",
          "type": "address"
        }
      ],
      "name": "getAllowedCommunications",
      "outputs": [
        {
          "name": "",
          "type": "bytes32[]"
        }
      ],
      "payable": false,
      "stateMutability": "view",
      "type": "function"
    },
    {
      "constant": true,
      "inputs": [
        {
          "name": "_from",
          "type": "address"
        },
        {
          "name": "_to",
          "type": "address"
        }
      ],
      "name": "checkCommunication",
      "outputs": [
        {
          "name": "",
          "type": "bool"
        }
      ],
      "payable": false,
      "stateMutability": "view",
      "type": "function"
    },
    {
      "constant": true,
      "inputs": [
        {
          "name": "_from",
          "type": "bytes32"
        },
        {
          "name": "_to",
          "type": "bytes32"
        }
      ],
      "name": "_checkIfAlreadyExists",
      "outputs": [
        {
          "name": "",
          "type": "bool"
        }
      ],
      "payable": false,
      "stateMutability": "view",
      "type": "function"
    }
  ],
  "bytecode": "0x608060405234801561001057600080fd5b50604051602080610de08339810180604052602081101561003057600080fd5b505160008054600160a060020a0319163317808255604051600160a060020a039190911691907f8be0079c531659141344cd1fd0a4f28419497f9722a3daafe3b4186f6b6457e0908290a360028054600160a060020a031916600160a060020a038381169190911791829055604080517f39675c3d00000000000000000000000000000000000000000000000000000000815230602482015260048101829052601460448201527f436f6d6d756e69636174696f6e4d616e616765720000000000000000000000006064820152905192909116916339675c3d9160848082019260009290919082900301818387803b15801561012b57600080fd5b505af115801561013f573d6000803e3d6000fd5b5050505050610c8d806101536000396000f3fe608060405234801561001057600080fd5b50600436106100b0576000357c01000000000000000000000000000000000000000000000000000000009004806342ed13821161008357806342ed13821461025b5780638da5cb5b146102895780638f32d59b146102ad578063d585e12a146102b5578063f2fde38b14610377576100b0565b80630138db59146100b557806306d382ed146101795780631b39d487146101ef5780634087877314610226575b600080fd5b610177600480360360408110156100cb57600080fd5b8101906020810181356401000000008111156100e657600080fd5b8201836020820111156100f857600080fd5b8035906020019184600183028401116401000000008311171561011a57600080fd5b91939092909160208101903564010000000081111561013857600080fd5b82018360208201111561014a57600080fd5b8035906020019184600183028401116401000000008311171561016c57600080fd5b50909250905061039d565b005b61019f6004803603602081101561018f57600080fd5b5035600160a060020a03166104ce565b60408051602080825283518183015283519192839290830191858101910280838360005b838110156101db5781810151838201526020016101c3565b505050509050019250505060405180910390f35b6102126004803603604081101561020557600080fd5b50803590602001356105cc565b604080519115158252519081900360200190f35b6102496004803603604081101561023c57600080fd5b50803590602001356106b5565b60408051918252519081900360200190f35b6102126004803603604081101561027157600080fd5b50600160a060020a03813581169160200135166106e5565b6102916108a2565b60408051600160a060020a039092168252519081900360200190f35b6102126108b2565b610177600480360360408110156102cb57600080fd5b8101906020810181356401000000008111156102e657600080fd5b8201836020820111156102f857600080fd5b8035906020019184600183028401116401000000008311171561031a57600080fd5b91939092909160208101903564010000000081111561033857600080fd5b82018360208201111561034a57600080fd5b8035906020019184600183028401116401000000008311171561036c57600080fd5b5090925090506108c3565b6101776004803603602081101561038d57600080fd5b5035600160a060020a0316610a59565b6103a56108b2565b15156103b057600080fd5b6104366103f285858080601f016020809104026020016040519081016040528093929190818152602001838380828437600092019190915250610a7892505050565b61043184848080601f016020809104026020016040519081016040528093929190818152602001838380828437600092019190915250610a7892505050565b6105cc565b151561044157600080fd5b6104c761048385858080601f016020809104026020016040519081016040528093929190818152602001838380828437600092019190915250610a7892505050565b6104c284848080601f016020809104026020016040519081016040528093929190818152602001838380828437600092019190915250610a7892505050565b610aef565b5050505050565b600254604080517f6e975d79000000000000000000000000000000000000000000000000000000008152600160a060020a0384811660048301529151606093600193600093911691636e975d7991602480820192602092909190829003018186803b15801561053c57600080fd5b505afa158015610550573d6000803e3d6000fd5b505050506040513d602081101561056657600080fd5b505181526020818101929092526040908101600020805482518185028101850190935280835291929091908301828280156105c057602002820191906000526020600020905b8154815260200190600101908083116105ac575b50505050509050919050565b60008281526001602090815260408083205481518181528184028101909301909152606091908015610608578160200160208202803883390190505b50600085815260016020908152604091829020805483518184028101840190945280845293945091929083018282801561066157602002820191906000526020600020905b81548152602001906001019080831161064d575b50939450600093505050505b81518110156106a85783828281518110151561068557fe5b9060200190602002015114156106a0576001925050506106af565b60010161066d565b5060009150505b92915050565b6001602052816000526040600020818154811015156106d057fe5b90600052602060002001600091509150505481565b60408051600280825260608083018452600093909291906020830190803883395050600254604080517f6e975d79000000000000000000000000000000000000000000000000000000008152600160a060020a0389811660048301529151949550911692636e975d7992506024808301926020929190829003018186803b15801561076f57600080fd5b505afa158015610783573d6000803e3d6000fd5b505050506040513d602081101561079957600080fd5b50518151829060009081106107aa57fe5b6020908102909101810191909152600254604080517f6e975d79000000000000000000000000000000000000000000000000000000008152600160a060020a03878116600483015291519190921692636e975d799260248082019391829003018186803b15801561081a57600080fd5b505afa15801561082e573d6000803e3d6000fd5b505050506040513d602081101561084457600080fd5b505181518290600190811061085557fe5b60209081029091010152805161089a908290600090811061087257fe5b9060200190602002015182600181518110151561088b57fe5b906020019060200201516105cc565b949350505050565b600054600160a060020a03165b90565b600054600160a060020a0316331490565b6108cb6108b2565b15156108d657600080fd5b6109186103f285858080601f016020809104026020016040519081016040528093929190818152602001838380828437600092019190915250610a7892505050565b1561092257600080fd5b6001600061096586868080601f016020809104026020016040519081016040528093929190818152602001838380828437600092019190915250610a7892505050565b81526020019081526020016000206109b283838080601f016020809104026020016040519081016040528093929190818152602001838380828437600092019190915250610a7892505050565b815460018101835560009283526020928390200155604080518181529081018590527fe1685eb27e9904e12f60d91cd380bdd8c94a1accac2695f8cc55e7e09dd3f3349186918691869186918190810160608201878780828437600083820152601f01601f191690910184810383528581526020019050858580828437600083820152604051601f909101601f19169092018290039850909650505050505050a150505050565b610a616108b2565b1515610a6c57600080fd5b610a7581610b9d565b50565b6000816040516020018082805190602001908083835b60208310610aad5780518252601f199092019160209182019101610a8e565b6001836020036101000a038019825116818451168082178552505050505050905001915050604051602081830303815290604052805190602001209050919050565b600082815260016020526040812081805b8254811015610b3557848382815481101515610b1857fe5b90600052602060002001541415610b2d578091505b600101610b00565b50805b825460001901811015610b83578281600101815481101515610b5657fe5b90600052602060002001548382815481101515610b6f57fe5b600091825260209091200155600101610b38565b508154610b94836000198301610c1a565b50505092915050565b600160a060020a0381161515610bb257600080fd5b60008054604051600160a060020a03808516939216917f8be0079c531659141344cd1fd0a4f28419497f9722a3daafe3b4186f6b6457e091a36000805473ffffffffffffffffffffffffffffffffffffffff1916600160a060020a0392909216919091179055565b815481835581811115610c3e57600083815260209020610c3e918101908301610c43565b505050565b6108af91905b80821115610c5d5760008155600101610c49565b509056fea165627a7a723058201737938d8c8466b3949a53653c5f1b25525a5e8e0371e9d3a6d0283a1b94992f0029",
  "source": "pragma solidity ^0.5.2;\n\nimport \"./DependencyManager.sol\";\n\ncontract CommunicationManager is Ownable {\n\n    event AllowCommunicaton(string _from, string _to);\n    \n    mapping(bytes32 => bytes32[]) public _verifiedCommunications;\n\n    DependencyManager private _dependencyManager;\n    \n    constructor(address _dependencyManagerAddress) public{\n        _dependencyManager = DependencyManager(_dependencyManagerAddress);\n        _dependencyManager.addDependency(\"CommunicationManager\", address(this)); // only owner in to je problem\n    }\n    \n    function addCommunication (string calldata _from ,string calldata _to) external onlyOwner  {\n        require(_checkIfAlreadyExists(_getHash(_from), _getHash(_to)) == false);\n        _verifiedCommunications[_getHash(_from)].push(_getHash(_to));\n        emit AllowCommunicaton(_from, _to);\n    }\n    \n    function revokeCommunication (string calldata _from ,string calldata _to) external onlyOwner  {\n        require(_checkIfAlreadyExists(_getHash(_from), _getHash(_to)));\n        _deleteFromBytesArray(_getHash(_from), _getHash(_to));\n    }\n    \n    function getAllowedCommunications(address _contract) view public returns(bytes32[] memory) {\n        return _verifiedCommunications[_dependencyManager._addressToHash(_contract)];\n    }\n\n    function checkCommunication(address _from, address _to) external view returns(bool){\n      bytes32[] memory inputTemp = new bytes32[](2);\n      inputTemp[0] = _dependencyManager._addressToHash(_from); // ime from\n      inputTemp[1] = _dependencyManager._addressToHash(_to); // ime to\n      return _checkIfAlreadyExists(inputTemp[0], inputTemp[1]);\n    }\n    \n    function _getHash(string memory _str) internal pure returns(bytes32) {\n        return keccak256(abi.encodePacked(_str));\n    }\n    \n    function _checkIfAlreadyExists(bytes32 _from ,bytes32 _to) public view returns(bool) {\n        bytes32[] memory temp = new bytes32[](_verifiedCommunications[_from].length);\n        temp = _verifiedCommunications[_from];\n        for(uint i=0; i < temp.length ;i++) {\n            if(temp[i] == _to) {\n                return true;\n            }\n        }\n        return false;\n    }\n    \n    function _deleteFromBytesArray(bytes32 _from ,bytes32 _to) internal returns(bytes32) {\n        \n        bytes32[] storage _pointerArray = _verifiedCommunications[_from];\n       \n        uint index;\n      \n        for(uint i=0; i < _pointerArray.length ;i++) {\n            if(_pointerArray[i] == _to) index = i;\n        }\n        \n        for(uint i = index; i<_pointerArray.length-1; i++){\n            _pointerArray[i] = _pointerArray[i+1];\n        }\n        _pointerArray.length--;\n       \n    }\n    \n\n}",
  "sourcePath": "/builds/gitlab/eductx/eductx-react/eductx-platform/contracts/upgradeable/CommunicationManager.sol",
  "compiler": {
    "name": "solc",
    "version": "0.5.2+commit.1df8f40c.Emscripten.clang"
  },
  "schemaVersion": "3.4.3",
  "updatedAt": "2021-10-12T07:49:43.752Z",
  "networkType": "ethereum",
  "devdoc": {
    "methods": {
      "isOwner()": {
        "return": "true if `msg.sender` is the owner of the contract."
      },
      "owner()": {
        "return": "the address of the owner."
      },
      "transferOwnership(address)": {
        "details": "Allows the current owner to transfer control of the contract to a newOwner.",
        "params": {
          "newOwner": "The address to transfer ownership to."
        }
      }
    }
  },
  "userdoc": {
    "methods": {}
  }
}