{
  "contractName": "DependencyManager",
  "abi": [
    {
      "constant": true,
      "inputs": [
        {
          "name": "",
          "type": "address"
        }
      ],
      "name": "_addressToHash",
      "outputs": [
        {
          "name": "",
          "type": "bytes32"
        }
      ],
      "payable": false,
      "stateMutability": "view",
      "type": "function"
    },
    {
      "constant": true,
      "inputs": [],
      "name": "owner",
      "outputs": [
        {
          "name": "",
          "type": "address"
        }
      ],
      "payable": false,
      "stateMutability": "view",
      "type": "function"
    },
    {
      "constant": true,
      "inputs": [],
      "name": "isOwner",
      "outputs": [
        {
          "name": "",
          "type": "bool"
        }
      ],
      "payable": false,
      "stateMutability": "view",
      "type": "function"
    },
    {
      "constant": false,
      "inputs": [
        {
          "name": "newOwner",
          "type": "address"
        }
      ],
      "name": "transferOwnership",
      "outputs": [],
      "payable": false,
      "stateMutability": "nonpayable",
      "type": "function"
    },
    {
      "inputs": [],
      "payable": false,
      "stateMutability": "nonpayable",
      "type": "constructor"
    },
    {
      "anonymous": false,
      "inputs": [
        {
          "indexed": true,
          "name": "_from",
          "type": "address"
        },
        {
          "indexed": false,
          "name": "contractName",
          "type": "string"
        },
        {
          "indexed": true,
          "name": "contractAddr",
          "type": "address"
        }
      ],
      "name": "AddDependency",
      "type": "event"
    },
    {
      "anonymous": false,
      "inputs": [
        {
          "indexed": true,
          "name": "previousOwner",
          "type": "address"
        },
        {
          "indexed": true,
          "name": "newOwner",
          "type": "address"
        }
      ],
      "name": "OwnershipTransferred",
      "type": "event"
    },
    {
      "constant": false,
      "inputs": [
        {
          "name": "_contractName",
          "type": "string"
        },
        {
          "name": "_contractAddr",
          "type": "address"
        }
      ],
      "name": "addDependency",
      "outputs": [],
      "payable": false,
      "stateMutability": "nonpayable",
      "type": "function"
    },
    {
      "constant": true,
      "inputs": [
        {
          "name": "_contractName",
          "type": "string"
        }
      ],
      "name": "getContractAddressByName",
      "outputs": [
        {
          "name": "",
          "type": "address"
        }
      ],
      "payable": false,
      "stateMutability": "view",
      "type": "function"
    },
    {
      "constant": false,
      "inputs": [
        {
          "name": "_contractName",
          "type": "string"
        }
      ],
      "name": "removeDependency",
      "outputs": [],
      "payable": false,
      "stateMutability": "nonpayable",
      "type": "function"
    }
  ],
  "bytecode": "0x608060405234801561001057600080fd5b5060008054600160a060020a0319163317808255604051600160a060020a039190911691907f8be0079c531659141344cd1fd0a4f28419497f9722a3daafe3b4186f6b6457e0908290a36100a86040805190810160405280602081526020017f456475435458646570656e64656e63794d616e616765725f636f6e7472616374815250306100ad640100000000026401000000009004565b61024f565b6100be640100000000610240810204565b600160a060020a031632146100d257600080fd5b6000826040516020018082805190602001908083835b602083106101075780518252601f1990920191602091820191016100e8565b51815160209384036101000a60001901801990921691161790526040805192909401828103601f1901835290935280519201919091209350505050600160a060020a038216151561015757600080fd5b60008181526001602081815260408084208054600160a060020a0390811686526002845282862086905587168086528286208790558686529383528054600160a060020a0319168417905580518281528751818401528751939433947ffeaed027db02cd0ab070060ac3e28bc49856f5e1b8fdf637402c50fa4fc988b6948a9484939084019291860191908190849084905b838110156102015781810151838201526020016101e9565b50505050905090810190601f16801561022e5780820380516001836020036101000a031916815260200191505b509250505060405180910390a3505050565b600054600160a060020a031690565b6106c68061025e6000396000f3fe608060405234801561001057600080fd5b506004361061009a576000357c0100000000000000000000000000000000000000000000000000000000900480638da5cb5b116100785780638da5cb5b146102165780638f32d59b1461021e5780639eb22a3f1461023a578063f2fde38b146102e05761009a565b806339675c3d1461009f5780636e975d791461015257806382760fca1461018a575b600080fd5b610150600480360360408110156100b557600080fd5b8101906020810181356401000000008111156100d057600080fd5b8201836020820111156100e257600080fd5b8035906020019184600183028401116401000000008311171561010457600080fd5b91908080601f01602080910402602001604051908101604052809392919081815260200183838082843760009201919091525092955050509035600160a060020a031691506103069050565b005b6101786004803603602081101561016857600080fd5b5035600160a060020a031661049d565b60408051918252519081900360200190f35b6101fa600480360360208110156101a057600080fd5b8101906020810181356401000000008111156101bb57600080fd5b8201836020820111156101cd57600080fd5b803590602001918460018302840111640100000000831117156101ef57600080fd5b5090925090506104af565b60408051600160a060020a039092168252519081900360200190f35b6101fa610503565b610226610512565b604080519115158252519081900360200190f35b6101506004803603602081101561025057600080fd5b81019060208101813564010000000081111561026b57600080fd5b82018360208201111561027d57600080fd5b8035906020019184600183028401116401000000008311171561029f57600080fd5b91908080601f016020809104026020016040519081016040528093929190818152602001838380828437600092019190915250929550610523945050505050565b610150600480360360208110156102f657600080fd5b5035600160a060020a03166105f5565b61030e610503565b600160a060020a0316321461032257600080fd5b6000826040516020018082805190602001908083835b602083106103575780518252601f199092019160209182019101610338565b51815160209384036101000a60001901801990921691161790526040805192909401828103601f1901835290935280519201919091209350505050600160a060020a03821615156103a757600080fd5b60008181526001602081815260408084208054600160a060020a039081168652600284528286208690558716808652828620879055868652938352805473ffffffffffffffffffffffffffffffffffffffff19168417905580518281528751818401528751939433947ffeaed027db02cd0ab070060ac3e28bc49856f5e1b8fdf637402c50fa4fc988b6948a9484939084019291860191908190849084905b8381101561045e578181015183820152602001610446565b50505050905090810190601f16801561048b5780820380516001836020036101000a031916815260200191505b509250505060405180910390a3505050565b60026020526000908152604090205481565b6000600160008484604051602001808383808284376040805191909301818103601f190182528352805160209182012087528601969096529390930160002054600160a060020a0316979650505050505050565b600054600160a060020a031690565b600054600160a060020a0316331490565b61052b610503565b600160a060020a0316321461053f57600080fd5b6000816040516020018082805190602001908083835b602083106105745780518252601f199092019160209182019101610555565b51815160209384036101000a60001901801990921691161790526040805192909401828103601f190183528452815191810191909120600081815260018084528582208054600160a060020a0316835260028552958220829055919052905250805473ffffffffffffffffffffffffffffffffffffffff1916905550505050565b6105fd610503565b600160a060020a0316321461061157600080fd5b61061a8161061d565b50565b600160a060020a038116151561063257600080fd5b60008054604051600160a060020a03808516939216917f8be0079c531659141344cd1fd0a4f28419497f9722a3daafe3b4186f6b6457e091a36000805473ffffffffffffffffffffffffffffffffffffffff1916600160a060020a039290921691909117905556fea165627a7a7230582063cdcca2baf9c26967432b3e855e95e95e00eea6c1ce26f02e211625b52ed9150029",
  "source": "pragma solidity ^0.5.2;\n\nimport \"../ownership/Ownable.sol\";\n\ncontract DependencyManager is Ownable {\n\n    event AddDependency(address indexed _from, string contractName, address indexed contractAddr);\n    \n    /// hash contract name to contract address\n    mapping (bytes32 => address) private _nameToAddress;\n    \n    /// contract address to hash of contract name\n    mapping (address => bytes32) public _addressToHash;\n    \n    constructor() public{\n        addDependency(\"EduCTXdependencyManager_contract\", address(this));\n    }\n    \n    /**\n    * @dev Override!\n    */\n    modifier onlyOwner() {\n        require(tx.origin == owner());\n        _;\n    }\n    \n    /* \n        Pametno pogodbo v sistem lahko dodaja samo \"owner\" vseh ostalih PP.\n        V primeru, da se doda v sistem pametna pogodba z imenom, ki v sistemu že obstaja\n        se temu imenu doda naslov NOVO dodane pametne pogodbe.\n    */\n    function addDependency(string memory _contractName, address _contractAddr) public onlyOwner { \n        bytes32 nameHash = keccak256(abi.encodePacked(_contractName));\n        require(nameHash.length != 0 && _contractAddr != address(0));\n        \n        // PP že obstaja, zato je potrebno, stari naslov, ki kaže na ime PP izbrisati iz sistema\n        if(_addressToHash[_nameToAddress[nameHash]].length != 0){\n            delete _addressToHash[_nameToAddress[nameHash]];\n        }\n        _addressToHash[_contractAddr] = nameHash; // Novo dodanemu naslovu PP se doda ime\n        _nameToAddress[nameHash] = _contractAddr; // Novo dodani PP se prepiše ali pa na novo doda njen naslov\n        \n        emit AddDependency(msg.sender, _contractName, _contractAddr);\n    }\n    \n    function getContractAddressByName(string calldata _contractName) external view returns (address) {\n        return _nameToAddress[keccak256(abi.encodePacked(_contractName))];\n    }\n    \n    function removeDependency(string memory _contractName) public onlyOwner {\n         bytes32 nameHash = keccak256(abi.encodePacked(_contractName));\n          delete _addressToHash[_nameToAddress[nameHash]];\n          delete _nameToAddress[nameHash];\n    }\n    \n    \n}",
  "sourcePath": "/builds/gitlab/eductx/eductx-react/eductx-platform/contracts/upgradeable/DependencyManager.sol",
  "compiler": {
    "name": "solc",
    "version": "0.5.2+commit.1df8f40c.Emscripten.clang"
  },
  "schemaVersion": "3.4.3",
  "updatedAt": "2021-10-12T07:49:43.746Z",
  "networkType": "ethereum",
  "devdoc": {
    "methods": {
      "isOwner()": {
        "return": "true if `msg.sender` is the owner of the contract."
      },
      "owner()": {
        "return": "the address of the owner."
      },
      "transferOwnership(address)": {
        "details": "Allows the current owner to transfer control of the contract to a newOwner.",
        "params": {
          "newOwner": "The address to transfer ownership to."
        }
      }
    }
  },
  "userdoc": {
    "methods": {}
  }
}