{
  "contractName": "EduCTXcaData",
  "abi": [
    {
      "constant": true,
      "inputs": [],
      "name": "owner",
      "outputs": [
        {
          "name": "",
          "type": "address"
        }
      ],
      "payable": false,
      "stateMutability": "view",
      "type": "function"
    },
    {
      "constant": true,
      "inputs": [],
      "name": "isOwner",
      "outputs": [
        {
          "name": "",
          "type": "bool"
        }
      ],
      "payable": false,
      "stateMutability": "view",
      "type": "function"
    },
    {
      "constant": false,
      "inputs": [
        {
          "name": "newOwner",
          "type": "address"
        }
      ],
      "name": "transferOwnership",
      "outputs": [],
      "payable": false,
      "stateMutability": "nonpayable",
      "type": "function"
    },
    {
      "inputs": [
        {
          "name": "_dependencyManagerAddress",
          "type": "address"
        }
      ],
      "payable": false,
      "stateMutability": "nonpayable",
      "type": "constructor"
    },
    {
      "anonymous": false,
      "inputs": [
        {
          "indexed": true,
          "name": "previousOwner",
          "type": "address"
        },
        {
          "indexed": true,
          "name": "newOwner",
          "type": "address"
        }
      ],
      "name": "OwnershipTransferred",
      "type": "event"
    },
    {
      "constant": false,
      "inputs": [],
      "name": "init",
      "outputs": [],
      "payable": false,
      "stateMutability": "nonpayable",
      "type": "function"
    },
    {
      "constant": false,
      "inputs": [
        {
          "name": "_a",
          "type": "address"
        }
      ],
      "name": "_set_caArray",
      "outputs": [],
      "payable": false,
      "stateMutability": "nonpayable",
      "type": "function"
    },
    {
      "constant": false,
      "inputs": [
        {
          "name": "_a",
          "type": "address"
        },
        {
          "name": "_b",
          "type": "string"
        }
      ],
      "name": "_set_caMetaName",
      "outputs": [],
      "payable": false,
      "stateMutability": "nonpayable",
      "type": "function"
    },
    {
      "constant": false,
      "inputs": [
        {
          "name": "_a",
          "type": "address"
        },
        {
          "name": "_b",
          "type": "string"
        }
      ],
      "name": "_set_caMetaLogoURI",
      "outputs": [],
      "payable": false,
      "stateMutability": "nonpayable",
      "type": "function"
    },
    {
      "constant": false,
      "inputs": [
        {
          "name": "_a",
          "type": "address"
        },
        {
          "name": "_b",
          "type": "address"
        }
      ],
      "name": "_set_authorizedAddressCa",
      "outputs": [],
      "payable": false,
      "stateMutability": "nonpayable",
      "type": "function"
    },
    {
      "constant": false,
      "inputs": [
        {
          "name": "_a",
          "type": "address"
        },
        {
          "name": "_b",
          "type": "address"
        }
      ],
      "name": "_set_caAuthorizedAddresses",
      "outputs": [],
      "payable": false,
      "stateMutability": "nonpayable",
      "type": "function"
    },
    {
      "constant": true,
      "inputs": [
        {
          "name": "_a",
          "type": "address"
        }
      ],
      "name": "_get_caMetaLogoURI",
      "outputs": [
        {
          "name": "",
          "type": "string"
        }
      ],
      "payable": false,
      "stateMutability": "view",
      "type": "function"
    },
    {
      "constant": true,
      "inputs": [
        {
          "name": "_a",
          "type": "address"
        }
      ],
      "name": "_get_caMetaName",
      "outputs": [
        {
          "name": "",
          "type": "string"
        }
      ],
      "payable": false,
      "stateMutability": "view",
      "type": "function"
    },
    {
      "constant": true,
      "inputs": [],
      "name": "_get_caArray",
      "outputs": [
        {
          "name": "",
          "type": "address[]"
        }
      ],
      "payable": false,
      "stateMutability": "view",
      "type": "function"
    },
    {
      "constant": true,
      "inputs": [
        {
          "name": "_a",
          "type": "address"
        }
      ],
      "name": "_get_authorizedAddressCa",
      "outputs": [
        {
          "name": "",
          "type": "address"
        }
      ],
      "payable": false,
      "stateMutability": "view",
      "type": "function"
    },
    {
      "constant": true,
      "inputs": [
        {
          "name": "_a",
          "type": "address"
        }
      ],
      "name": "_get_caAuthorizedAddresses",
      "outputs": [
        {
          "name": "",
          "type": "address[]"
        }
      ],
      "payable": false,
      "stateMutability": "view",
      "type": "function"
    },
    {
      "constant": false,
      "inputs": [
        {
          "name": "_a",
          "type": "address"
        }
      ],
      "name": "_delete_caMetaName",
      "outputs": [],
      "payable": false,
      "stateMutability": "nonpayable",
      "type": "function"
    },
    {
      "constant": false,
      "inputs": [
        {
          "name": "_a",
          "type": "address"
        }
      ],
      "name": "_delete_caMetaLogoURI",
      "outputs": [],
      "payable": false,
      "stateMutability": "nonpayable",
      "type": "function"
    },
    {
      "constant": false,
      "inputs": [
        {
          "name": "_a",
          "type": "address"
        }
      ],
      "name": "_delete_caArray",
      "outputs": [],
      "payable": false,
      "stateMutability": "nonpayable",
      "type": "function"
    },
    {
      "constant": false,
      "inputs": [
        {
          "name": "_a",
          "type": "address"
        }
      ],
      "name": "_delete_authorizedAddressCa",
      "outputs": [],
      "payable": false,
      "stateMutability": "nonpayable",
      "type": "function"
    },
    {
      "constant": false,
      "inputs": [
        {
          "name": "_a",
          "type": "address"
        },
        {
          "name": "_from",
          "type": "address"
        }
      ],
      "name": "_delete_caAuthorizedAddresses",
      "outputs": [],
      "payable": false,
      "stateMutability": "nonpayable",
      "type": "function"
    }
  ],
  "bytecode": "0x608060405234801561001057600080fd5b506040516020806118658339810180604052602081101561003057600080fd5b505160008054600160a060020a0319163317808255604051600160a060020a039190911691907f8be0079c531659141344cd1fd0a4f28419497f9722a3daafe3b4186f6b6457e0908290a360068054600160a060020a031916600160a060020a038381169190911791829055604080517f39675c3d00000000000000000000000000000000000000000000000000000000815230602482015260048101829052600c60448201527f45647543545863614461746100000000000000000000000000000000000000006064820152905192909116916339675c3d9160848082019260009290919082900301818387803b15801561012b57600080fd5b505af115801561013f573d6000803e3d6000fd5b5050505050611712806101536000396000f3fe608060405234801561001057600080fd5b506004361061013e576000357c0100000000000000000000000000000000000000000000000000000000900480637ecca490116100ca578063b91750091161008e578063b9175009146104c0578063bcc3baf0146104e6578063dc217b6c1461050c578063e1c7392a14610532578063f2fde38b1461053a5761013e565b80637ecca490146103d05780638da5cb5b146104505780638f32d59b14610458578063aadc8fbb14610474578063accf4da41461049a5761013e565b8063385a98a411610111578063385a98a41461025957806340cc12ca1461027f578063466c8dc01461031a578063582e0c241461039a5780636fe96f5a146103a25761013e565b80630e1c11f61461014357806320fb3aa21461018557806328140098146101b557806332df12561461022b575b600080fd5b6101696004803603602081101561015957600080fd5b5035600160a060020a0316610560565b60408051600160a060020a039092168252519081900360200190f35b6101b36004803603604081101561019b57600080fd5b50600160a060020a038135811691602001351661060a565b005b6101db600480360360208110156101cb57600080fd5b5035600160a060020a0316610842565b60408051602080825283518183015283519192839290830191858101910280838360005b838110156102175781810151838201526020016101ff565b505050509050019250505060405180910390f35b6101b36004803603604081101561024157600080fd5b50600160a060020a0381358116916020013516610941565b6101b36004803603602081101561026f57600080fd5b5035600160a060020a03166109fa565b6102a56004803603602081101561029557600080fd5b5035600160a060020a0316610aa9565b6040805160208082528351818301528351919283929083019185019080838360005b838110156102df5781810151838201526020016102c7565b50505050905090810190601f16801561030c5780820380516001836020036101000a031916815260200191505b509250505060405180910390f35b6101b36004803603604081101561033057600080fd5b600160a060020a03823516919081019060408101602082013564010000000081111561035b57600080fd5b82018360208201111561036d57600080fd5b8035906020019184600183028401116401000000008311171561038f57600080fd5b509092509050610bd1565b6101db610c85565b6101b3600480360360408110156103b857600080fd5b50600160a060020a0381358116916020013516610d71565b6101b3600480360360408110156103e657600080fd5b600160a060020a03823516919081019060408101602082013564010000000081111561041157600080fd5b82018360208201111561042357600080fd5b8035906020019184600183028401116401000000008311171561044557600080fd5b509092509050610e3d565b610169610eeb565b610460610efa565b604080519115158252519081900360200190f35b6101b36004803603602081101561048a57600080fd5b5035600160a060020a0316610f0b565b6101b3600480360360208110156104b057600080fd5b5035600160a060020a0316610fbd565b6101b3600480360360208110156104d657600080fd5b5035600160a060020a0316611069565b6102a5600480360360208110156104fc57600080fd5b5035600160a060020a0316611146565b6101b36004803603602081101561052257600080fd5b5035600160a060020a0316611242565b6101b36113e4565b6101b36004803603602081101561055057600080fd5b5035600160a060020a03166114d5565b6007546040805160e160020a63217689c10281523060048201523360248201529051600092600160a060020a0316916342ed1382916044808301926020929190829003018186803b1580156105b457600080fd5b505afa1580156105c8573d6000803e3d6000fd5b505050506040513d60208110156105de57600080fd5b505115156105eb57600080fd5b50600160a060020a039081166000908152600360205260409020541690565b6007546040805160e160020a63217689c10281523060048201523360248201529051600160a060020a03909216916342ed138291604480820192602092909190829003018186803b15801561065e57600080fd5b505afa158015610672573d6000803e3d6000fd5b505050506040513d602081101561068857600080fd5b5051151561069557600080fd5b606060016004600084600160a060020a0316600160a060020a0316815260200190815260200160002080549050036040519080825280602002602001820160405280156106ec578160200160208202803883390190505b509050600080805b600160a060020a03851660009081526004602052604090205481101561076757600160a060020a038516600090815260046020526040902080548290811061073857fe5b600091825260209091200154600160a060020a038781169116141561075f57600191508092505b6001016106f4565b5080151561077457600080fd5b6000805b600160a060020a03861660009081526004602052604090205481101561080f5780841461080757600160a060020a03861660009081526004602052604090208054829081106107c357fe5b6000918252602090912001548551600160a060020a03909116908690849081106107e957fe5b600160a060020a039092166020928302909101909101526001909101905b600101610778565b50600160a060020a038516600090815260046020908152604090912085516108399287019061155c565b50505050505050565b6007546040805160e160020a63217689c10281523060048201523360248201529051606092600160a060020a0316916342ed1382916044808301926020929190829003018186803b15801561089657600080fd5b505afa1580156108aa573d6000803e3d6000fd5b505050506040513d60208110156108c057600080fd5b505115156108cd57600080fd5b600160a060020a0382166000908152600460209081526040918290208054835181840281018401909452808452909183018282801561093557602002820191906000526020600020905b8154600160a060020a03168152600190910190602001808311610917575b50505050509050919050565b6007546040805160e160020a63217689c10281523060048201523360248201529051600160a060020a03909216916342ed138291604480820192602092909190829003018186803b15801561099557600080fd5b505afa1580156109a9573d6000803e3d6000fd5b505050506040513d60208110156109bf57600080fd5b505115156109cc57600080fd5b600160a060020a0391821660009081526003602052604090208054600160a060020a03191691909216179055565b6007546040805160e160020a63217689c10281523060048201523360248201529051600160a060020a03909216916342ed138291604480820192602092909190829003018186803b158015610a4e57600080fd5b505afa158015610a62573d6000803e3d6000fd5b505050506040513d6020811015610a7857600080fd5b50511515610a8557600080fd5b600160a060020a0381166000908152600260205260408120610aa6916115c1565b50565b6007546040805160e160020a63217689c10281523060048201523360248201529051606092600160a060020a0316916342ed1382916044808301926020929190829003018186803b158015610afd57600080fd5b505afa158015610b11573d6000803e3d6000fd5b505050506040513d6020811015610b2757600080fd5b50511515610b3457600080fd5b600160a060020a038216600090815260026020818152604092839020805484516001821615610100026000190190911693909304601f81018390048302840183019094528383529192908301828280156109355780601f10610ba457610100808354040283529160200191610935565b820191906000526020600020905b815481529060010190602001808311610bb25750939695505050505050565b6007546040805160e160020a63217689c10281523060048201523360248201529051600160a060020a03909216916342ed138291604480820192602092909190829003018186803b158015610c2557600080fd5b505afa158015610c39573d6000803e3d6000fd5b505050506040513d6020811015610c4f57600080fd5b50511515610c5c57600080fd5b600160a060020a0383166000908152600160205260409020610c7f908383611605565b50505050565b6007546040805160e160020a63217689c10281523060048201523360248201529051606092600160a060020a0316916342ed1382916044808301926020929190829003018186803b158015610cd957600080fd5b505afa158015610ced573d6000803e3d6000fd5b505050506040513d6020811015610d0357600080fd5b50511515610d1057600080fd5b6005805480602002602001604051908101604052809291908181526020018280548015610d6657602002820191906000526020600020905b8154600160a060020a03168152600190910190602001808311610d48575b505050505090505b90565b6007546040805160e160020a63217689c10281523060048201523360248201529051600160a060020a03909216916342ed138291604480820192602092909190829003018186803b158015610dc557600080fd5b505afa158015610dd9573d6000803e3d6000fd5b505050506040513d6020811015610def57600080fd5b50511515610dfc57600080fd5b600160a060020a039081166000908152600460209081526040822080546001810182559083529120018054600160a060020a03191692909116919091179055565b6007546040805160e160020a63217689c10281523060048201523360248201529051600160a060020a03909216916342ed138291604480820192602092909190829003018186803b158015610e9157600080fd5b505afa158015610ea5573d6000803e3d6000fd5b505050506040513d6020811015610ebb57600080fd5b50511515610ec857600080fd5b600160a060020a0383166000908152600260205260409020610c7f908383611605565b600054600160a060020a031690565b600054600160a060020a0316331490565b6007546040805160e160020a63217689c10281523060048201523360248201529051600160a060020a03909216916342ed138291604480820192602092909190829003018186803b158015610f5f57600080fd5b505afa158015610f73573d6000803e3d6000fd5b505050506040513d6020811015610f8957600080fd5b50511515610f9657600080fd5b600160a060020a031660009081526003602052604090208054600160a060020a0319169055565b6007546040805160e160020a63217689c10281523060048201523360248201529051600160a060020a03909216916342ed138291604480820192602092909190829003018186803b15801561101157600080fd5b505afa158015611025573d6000803e3d6000fd5b505050506040513d602081101561103b57600080fd5b5051151561104857600080fd5b600160a060020a0381166000908152600160205260408120610aa6916115c1565b6007546040805160e160020a63217689c10281523060048201523360248201529051600160a060020a03909216916342ed138291604480820192602092909190829003018186803b1580156110bd57600080fd5b505afa1580156110d1573d6000803e3d6000fd5b505050506040513d60208110156110e757600080fd5b505115156110f457600080fd5b600580546001810182556000919091527f036b6384b5eca791c62761152d0c79bb0604c104a5fb6f4eb0703f3154bb3db0018054600160a060020a031916600160a060020a0392909216919091179055565b6007546040805160e160020a63217689c10281523060048201523360248201529051606092600160a060020a0316916342ed1382916044808301926020929190829003018186803b15801561119a57600080fd5b505afa1580156111ae573d6000803e3d6000fd5b505050506040513d60208110156111c457600080fd5b505115156111d157600080fd5b600160a060020a03821660009081526001602081815260409283902080548451600294821615610100026000190190911693909304601f81018390048302840183019094528383529192908301828280156109355780601f10610ba457610100808354040283529160200191610935565b6007546040805160e160020a63217689c10281523060048201523360248201529051600160a060020a03909216916342ed138291604480820192602092909190829003018186803b15801561129657600080fd5b505afa1580156112aa573d6000803e3d6000fd5b505050506040513d60208110156112c057600080fd5b505115156112cd57600080fd5b600080805b6005548110156113205783600160a060020a03166005828154811015156112f557fe5b600091825260209091200154600160a060020a0316141561131857600192508091505b6001016112d2565b5081151561132d57600080fd5b805b600554600019018110156113a557600580546001830190811061134e57fe5b60009182526020909120015460058054600160a060020a03909216918390811061137457fe5b60009182526020909120018054600160a060020a031916600160a060020a039290921691909117905560010161132f565b506005805460001981019081106113b857fe5b60009182526020909120018054600160a060020a03191690556005805490610c7f90600019830161167f565b6113ec610efa565b15156113f757600080fd5b600654604080517f82760fca000000000000000000000000000000000000000000000000000000008152602060048201819052601460248301527f436f6d6d756e69636174696f6e4d616e6167657200000000000000000000000060448301529151600160a060020a03909316926382760fca92606480840193919291829003018186803b15801561148857600080fd5b505afa15801561149c573d6000803e3d6000fd5b505050506040513d60208110156114b257600080fd5b505160078054600160a060020a031916600160a060020a03909216919091179055565b6114dd610efa565b15156114e857600080fd5b610aa681600160a060020a038116151561150157600080fd5b60008054604051600160a060020a03808516939216917f8be0079c531659141344cd1fd0a4f28419497f9722a3daafe3b4186f6b6457e091a360008054600160a060020a031916600160a060020a0392909216919091179055565b8280548282559060005260206000209081019282156115b1579160200282015b828111156115b15782518254600160a060020a031916600160a060020a0390911617825560209092019160019091019061157c565b506115bd9291506116a8565b5090565b50805460018160011615610100020316600290046000825580601f106115e75750610aa6565b601f016020900490600052602060002090810190610aa691906116cc565b828054600181600116156101000203166002900490600052602060002090601f016020900481019282601f106116465782800160ff19823516178555611673565b82800160010185558215611673579182015b82811115611673578235825591602001919060010190611658565b506115bd9291506116cc565b8154818355818111156116a3576000838152602090206116a39181019083016116cc565b505050565b610d6e91905b808211156115bd578054600160a060020a03191681556001016116ae565b610d6e91905b808211156115bd57600081556001016116d256fea165627a7a72305820ecb6e13d0d973130a37ec22278ae5819055a59271d100bc6798a146bf119cd230029",
  "source": "pragma solidity ^0.5.2;\n\nimport \"../upgradeable/DependencyManager.sol\";\nimport \"../upgradeable/CommunicationManager.sol\";\nimport '../ownership/Ownable.sol';\n\ncontract EduCTXcaData is Ownable {\n    \n    /// KEY = CA address : VALUE = CA Logo URI\n    mapping(address => string) private _caMetaLogoURI;\n    \n    /// KEY = CA address : VALUE = CA Name\n    mapping(address => string) private _caMetaName;\n    \n    /// KEY = Authorized address : VALUE = CA address\n    mapping(address => address) private _authorizedAddressCa;\n\n    /// KEY = CA : VALUE = Authorized addresses\n    mapping(address => address[]) private _caAuthorizedAddresses;\n\n    /// Array of all CAs\n    address[] private caArray;\n    \n    DependencyManager private dependencyManager_;\n    CommunicationManager private communicationManager_;\n    \n    \n    modifier _onlyAllowedContract {\n       require(communicationManager_.checkCommunication(address(this), msg.sender));\n       _;\n    }\n\n    constructor(address _dependencyManagerAddress) public {\n        dependencyManager_ = DependencyManager(_dependencyManagerAddress);\n        dependencyManager_.addDependency(\"EduCTXcaData\", address(this));\n    }\n    \n    function init() external onlyOwner {\n       communicationManager_ = CommunicationManager(dependencyManager_.getContractAddressByName(\"CommunicationManager\"));\n    }\n    \n    function _set_caArray(address _a) external _onlyAllowedContract {\n        caArray.push(_a);\n    }\n\n    function _set_caMetaName(address _a, string calldata _b) external _onlyAllowedContract {\n        _caMetaName[_a] = _b;\n    }\n    \n    function _set_caMetaLogoURI(address _a, string calldata _b) external _onlyAllowedContract {\n        _caMetaLogoURI[_a] = _b;\n    }\n    \n    function _set_authorizedAddressCa(address _a, address _b) external _onlyAllowedContract {\n        _authorizedAddressCa[_a] = _b;\n    }\n\n    function _set_caAuthorizedAddresses(address _a, address _b) external _onlyAllowedContract {\n        _caAuthorizedAddresses[_b].push(_a);\n    }\n    \n    function _get_caMetaLogoURI(address _a) external view _onlyAllowedContract returns(string memory) {\n        return _caMetaLogoURI[_a];\n    }\n    \n    function _get_caMetaName(address _a) external view _onlyAllowedContract returns(string memory) {\n        return _caMetaName[_a];\n    }\n\n    function _get_caArray() external view _onlyAllowedContract returns(address[] memory) {\n        return caArray;\n    }\n    \n    function _get_authorizedAddressCa(address _a) external view _onlyAllowedContract returns(address) {\n        return _authorizedAddressCa[_a];\n    }\n\n    function _get_caAuthorizedAddresses(address _a) external view _onlyAllowedContract returns(address[] memory) {\n        return _caAuthorizedAddresses[_a];\n    }\n    \n    function _delete_caMetaName(address _a) external _onlyAllowedContract {\n        delete _caMetaName[_a];\n    }\n    \n    function _delete_caMetaLogoURI(address _a) external _onlyAllowedContract {\n        delete _caMetaLogoURI[_a];\n    }\n\n    function _delete_caArray(address _a) external _onlyAllowedContract {\n        bool found=false;\n        uint index=0;\n        for (uint i=0; i<caArray.length; i++){\n            if (caArray[i]==_a){\n                found=true;\n                index=i;\n            }\n        }\n        require(found);\n        for (uint i = index; i < caArray.length - 1; i++) {\n          caArray[i] = caArray[i + 1];\n        }\n        delete caArray[caArray.length - 1];\n        caArray.length--;\n    }\n    \n    function _delete_authorizedAddressCa(address _a) external _onlyAllowedContract {\n        delete _authorizedAddressCa[_a];\n    }\n\n    function _delete_caAuthorizedAddresses(address _a, address _from) external _onlyAllowedContract {\n        address[] memory tempArray=new address[](_caAuthorizedAddresses[_from].length-1);\n        uint indexFound=0;\n        bool found=false;\n        for(uint256 i = 0; i < _caAuthorizedAddresses[_from].length; i++) {\n            if(_a == _caAuthorizedAddresses[_from][i]) {\n                found=true;\n                indexFound=i;\n            }\n        }\n        require(found);\n        uint j=0;\n        for (uint i=0; i<_caAuthorizedAddresses[_from].length; i++){\n            if (i!=indexFound){\n                tempArray[j]=_caAuthorizedAddresses[_from][i];\n                j++;\n            }\n        }\n        _caAuthorizedAddresses[_from]=tempArray;\n    }\n    \n}",
  "sourcePath": "/builds/gitlab/eductx/eductx-react/eductx-platform/contracts/ca/EduCTXcaData.sol",
  "compiler": {
    "name": "solc",
    "version": "0.5.2+commit.1df8f40c.Emscripten.clang"
  },
  "schemaVersion": "3.4.3",
  "updatedAt": "2021-10-12T07:49:43.776Z",
  "networkType": "ethereum",
  "devdoc": {
    "methods": {
      "isOwner()": {
        "return": "true if `msg.sender` is the owner of the contract."
      },
      "owner()": {
        "return": "the address of the owner."
      },
      "transferOwnership(address)": {
        "details": "Allows the current owner to transfer control of the contract to a newOwner.",
        "params": {
          "newOwner": "The address to transfer ownership to."
        }
      }
    }
  },
  "userdoc": {
    "methods": {}
  }
}