{
  "contractName": "EduCTXtoken",
  "abi": [
    {
      "constant": true,
      "inputs": [],
      "name": "owner",
      "outputs": [
        {
          "name": "",
          "type": "address"
        }
      ],
      "payable": false,
      "stateMutability": "view",
      "type": "function"
    },
    {
      "constant": true,
      "inputs": [],
      "name": "isOwner",
      "outputs": [
        {
          "name": "",
          "type": "bool"
        }
      ],
      "payable": false,
      "stateMutability": "view",
      "type": "function"
    },
    {
      "constant": false,
      "inputs": [
        {
          "name": "newOwner",
          "type": "address"
        }
      ],
      "name": "transferOwnership",
      "outputs": [],
      "payable": false,
      "stateMutability": "nonpayable",
      "type": "function"
    },
    {
      "inputs": [
        {
          "name": "_dependencyManagerAddress",
          "type": "address"
        }
      ],
      "payable": false,
      "stateMutability": "nonpayable",
      "type": "constructor"
    },
    {
      "anonymous": false,
      "inputs": [
        {
          "indexed": true,
          "name": "from",
          "type": "address"
        },
        {
          "indexed": true,
          "name": "to",
          "type": "address"
        },
        {
          "indexed": true,
          "name": "tokenId",
          "type": "uint256"
        }
      ],
      "name": "Transfer",
      "type": "event"
    },
    {
      "anonymous": false,
      "inputs": [
        {
          "indexed": true,
          "name": "from",
          "type": "address"
        },
        {
          "indexed": true,
          "name": "userID",
          "type": "uint256"
        },
        {
          "indexed": false,
          "name": "dataHash",
          "type": "string"
        },
        {
          "indexed": false,
          "name": "dataCipher",
          "type": "string"
        }
      ],
      "name": "CertificateIssued",
      "type": "event"
    },
    {
      "anonymous": false,
      "inputs": [
        {
          "indexed": true,
          "name": "previousOwner",
          "type": "address"
        },
        {
          "indexed": true,
          "name": "newOwner",
          "type": "address"
        }
      ],
      "name": "OwnershipTransferred",
      "type": "event"
    },
    {
      "constant": false,
      "inputs": [],
      "name": "init",
      "outputs": [],
      "payable": false,
      "stateMutability": "nonpayable",
      "type": "function"
    },
    {
      "constant": false,
      "inputs": [
        {
          "name": "_userID",
          "type": "uint256"
        },
        {
          "name": "_dataHash",
          "type": "string"
        },
        {
          "name": "_dataCipher",
          "type": "string"
        }
      ],
      "name": "issueCertificate",
      "outputs": [],
      "payable": false,
      "stateMutability": "nonpayable",
      "type": "function"
    },
    {
      "constant": false,
      "inputs": [
        {
          "name": "_userID",
          "type": "uint256"
        },
        {
          "name": "_dataHash",
          "type": "string"
        },
        {
          "name": "_dataUri",
          "type": "string"
        }
      ],
      "name": "issueCertificateAuthorizedAddress",
      "outputs": [],
      "payable": false,
      "stateMutability": "nonpayable",
      "type": "function"
    },
    {
      "constant": false,
      "inputs": [
        {
          "name": "_tokenId",
          "type": "uint256"
        }
      ],
      "name": "revokeCertificate",
      "outputs": [],
      "payable": false,
      "stateMutability": "nonpayable",
      "type": "function"
    },
    {
      "constant": true,
      "inputs": [
        {
          "name": "_caAddress",
          "type": "address"
        }
      ],
      "name": "getIssuedTokensByCa",
      "outputs": [
        {
          "name": "",
          "type": "uint256[]"
        }
      ],
      "payable": false,
      "stateMutability": "view",
      "type": "function"
    },
    {
      "constant": true,
      "inputs": [
        {
          "name": "_authorizedAddress",
          "type": "address"
        }
      ],
      "name": "getIssuedTokensByAuthorizedAddress",
      "outputs": [
        {
          "name": "",
          "type": "uint256[]"
        }
      ],
      "payable": false,
      "stateMutability": "view",
      "type": "function"
    },
    {
      "constant": true,
      "inputs": [
        {
          "name": "owner",
          "type": "address"
        }
      ],
      "name": "balanceOf",
      "outputs": [
        {
          "name": "",
          "type": "uint256"
        }
      ],
      "payable": false,
      "stateMutability": "view",
      "type": "function"
    },
    {
      "constant": true,
      "inputs": [
        {
          "name": "tokenId",
          "type": "uint256"
        }
      ],
      "name": "ownerOf",
      "outputs": [
        {
          "name": "",
          "type": "address"
        }
      ],
      "payable": false,
      "stateMutability": "view",
      "type": "function"
    },
    {
      "constant": true,
      "inputs": [
        {
          "name": "owner",
          "type": "address"
        },
        {
          "name": "index",
          "type": "uint256"
        }
      ],
      "name": "tokenOfOwnerByIndex",
      "outputs": [
        {
          "name": "",
          "type": "uint256"
        }
      ],
      "payable": false,
      "stateMutability": "view",
      "type": "function"
    },
    {
      "constant": true,
      "inputs": [],
      "name": "totalSupply",
      "outputs": [
        {
          "name": "",
          "type": "uint256"
        }
      ],
      "payable": false,
      "stateMutability": "view",
      "type": "function"
    },
    {
      "constant": true,
      "inputs": [
        {
          "name": "index",
          "type": "uint256"
        }
      ],
      "name": "tokenByIndex",
      "outputs": [
        {
          "name": "",
          "type": "uint256"
        }
      ],
      "payable": false,
      "stateMutability": "view",
      "type": "function"
    },
    {
      "constant": true,
      "inputs": [
        {
          "name": "tokenId",
          "type": "uint256"
        }
      ],
      "name": "tokenIssuerAddr",
      "outputs": [
        {
          "name": "",
          "type": "address"
        }
      ],
      "payable": false,
      "stateMutability": "view",
      "type": "function"
    },
    {
      "constant": true,
      "inputs": [
        {
          "name": "tokenId",
          "type": "uint256"
        }
      ],
      "name": "tokenDataHash",
      "outputs": [
        {
          "name": "",
          "type": "string"
        }
      ],
      "payable": false,
      "stateMutability": "view",
      "type": "function"
    },
    {
      "constant": true,
      "inputs": [
        {
          "name": "tokenId",
          "type": "uint256"
        }
      ],
      "name": "tokenCipherText",
      "outputs": [
        {
          "name": "",
          "type": "string"
        }
      ],
      "payable": false,
      "stateMutability": "view",
      "type": "function"
    }
  ],
  "bytecode": "0x60806040523480156200001157600080fd5b5060405160208062003826833981018060405260208110156200003357600080fd5b505160008054600160a060020a0319163317808255604051600160a060020a039190911691907f8be0079c531659141344cd1fd0a4f28419497f9722a3daafe3b4186f6b6457e0908290a360018054600160a060020a031916600160a060020a038381169190911791829055604080517f39675c3d00000000000000000000000000000000000000000000000000000000815230602482015260048101829052600b60448201527f456475435458746f6b656e0000000000000000000000000000000000000000006064820152905192909116916339675c3d9160848082019260009290919082900301818387803b1580156200012f57600080fd5b505af115801562000144573d6000803e3d6000fd5b50505050506136cd80620001596000396000f3fe608060405234801561001057600080fd5b506004361061010f5760003560e060020a900480638da5cb5b116100a6578063cfc5030311610075578063cfc503031461047b578063dbb03d1614610498578063e1c7392a146105cc578063f2fde38b146105d4578063fad88c8f146105fa5761010f565b80638da5cb5b1461039f5780638f32d59b146103a7578063bea04e8b146103c3578063cd930d2c146103e95761010f565b80634f6ccce7116100e25780634f6ccce7146102ad5780636352211e146102ca57806370a08231146103035780638676c36d146103295761010f565b8063060bc2cb1461011457806306f5497e1461024a57806318160ddd146102675780632f745c5914610281575b600080fd5b6102486004803603606081101561012a57600080fd5b8135919081019060408101602082013564010000000081111561014c57600080fd5b82018360208201111561015e57600080fd5b8035906020019184600183028401116401000000008311171561018057600080fd5b91908080601f01602080910402602001604051908101604052809392919081815260200183838082843760009201919091525092959493602081019350359150506401000000008111156101d357600080fd5b8201836020820111156101e557600080fd5b8035906020019184600183028401116401000000008311171561020757600080fd5b91908080601f016020809104026020016040519081016040528093929190818152602001838380828437600092019190915250929550610617945050505050565b005b6102486004803603602081101561026057600080fd5b5035610f53565b61026f6111aa565b60408051918252519081900360200190f35b61026f6004803603604081101561029757600080fd5b50600160a060020a038135169060200135611297565b61026f600480360360208110156102c357600080fd5b503561134d565b6102e7600480360360208110156102e057600080fd5b50356113f9565b60408051600160a060020a039092168252519081900360200190f35b61026f6004803603602081101561031957600080fd5b5035600160a060020a03166114ac565b61034f6004803603602081101561033f57600080fd5b5035600160a060020a0316611529565b60408051602080825283518183015283519192839290830191858101910280838360005b8381101561038b578181015183820152602001610373565b505050509050019250505060405180910390f35b6102e7611534565b6103af611543565b604080519115158252519081900360200190f35b61034f600480360360208110156103d957600080fd5b5035600160a060020a0316611554565b610406600480360360208110156103ff57600080fd5b503561155f565b6040805160208082528351818301528351919283929083019185019080838360005b83811015610440578181015183820152602001610428565b50505050905090810190601f16801561046d5780820380516001836020036101000a031916815260200191505b509250505060405180910390f35b6102e76004803603602081101561049157600080fd5b5035611668565b610248600480360360608110156104ae57600080fd5b813591908101906040810160208201356401000000008111156104d057600080fd5b8201836020820111156104e257600080fd5b8035906020019184600183028401116401000000008311171561050457600080fd5b91908080601f016020809104026020016040519081016040528093929190818152602001838380828437600092019190915250929594936020810193503591505064010000000081111561055757600080fd5b82018360208201111561056957600080fd5b8035906020019184600183028401116401000000008311171561058b57600080fd5b91908080601f0160208091040260200160405190810160405280939291908181526020018383808284376000920191909152509295506116e3945050505050565b610248611c61565b610248600480360360208110156105ea57600080fd5b5035600160a060020a0316611d49565b6104066004803603602081101561061057600080fd5b5035611d68565b6001546040805160e160020a63413b07e5028152602060048201819052600e60248301527f526567697374657265645573657200000000000000000000000000000000000060448301529151600160a060020a03909316926382760fca92606480840193919291829003018186803b15801561069257600080fd5b505afa1580156106a6573d6000803e3d6000fd5b505050506040513d60208110156106bc57600080fd5b50516003805473ffffffffffffffffffffffffffffffffffffffff1916600160a060020a039283161790556001546040805160e160020a63413b07e5028152602060048201819052600860248301527f45647543545863610000000000000000000000000000000000000000000000006044830152915192909316926382760fca9260648083019392829003018186803b15801561075957600080fd5b505afa15801561076d573d6000803e3d6000fd5b505050506040513d602081101561078357600080fd5b50516004805473ffffffffffffffffffffffffffffffffffffffff1916600160a060020a0392831617808255604080517f4a85280e000000000000000000000000000000000000000000000000000000008152339381019390935251921691634a85280e91602480820192602092909190829003018186803b15801561080857600080fd5b505afa15801561081c573d6000803e3d6000fd5b505050506040513d602081101561083257600080fd5b5051151561083f57600080fd5b600354604080517f1a422550000000000000000000000000000000000000000000000000000000008152600481018690529051600160a060020a0390921691631a42255091602480820192602092909190829003018186803b1580156108a457600080fd5b505afa1580156108b8573d6000803e3d6000fd5b505050506040513d60208110156108ce57600080fd5b505115156108db57600080fd5b600254604080517fd7d588e60000000000000000000000000000000000000000000000000000000081529051600160a060020a0390921691633a30e13e9161098091600191859163d7d588e691600480820192602092909190829003018186803b15801561094857600080fd5b505afa15801561095c573d6000803e3d6000fd5b505050506040513d602081101561097257600080fd5b50519063ffffffff611de316565b6040518263ffffffff1660e060020a02815260040180828152602001915050600060405180830381600087803b1580156109b957600080fd5b505af11580156109cd573d6000803e3d6000fd5b505050506000600260009054906101000a9004600160a060020a0316600160a060020a031663d7d588e66040518163ffffffff1660e060020a02815260040160206040518083038186803b158015610a2457600080fd5b505afa158015610a38573d6000803e3d6000fd5b505050506040513d6020811015610a4e57600080fd5b5051600354604080517f8d80c922000000000000000000000000000000000000000000000000000000008152600481018890529051929350610aee92600160a060020a0390921691638d80c92291602480820192602092909190829003018186803b158015610abc57600080fd5b505afa158015610ad0573d6000803e3d6000fd5b505050506040513d6020811015610ae657600080fd5b505182611dfc565b60048054604080517fcc81227d000000000000000000000000000000000000000000000000000000008152339381019390935251610b89928492600160a060020a03169163cc81227d91602480820192602092909190829003018186803b158015610b5857600080fd5b505afa158015610b6c573d6000803e3d6000fd5b505050506040513d6020811015610b8257600080fd5b5051611fdb565b610b93818461205d565b610b9d818361213f565b60025460048054604080517fcc81227d000000000000000000000000000000000000000000000000000000008152339381019390935251600160a060020a039384169363bc9ef9819386939091169163cc81227d91602480820192602092909190829003018186803b158015610c1257600080fd5b505afa158015610c26573d6000803e3d6000fd5b505050506040513d6020811015610c3c57600080fd5b50516040805160e060020a63ffffffff86160281526004810193909352600160a060020a03909116602483015251604480830192600092919082900301818387803b158015610c8a57600080fd5b505af1158015610c9e573d6000803e3d6000fd5b5050600254604080517f68c5ed25000000000000000000000000000000000000000000000000000000008152600481018690523360248201529051600160a060020a0390921693506368c5ed25925060448082019260009290919082900301818387803b158015610d0e57600080fd5b505af1158015610d22573d6000803e3d6000fd5b5050600254604080517f71e6de9c000000000000000000000000000000000000000000000000000000008152600481018690523360248201529051600160a060020a0390921693506371e6de9c925060448082019260009290919082900301818387803b158015610d9257600080fd5b505af1158015610da6573d6000803e3d6000fd5b505060048054604080517fcc81227d000000000000000000000000000000000000000000000000000000008152339381019390935251889450600160a060020a03909116925063cc81227d91602480820192602092909190829003018186803b158015610e1257600080fd5b505afa158015610e26573d6000803e3d6000fd5b505050506040513d6020811015610e3c57600080fd5b5051604080518181528651918101919091528551600160a060020a03909216917f4691112128424742c3235e6412cd638be1a8437131ac9304ef8940cc1a0de3fd9187918791908190602082810191606084019187019080838360005b83811015610eb1578181015183820152602001610e99565b50505050905090810190601f168015610ede5780820380516001836020036101000a031916815260200191505b50838103825284518152845160209182019186019080838360005b83811015610f11578181015183820152602001610ef9565b50505050905090810190601f168015610f3e5780820380516001836020036101000a031916815260200191505b5094505050505060405180910390a350505050565b33610f5d82611668565b600160a060020a031614610f7057600080fd5b610f79816121d3565b600254604080517fbba3e5a4000000000000000000000000000000000000000000000000000000008152600481018490523360248201529051600160a060020a039092169163bba3e5a49160448082019260009290919082900301818387803b158015610fe557600080fd5b505af1158015610ff9573d6000803e3d6000fd5b5050600254604080517f0fd4b14700000000000000000000000000000000000000000000000000000000815260048101869052905160009450600160a060020a039092169250630fd4b147916024808301926020929190829003018186803b15801561106457600080fd5b505afa158015611078573d6000803e3d6000fd5b505050506040513d602081101561108e57600080fd5b50519050600160a060020a038116156111a657600254604080517fb400ffd600000000000000000000000000000000000000000000000000000000815260048101859052600160a060020a0384811660248301529151919092169163b400ffd691604480830192600092919082900301818387803b15801561110f57600080fd5b505af1158015611123573d6000803e3d6000fd5b5050600254604080517ff59444b9000000000000000000000000000000000000000000000000000000008152600481018790529051600160a060020a03909216935063f59444b9925060248082019260009290919082900301818387803b15801561118d57600080fd5b505af11580156111a1573d6000803e3d6000fd5b505050505b5050565b600254604080517ff8a435590000000000000000000000000000000000000000000000000000000081529051600092600160a060020a03169163f8a435599160048083019286929190829003018186803b15801561120757600080fd5b505afa15801561121b573d6000803e3d6000fd5b505050506040513d6000823e601f3d908101601f19168201604052602081101561124457600080fd5b81019080805164010000000081111561125c57600080fd5b8201602081018481111561126f57600080fd5b815185602082028301116401000000008211171561128c57600080fd5b505051935050505090565b60006112a2836114ac565b82106112ad57600080fd5b600254604080517f67a87e8e000000000000000000000000000000000000000000000000000000008152600160a060020a03868116600483015260248201869052915191909216916367a87e8e916044808301926020929190829003018186803b15801561131a57600080fd5b505afa15801561132e573d6000803e3d6000fd5b505050506040513d602081101561134457600080fd5b50519392505050565b60006113576111aa565b821061136257600080fd5b600254604080517f3dec1cf2000000000000000000000000000000000000000000000000000000008152600481018590529051600160a060020a0390921691633dec1cf291602480820192602092909190829003018186803b1580156113c757600080fd5b505afa1580156113db573d6000803e3d6000fd5b505050506040513d60208110156113f157600080fd5b505192915050565b600254604080517f11d4fc820000000000000000000000000000000000000000000000000000000081526004810184905290516000928392600160a060020a03909116916311d4fc8291602480820192602092909190829003018186803b15801561146357600080fd5b505afa158015611477573d6000803e3d6000fd5b505050506040513d602081101561148d57600080fd5b50519050600160a060020a03811615156114a657600080fd5b92915050565b6000600160a060020a03821615156114c357600080fd5b600254604080517fc44e7939000000000000000000000000000000000000000000000000000000008152600160a060020a0385811660048301529151919092169163c44e7939916024808301926020929190829003018186803b1580156113c757600080fd5b60606114a6826121e5565b600054600160a060020a031690565b600054600160a060020a0316331490565b60606114a6826122d4565b606061156a8261233e565b151561157557600080fd5b600254604080517fadf19093000000000000000000000000000000000000000000000000000000008152600481018590529051600160a060020a039092169163adf1909391602480820192600092909190829003018186803b1580156115da57600080fd5b505afa1580156115ee573d6000803e3d6000fd5b505050506040513d6000823e601f3d908101601f19168201604052602081101561161757600080fd5b81019080805164010000000081111561162f57600080fd5b8201602081018481111561164257600080fd5b815164010000000081118282018710171561165c57600080fd5b50909695505050505050565b60006116738261233e565b151561167e57600080fd5b600254604080517f628bf434000000000000000000000000000000000000000000000000000000008152600481018590529051600160a060020a039092169163628bf43491602480820192602092909190829003018186803b1580156113c757600080fd5b6001546040805160e160020a63413b07e5028152602060048201819052600e60248301527f526567697374657265645573657200000000000000000000000000000000000060448301529151600160a060020a03909316926382760fca92606480840193919291829003018186803b15801561175e57600080fd5b505afa158015611772573d6000803e3d6000fd5b505050506040513d602081101561178857600080fd5b50516003805473ffffffffffffffffffffffffffffffffffffffff1916600160a060020a039283161790556001546040805160e160020a63413b07e5028152602060048201819052600860248301527f45647543545863610000000000000000000000000000000000000000000000006044830152915192909316926382760fca9260648083019392829003018186803b15801561182557600080fd5b505afa158015611839573d6000803e3d6000fd5b505050506040513d602081101561184f57600080fd5b50516004805473ffffffffffffffffffffffffffffffffffffffff1916600160a060020a0392831617808255604080517f0574a4ea000000000000000000000000000000000000000000000000000000008152339381019390935251921691630574a4ea91602480820192602092909190829003018186803b1580156118d457600080fd5b505afa1580156118e8573d6000803e3d6000fd5b505050506040513d60208110156118fe57600080fd5b5051151561190b57600080fd5b600354604080517f1a422550000000000000000000000000000000000000000000000000000000008152600481018690529051600160a060020a0390921691631a42255091602480820192602092909190829003018186803b15801561197057600080fd5b505afa158015611984573d6000803e3d6000fd5b505050506040513d602081101561199a57600080fd5b505115156119a757600080fd5b600254604080517fd7d588e60000000000000000000000000000000000000000000000000000000081529051600160a060020a0390921691633a30e13e91611a1491600191859163d7d588e691600480820192602092909190829003018186803b15801561094857600080fd5b6040518263ffffffff1660e060020a02815260040180828152602001915050600060405180830381600087803b158015611a4d57600080fd5b505af1158015611a61573d6000803e3d6000fd5b505050506000600260009054906101000a9004600160a060020a0316600160a060020a031663d7d588e66040518163ffffffff1660e060020a02815260040160206040518083038186803b158015611ab857600080fd5b505afa158015611acc573d6000803e3d6000fd5b505050506040513d6020811015611ae257600080fd5b5051600354604080517f8d80c922000000000000000000000000000000000000000000000000000000008152600481018890529051929350611b5092600160a060020a0390921691638d80c92291602480820192602092909190829003018186803b158015610abc57600080fd5b611b5a8133611fdb565b611b64818461205d565b611b6e818361213f565b600254604080517fbc9ef981000000000000000000000000000000000000000000000000000000008152600481018490523360248201529051600160a060020a039092169163bc9ef9819160448082019260009290919082900301818387803b158015611bda57600080fd5b505af1158015611bee573d6000803e3d6000fd5b50505050836000600160a060020a03167f4691112128424742c3235e6412cd638be1a8437131ac9304ef8940cc1a0de3fd85856040518080602001806020018381038352858181518152602001915080519060200190808383600083811015610eb1578181015183820152602001610e99565b611c69611543565b1515611c7457600080fd5b6001546040805160e160020a63413b07e5028152602060048201819052600f60248301527f456475435458746f6b656e44617461000000000000000000000000000000000060448301529151600160a060020a03909316926382760fca92606480840193919291829003018186803b158015611cef57600080fd5b505afa158015611d03573d6000803e3d6000fd5b505050506040513d6020811015611d1957600080fd5b50516002805473ffffffffffffffffffffffffffffffffffffffff1916600160a060020a03909216919091179055565b611d51611543565b1515611d5c57600080fd5b611d65816123e6565b50565b6060611d738261233e565b1515611d7e57600080fd5b600254604080517f9f93f142000000000000000000000000000000000000000000000000000000008152600481018590529051600160a060020a0390921691639f93f14291602480820192600092909190829003018186803b1580156115da57600080fd5b600082820183811015611df557600080fd5b9392505050565b600160a060020a0382161515611e1157600080fd5b611e1a8161233e565b15611e2457600080fd5b600254604080517f11cd21f400000000000000000000000000000000000000000000000000000000815260048101849052600160a060020a038581166024830152915191909216916311cd21f491604480830192600092919082900301818387803b158015611e9257600080fd5b505af1158015611ea6573d6000803e3d6000fd5b5050600254604080517fc44e7939000000000000000000000000000000000000000000000000000000008152600160a060020a03878116600483015291519190921693506332b8a48092508591611f2291600191869163c44e793991602480820192602092909190829003018186803b15801561094857600080fd5b6040518363ffffffff1660e060020a0281526004018083600160a060020a0316600160a060020a0316815260200182815260200192505050600060405180830381600087803b158015611f7457600080fd5b505af1158015611f88573d6000803e3d6000fd5b50505050611f968282612463565b611f9f81612628565b6040518190600160a060020a038416906000907fddf252ad1be2c89b69c2b068fc378daa952ba7f163c4a11628f55a4df523b3ef908290a45050565b611fe48261233e565b1515611fef57600080fd5b600254604080517f5d31665d00000000000000000000000000000000000000000000000000000000815260048101859052600160a060020a03848116602483015291519190921691635d31665d91604480830192600092919082900301818387803b15801561118d57600080fd5b6120668261233e565b151561207157600080fd5b600254604080517f41a71b1b0000000000000000000000000000000000000000000000000000000081526004810185815260248201928352845160448301528451600160a060020a03909416936341a71b1b938793879392606490910190602085019080838360005b838110156120f25781810151838201526020016120da565b50505050905090810190601f16801561211f5780820380516001836020036101000a031916815260200191505b509350505050600060405180830381600087803b15801561118d57600080fd5b6121488261233e565b151561215357600080fd5b600254604080517f96c4df940000000000000000000000000000000000000000000000000000000081526004810185815260248201928352845160448301528451600160a060020a03909416936396c4df9493879387939260649091019060208501908083836000838110156120f25781810151838201526020016120da565b611d656121df826113f9565b826127f6565b600254604080517fdd7feee4000000000000000000000000000000000000000000000000000000008152600160a060020a0384811660048301529151606093929092169163dd7feee491602480820192600092909190829003018186803b15801561224f57600080fd5b505afa158015612263573d6000803e3d6000fd5b505050506040513d6000823e601f3d908101601f19168201604052602081101561228c57600080fd5b8101908080516401000000008111156122a457600080fd5b820160208101848111156122b757600080fd5b815185602082028301116401000000008211171561165c57600080fd5b600254604080517f21301b32000000000000000000000000000000000000000000000000000000008152600160a060020a038481166004830152915160609392909216916321301b3291602480820192600092909190829003018186803b15801561224f57600080fd5b600254604080517f11d4fc820000000000000000000000000000000000000000000000000000000081526004810184905290516000928392600160a060020a03909116916311d4fc8291602480820192602092909190829003018186803b1580156123a857600080fd5b505afa1580156123bc573d6000803e3d6000fd5b505050506040513d60208110156123d257600080fd5b5051600160a060020a031615159392505050565b600160a060020a03811615156123fb57600080fd5b60008054604051600160a060020a03808516939216917f8be0079c531659141344cd1fd0a4f28419497f9722a3daafe3b4186f6b6457e091a36000805473ffffffffffffffffffffffffffffffffffffffff1916600160a060020a0392909216919091179055565b600254604080517fd3cbea2d000000000000000000000000000000000000000000000000000000008152600160a060020a0385811660048301529151919092169163f0ffa1ec918491849163d3cbea2d91602480820192600092909190829003018186803b1580156124d457600080fd5b505afa1580156124e8573d6000803e3d6000fd5b505050506040513d6000823e601f3d908101601f19168201604052602081101561251157600080fd5b81019080805164010000000081111561252957600080fd5b8201602081018481111561253c57600080fd5b815185602082028301116401000000008211171561255957600080fd5b5050929190505050516040518363ffffffff1660e060020a0281526004018083815260200182815260200192505050600060405180830381600087803b1580156125a257600080fd5b505af11580156125b6573d6000803e3d6000fd5b5050600254604080517f4e44109c000000000000000000000000000000000000000000000000000000008152600160a060020a038781166004830152602482018790529151919092169350634e44109c9250604480830192600092919082900301818387803b15801561118d57600080fd5b600254604080517ff8a435590000000000000000000000000000000000000000000000000000000081529051600160a060020a039092169163c74f24ec918491849163f8a43559916004808301926000929190829003018186803b15801561268f57600080fd5b505afa1580156126a3573d6000803e3d6000fd5b505050506040513d6000823e601f3d908101601f1916820160405260208110156126cc57600080fd5b8101908080516401000000008111156126e457600080fd5b820160208101848111156126f757600080fd5b815185602082028301116401000000008211171561271457600080fd5b5050929190505050516040518363ffffffff1660e060020a0281526004018083815260200182815260200192505050600060405180830381600087803b15801561275d57600080fd5b505af1158015612771573d6000803e3d6000fd5b5050600254604080517f036f3b6a000000000000000000000000000000000000000000000000000000008152600481018690529051600160a060020a03909216935063036f3b6a925060248082019260009290919082900301818387803b1580156127db57600080fd5b505af11580156127ef573d6000803e3d6000fd5b5050505050565b81600160a060020a0316612809826113f9565b600160a060020a03161461281c57600080fd5b600254604080517fc44e7939000000000000000000000000000000000000000000000000000000008152600160a060020a038581166004830152915191909216916332b8a4809185916128cc91600191869163c44e793991602480820192602092909190829003018186803b15801561289457600080fd5b505afa1580156128a8573d6000803e3d6000fd5b505050506040513d60208110156128be57600080fd5b50519063ffffffff612e8f16565b6040518363ffffffff1660e060020a0281526004018083600160a060020a0316600160a060020a0316815260200182815260200192505050600060405180830381600087803b15801561291e57600080fd5b505af1158015612932573d6000803e3d6000fd5b5050600254604080517f11cd21f4000000000000000000000000000000000000000000000000000000008152600481018690526000602482018190529151600160a060020a0390931694506311cd21f493506044808201939182900301818387803b1580156129a057600080fd5b505af11580156129b4573d6000803e3d6000fd5b505050506129c28282612ea4565b600254604080517ff0ffa1ec000000000000000000000000000000000000000000000000000000008152600481018490526000602482018190529151600160a060020a039093169263f0ffa1ec9260448084019391929182900301818387803b158015612a2e57600080fd5b505af1158015612a42573d6000803e3d6000fd5b50505050612a4f816132e6565b600254604080517f628bf434000000000000000000000000000000000000000000000000000000008152600481018490529051600092600160a060020a03169163628bf434916024808301926020929190829003018186803b158015612ab457600080fd5b505afa158015612ac8573d6000803e3d6000fd5b505050506040513d6020811015612ade57600080fd5b5051600160a060020a031614612b6d57600254604080517f02aeb769000000000000000000000000000000000000000000000000000000008152600481018490529051600160a060020a03909216916302aeb7699160248082019260009290919082900301818387803b158015612b5457600080fd5b505af1158015612b68573d6000803e3d6000fd5b505050505b600254604080517f9f93f142000000000000000000000000000000000000000000000000000000008152600481018490529051600160a060020a0390921691639f93f14291602480820192600092909190829003018186803b158015612bd257600080fd5b505afa158015612be6573d6000803e3d6000fd5b505050506040513d6000823e601f3d908101601f191682016040526020811015612c0f57600080fd5b810190808051640100000000811115612c2757600080fd5b82016020810184811115612c3a57600080fd5b8151640100000000811182820187101715612c5457600080fd5b505051159250612ce091505057600254604080517f3f04a948000000000000000000000000000000000000000000000000000000008152600481018490529051600160a060020a0390921691633f04a9489160248082019260009290919082900301818387803b158015612cc757600080fd5b505af1158015612cdb573d6000803e3d6000fd5b505050505b600254604080517fadf19093000000000000000000000000000000000000000000000000000000008152600481018490529051600160a060020a039092169163adf1909391602480820192600092909190829003018186803b158015612d4557600080fd5b505afa158015612d59573d6000803e3d6000fd5b505050506040513d6000823e601f3d908101601f191682016040526020811015612d8257600080fd5b810190808051640100000000811115612d9a57600080fd5b82016020810184811115612dad57600080fd5b8151640100000000811182820187101715612dc757600080fd5b505051159250612e5391505057600254604080517f6b23c29b000000000000000000000000000000000000000000000000000000008152600481018490529051600160a060020a0390921691636b23c29b9160248082019260009290919082900301818387803b158015612e3a57600080fd5b505af1158015612e4e573d6000803e3d6000fd5b505050505b6040518190600090600160a060020a038516907fddf252ad1be2c89b69c2b068fc378daa952ba7f163c4a11628f55a4df523b3ef908390a45050565b600082821115612e9e57600080fd5b50900390565b600254604080517fd3cbea2d000000000000000000000000000000000000000000000000000000008152600160a060020a0385811660048301529151600093612fab9360019391169163d3cbea2d916024808201928892909190829003018186803b158015612f1257600080fd5b505afa158015612f26573d6000803e3d6000fd5b505050506040513d6000823e601f3d908101601f191682016040526020811015612f4f57600080fd5b810190808051640100000000811115612f6757600080fd5b82016020810184811115612f7a57600080fd5b8151856020820283011164010000000082111715612f9757600080fd5b5050519392505063ffffffff612e8f169050565b600254604080517fef464c6b000000000000000000000000000000000000000000000000000000008152600481018690529051929350600092600160a060020a039092169163ef464c6b91602480820192602092909190829003018186803b15801561301657600080fd5b505afa15801561302a573d6000803e3d6000fd5b505050506040513d602081101561304057600080fd5b505190508181146131fe57600254604080517f67a87e8e000000000000000000000000000000000000000000000000000000008152600160a060020a03878116600483015260248201869052915160009392909216916367a87e8e91604480820192602092909190829003018186803b1580156130bc57600080fd5b505afa1580156130d0573d6000803e3d6000fd5b505050506040513d60208110156130e657600080fd5b5051600254604080517f75fea37c000000000000000000000000000000000000000000000000000000008152600160a060020a038981166004830152602482018790526044820185905291519394509116916375fea37c9160648082019260009290919082900301818387803b15801561315f57600080fd5b505af1158015613173573d6000803e3d6000fd5b5050600254604080517ff0ffa1ec00000000000000000000000000000000000000000000000000000000815260048101869052602481018790529051600160a060020a03909216935063f0ffa1ec925060448082019260009290919082900301818387803b1580156131e457600080fd5b505af11580156131f8573d6000803e3d6000fd5b50505050505b600254604080517fd3cbea2d000000000000000000000000000000000000000000000000000000008152600160a060020a0387811660048301529151919092169163d02cee5691879161327691600191869163d3cbea2d91602480820192600092909190829003018186803b158015612f1257600080fd5b6040518363ffffffff1660e060020a0281526004018083600160a060020a0316600160a060020a0316815260200182815260200192505050600060405180830381600087803b1580156132c857600080fd5b505af11580156132dc573d6000803e3d6000fd5b5050505050505050565b600061333e6001600260009054906101000a9004600160a060020a0316600160a060020a031663f8a435596040518163ffffffff1660e060020a02815260040160006040518083038186803b158015612f1257600080fd5b600254604080517fd6445a47000000000000000000000000000000000000000000000000000000008152600481018690529051929350600092600160a060020a039092169163d6445a4791602480820192602092909190829003018186803b1580156133a957600080fd5b505afa1580156133bd573d6000803e3d6000fd5b505050506040513d60208110156133d357600080fd5b5051600254604080517f3dec1cf2000000000000000000000000000000000000000000000000000000008152600481018690529051929350600092600160a060020a0390921691633dec1cf291602480820192602092909190829003018186803b15801561344057600080fd5b505afa158015613454573d6000803e3d6000fd5b505050506040513d602081101561346a57600080fd5b5051600254604080517f749a4e3700000000000000000000000000000000000000000000000000000000815260048101869052602481018490529051929350600160a060020a039091169163749a4e379160448082019260009290919082900301818387803b1580156134dc57600080fd5b505af11580156134f0573d6000803e3d6000fd5b5050600254604080517fc74f24ec00000000000000000000000000000000000000000000000000000000815260048101869052602481018790529051600160a060020a03909216935063c74f24ec925060448082019260009290919082900301818387803b15801561356157600080fd5b505af1158015613575573d6000803e3d6000fd5b5050600254604080517ff8a435590000000000000000000000000000000000000000000000000000000081529051600160a060020a03909216935063419835bc92506135e691600191859163f8a4355991600480820192600092909190829003018186803b158015612f1257600080fd5b6040518263ffffffff1660e060020a02815260040180828152602001915050600060405180830381600087803b15801561361f57600080fd5b505af1158015613633573d6000803e3d6000fd5b5050600254604080517fc74f24ec000000000000000000000000000000000000000000000000000000008152600481018990526000602482018190529151600160a060020a03909316945063c74f24ec93506044808201939182900301818387803b1580156132c857600080fdfea165627a7a7230582065352eb4938396ce10d7ed2d44a7de9a24c69530023b2afe896cab0c0130b8e30029",
  "source": "pragma solidity ^0.5.2;\n\nimport \"../upgradeable/DependencyManager.sol\";\nimport \"./EduCTXtokenData.sol\";\nimport \"../math/SafeMath.sol\";\nimport \"../users/RegisteredUser.sol\";\nimport \"../ca/EduCTXca.sol\";\n\n/**\n * @title Full ERC721 Token\n * This implementation includes all the requiredand some optional functionality of the ERC721 standard\n * Moreover, it includes approve all functionality using operator terminology\n * @dev see https://github.com/ethereum/EIPs/blob/master/EIPS/eip-721.md\n */\ncontract EduCTXtoken is Ownable {\n    \n    event Transfer(address indexed from, address indexed to, uint256 indexed tokenId);\n    \n    event CertificateIssued(address indexed from, uint256 indexed userID, string dataHash, string dataCipher);\n\n    using SafeMath for uint;\n    \n    DependencyManager internal dependencyManager_;\n    EduCTXtokenData internal eduCTXtokenData_;\n    RegisteredUser internal registeredUser_;\n    EduCTXca internal eduCTXca_;\n    \n    constructor(address _dependencyManagerAddress) public {\n        dependencyManager_ = DependencyManager(_dependencyManagerAddress);\n        dependencyManager_.addDependency(\"EduCTXtoken\", address(this));\n    }\n    \n    function init() external onlyOwner {\n        eduCTXtokenData_ = EduCTXtokenData(dependencyManager_.getContractAddressByName(\"EduCTXtokenData\"));\n    }\n    \n    function issueCertificate(uint _userID, string memory _dataHash, string memory _dataCipher) public  {\n        registeredUser_ = RegisteredUser(dependencyManager_.getContractAddressByName(\"RegisteredUser\"));\n        eduCTXca_ = EduCTXca(dependencyManager_.getContractAddressByName(\"EduCTXca\"));\n        \n        require(eduCTXca_.isCa(msg.sender));\n        require(registeredUser_.isRegisteredUser(_userID));\n        \n        eduCTXtokenData_._set_issuedCerts(eduCTXtokenData_._get_issuedCerts().add(1));\n        uint issuedCertsNumTemp =  eduCTXtokenData_._get_issuedCerts();\n        _mint(registeredUser_.getAddressById(_userID), issuedCertsNumTemp);\n        _setTokenIssuerAddr(issuedCertsNumTemp, msg.sender);\n        _setTokenDataHash(issuedCertsNumTemp, _dataHash);\n        _setTokenCipherText(issuedCertsNumTemp, _dataCipher);\n        eduCTXtokenData_._set_issuerTokensId(issuedCertsNumTemp, msg.sender);\n        emit CertificateIssued(address(0), _userID, _dataHash, _dataCipher);\n\n    }\n    \n    function issueCertificateAuthorizedAddress(uint _userID, string memory _dataHash, string memory _dataUri) public  {\n        registeredUser_ = RegisteredUser(dependencyManager_.getContractAddressByName(\"RegisteredUser\"));\n        eduCTXca_ = EduCTXca(dependencyManager_.getContractAddressByName(\"EduCTXca\"));\n        \n        require(eduCTXca_.isAuthorizedAddress(msg.sender));\n        require(registeredUser_.isRegisteredUser(_userID));\n\n        eduCTXtokenData_._set_issuedCerts(eduCTXtokenData_._get_issuedCerts().add(1));\n        \n        uint issuedCertsNumTemp =  eduCTXtokenData_._get_issuedCerts();\n        _mint(registeredUser_.getAddressById(_userID), issuedCertsNumTemp);\n        \n        _setTokenIssuerAddr(issuedCertsNumTemp, eduCTXca_.getAuthorizedAddressCa(msg.sender));\n        _setTokenDataHash(issuedCertsNumTemp, _dataHash);\n        _setTokenCipherText(issuedCertsNumTemp, _dataUri);\n        eduCTXtokenData_._set_issuerTokensId(issuedCertsNumTemp, eduCTXca_.getAuthorizedAddressCa(msg.sender));\n        eduCTXtokenData_._set_authorizedAddressTokensId(issuedCertsNumTemp, msg.sender);\n        eduCTXtokenData_._set_tokenIdAuthorizedAddress(issuedCertsNumTemp, msg.sender);\n\n        emit CertificateIssued(eduCTXca_.getAuthorizedAddressCa(msg.sender), _userID, _dataHash, _dataUri);\n\n    }\n    \n    function revokeCertificate(uint _tokenId) public {\n        require(tokenIssuerAddr(_tokenId) == msg.sender);\n        _burn(_tokenId);\n        eduCTXtokenData_._delete_issuerTokensId(_tokenId, msg.sender);\n        address authorizedAddress=eduCTXtokenData_._get_tokenIdAuthorizedAddress(_tokenId);\n        if (authorizedAddress!=address(0)){\n            eduCTXtokenData_._delete_authorizedAddressTokensId(_tokenId, authorizedAddress);\n            eduCTXtokenData_._delete_tokenIdAuthorizedAddress(_tokenId);\n        }\n    }\n    \n    function getIssuedTokensByCa(address _caAddress) public view returns (uint256[] memory){\n        return _getIssuedTokensByCa(_caAddress);\n    }\n\n    function getIssuedTokensByAuthorizedAddress(address _authorizedAddress) public view returns (uint256[] memory){\n        return _getIssuedTokensByAuthorizedAddress(_authorizedAddress);\n    }\n    \n    /// ERC721 contract\n    /**\n     * @dev Gets the balance of the specified address\n     * @param owner address to query the balance of\n     * @return uint256 representing the amount owned by the passed address\n     */\n    function balanceOf(address owner) public view returns (uint256) {\n        require(owner != address(0));\n        return eduCTXtokenData_._get_ownedTokensCount(owner);\n    }\n\n    /**\n     * @dev Gets the owner of the specified token ID\n     * @param tokenId uint256 ID of the token to query the owner of\n     * @return address currently marked as the owner of the given token ID\n     */\n    function ownerOf(uint256 tokenId) public view returns (address) {\n        address owner = eduCTXtokenData_._get_tokenOwner(tokenId);\n        require(owner != address(0));\n        return owner;\n    }\n\n    /**\n     * @dev Returns whether the specified token exists\n     * @param tokenId uint256 ID of the token to query the existence of\n     * @return bool whether the token exists\n     */\n    function _exists(uint256 tokenId) internal view returns (bool) {\n        address owner = eduCTXtokenData_._get_tokenOwner(tokenId);\n        return owner != address(0);\n    }\n\n    /**\n     * @dev Internal function to mint a new token\n     * Reverts if the given token ID already exists\n     * @param to The address that will own the minted token\n     * @param tokenId uint256 ID of the token to be minted\n     */\n    function _mint(address to, uint256 tokenId) internal {\n        require(to != address(0));\n        require(!_exists(tokenId));\n\n        eduCTXtokenData_._set_tokenOwner(tokenId, to);\n        eduCTXtokenData_._set_ownedTokensCount(to, eduCTXtokenData_._get_ownedTokensCount(to).add(1));\n        \n        _addTokenToOwnerEnumeration(to, tokenId);\n\n        _addTokenToAllTokensEnumeration(tokenId);\n\n        emit Transfer(address(0), to, tokenId);\n    }\n\n    /**\n     * @dev Internal function to burn a specific token\n     * Reverts if the token does not exist\n     * Deprecated, use _burn(uint256) instead.\n     * @param owner owner of the token to burn\n     * @param tokenId uint256 ID of the token being burned\n     */\n    function _burn(address owner, uint256 tokenId) internal {\n        require(ownerOf(tokenId) == owner);\n\n        eduCTXtokenData_._set_ownedTokensCount(owner, eduCTXtokenData_._get_ownedTokensCount(owner).sub(1));\n        eduCTXtokenData_._set_tokenOwner(tokenId, address(0));\n\n        _removeTokenFromOwnerEnumeration(owner, tokenId);\n        // // Since tokenId will be deleted, we can clear its slot in _ownedTokensIndex to trigger a gas refund\n        eduCTXtokenData_._set_ownedTokensIndex(tokenId, 0);\n\n        _removeTokenFromAllTokensEnumeration(tokenId);\n        \n        //   Clear metadata (if any)\n        if (eduCTXtokenData_._get_tokenIssuerAddr(tokenId) != address(0)) {\n            eduCTXtokenData_._delete_tokenIssuerAddr(tokenId);\n        }\n\n        // Clear metadata (if any)\n        if (bytes(eduCTXtokenData_._get_tokenDataHash(tokenId)).length != 0) {\n            eduCTXtokenData_._delete_tokenDataHash(tokenId);\n        }\n        \n        // Clear metadata (if any)\n        if (bytes(eduCTXtokenData_._get_tokenCipherText(tokenId)).length != 0) {\n            eduCTXtokenData_._delete_tokenCipherText(tokenId);\n        }\n\n        emit Transfer(owner, address(0), tokenId);\n    }\n\n    /**\n     * @dev Internal function to burn a specific token\n     * Reverts if the token does not exist\n     * @param tokenId uint256 ID of the token being burned\n     */\n    function _burn(uint256 tokenId) internal {\n        _burn(ownerOf(tokenId), tokenId);\n    }\n    \n    \n    //// ENUMEBRABLE CONTRACT\n\n    /**\n     * @dev Gets the token ID at a given index of the tokens list of the requested owner\n     * @param owner address owning the tokens list to be accessed\n     * @param index uint256 representing the index to be accessed of the requested tokens list\n     * @return uint256 token ID at the given index of the tokens list owned by the requested address\n     */\n    function tokenOfOwnerByIndex(address owner, uint256 index) public view returns (uint256) {\n        require(index < balanceOf(owner));\n        return eduCTXtokenData_._get_ownedTokens_counter(owner,index);\n    }\n\n    /**\n     * @dev Gets the total amount of tokens stored by the contract\n     * @return uint256 representing the total amount of tokens\n     */\n    function totalSupply() public view returns (uint256) {\n        return eduCTXtokenData_._get_allTokens().length;\n    }\n\n    /**\n     * @dev Gets the token ID at a given index of all the tokens in this contract\n     * Reverts if the index is greater or equal to the total number of tokens\n     * @param index uint256 representing the index to be accessed of the tokens list\n     * @return uint256 token ID at the given index of the tokens list\n     */\n    function tokenByIndex(uint256 index) public view returns (uint256) {\n        require(index < totalSupply());\n        return eduCTXtokenData_._get_allTokens_counter(index);\n    }\n\n    /**\n     * @dev Gets the list of token IDs of the requested owner\n     * @param owner address owning the tokens\n     * @return uint256[] List of token IDs owned by the requested address\n     */\n    function _tokensOfOwner(address owner) internal view returns (uint256[] memory) {\n        return eduCTXtokenData_._get_ownedTokens_all(owner);\n    }\n\n    /**\n     * @dev Private function to add a token to this extension's ownership-tracking data structures.\n     * @param to address representing the new owner of the given token ID\n     * @param tokenId uint256 ID of the token to be added to the tokens list of the given address\n     */\n    function _addTokenToOwnerEnumeration(address to, uint256 tokenId) private {\n        eduCTXtokenData_._set_ownedTokensIndex(tokenId, eduCTXtokenData_._get_ownedTokens_all(to).length);\n        eduCTXtokenData_._set_ownedTokens_push(to, tokenId);\n    }\n\n    /**\n     * @dev Private function to add a token to this extension's token tracking data structures.\n     * @param tokenId uint256 ID of the token to be added to the tokens list\n     */\n    function _addTokenToAllTokensEnumeration(uint256 tokenId) private {\n        eduCTXtokenData_._set_allTokensIndex(tokenId, eduCTXtokenData_._get_allTokens().length);\n        eduCTXtokenData_._set_allTokens_push(tokenId);\n    }\n\n    /**\n     * @dev Private function to remove a token from this extension's ownership-tracking data structures. Note that\n     * while the token is not assigned a new owner, the _ownedTokensIndex mapping is _not_ updated: this allows for\n     * gas optimizations e.g. when performing a transfer operation (avoiding double writes).\n     * This has O(1) time complexity, but alters the order of the _ownedTokens array.\n     * @param from address representing the previous owner of the given token ID\n     * @param tokenId uint256 ID of the token to be removed from the tokens list of the given address\n     */\n    function _removeTokenFromOwnerEnumeration(address from, uint256 tokenId) private {\n        // To prevent a gap in from's tokens array, we store the last token in the index of the token to delete, and\n        // then delete the last slot (swap and pop).\n        uint256 lastTokenIndex = eduCTXtokenData_._get_ownedTokens_all(from).length.sub(1); // eduCTXtokenData_\n        uint256 tokenIndex = eduCTXtokenData_._get_ownedTokensIndex(tokenId);\n\n        // // When the token to delete is the last token, the swap operation is unnecessary\n        if (tokenIndex != lastTokenIndex) {\n            uint256 lastTokenId = eduCTXtokenData_._get_ownedTokens_counter(from,lastTokenIndex);\n\n            eduCTXtokenData_._set_ownedTokens_counter(from, tokenIndex, lastTokenId);\n            eduCTXtokenData_._set_ownedTokensIndex(lastTokenId, tokenIndex);\n        }\n\n        // // This also deletes the contents at the last position of the array\n        eduCTXtokenData_._set_ownedTokens_length(from, eduCTXtokenData_._get_ownedTokens_all(from).length.sub(1));\n\n        // Note that _ownedTokensIndex[tokenId] hasn't been cleared: it still points to the old slot (now occcupied by\n        // lasTokenId, or just over the end of the array if the token was the last one).\n    }\n\n    /**\n     * @dev Private function to remove a token from this extension's token tracking data structures.\n     * This has O(1) time complexity, but alters the order of the _allTokens array.\n     * @param tokenId uint256 ID of the token to be removed from the tokens list\n     */\n    function _removeTokenFromAllTokensEnumeration(uint256 tokenId) private {\n        // To prevent a gap in the tokens array, we store the last token in the index of the token to delete, and\n        // then delete the last slot (swap and pop).\n        uint256 lastTokenIndex = eduCTXtokenData_._get_allTokens().length.sub(1);\n        uint256 tokenIndex = eduCTXtokenData_._get_allTokensIndex(tokenId);\n\n        // When the token to delete is the last token, the swap operation is unnecessary. However, since this occurs so\n        // rarely (when the last minted token is burnt) that we still do the swap here to avoid the gas cost of adding\n        // an 'if' statement (like in _removeTokenFromOwnerEnumeration)\n        uint256 lastTokenId = eduCTXtokenData_._get_allTokens_counter(lastTokenIndex);\n\n        eduCTXtokenData_._set_allTokens_counter(tokenIndex, lastTokenId); \n        eduCTXtokenData_._set_allTokensIndex(lastTokenId, tokenIndex);\n\n        // This also deletes the contents at the last position of the array\n        eduCTXtokenData_._set_allTokens_length(eduCTXtokenData_._get_allTokens().length.sub(1));\n        eduCTXtokenData_._set_allTokensIndex(tokenId, 0);\n\n    }\n    \n    /// ERC721Metadata\n    function tokenIssuerAddr(uint256 tokenId) public view returns (address) {\n        require(_exists(tokenId));\n        return eduCTXtokenData_._get_tokenIssuerAddr(tokenId);\n    }\n\n    function _setTokenIssuerAddr(uint256 tokenId, address account) internal {\n        require(_exists(tokenId));\n        eduCTXtokenData_._set_tokenIssuerAddr(tokenId, account);\n    }\n\n    function tokenDataHash(uint256 tokenId) public view returns (string memory) {\n        require(_exists(tokenId));\n        return eduCTXtokenData_._get_tokenDataHash(tokenId);\n    }\n\n    function _setTokenDataHash(uint256 tokenId, string memory dataHash) internal {\n        require(_exists(tokenId));\n        return eduCTXtokenData_._set_tokenDataHash(tokenId, dataHash);\n    }\n    \n    function tokenCipherText(uint256 tokenId) public view returns (string memory) {\n        require(_exists(tokenId));\n        return eduCTXtokenData_._get_tokenCipherText(tokenId);\n    }\n\n    function _setTokenCipherText(uint256 tokenId, string memory dataCipher) internal {\n        require(_exists(tokenId));\n        eduCTXtokenData_._set_tokenCipherText(tokenId, dataCipher);\n    }\n\n    function _getIssuedTokensByCa(address _caAddress) internal view returns (uint[] memory){\n        return eduCTXtokenData_._get_issuerTokensId(_caAddress);\n    }\n\n    function _getIssuedTokensByAuthorizedAddress(address _authorizedAddress) internal view returns (uint[] memory){\n        return eduCTXtokenData_._get_authorizedAddressTokensId(_authorizedAddress);\n    }\n\n    \n\n}\n",
  "sourcePath": "/builds/gitlab/eductx/eductx-react/eductx-platform/contracts/token/EduCTXtoken.sol",
  "compiler": {
    "name": "solc",
    "version": "0.5.2+commit.1df8f40c.Emscripten.clang"
  },
  "schemaVersion": "3.4.3",
  "updatedAt": "2021-10-12T07:49:43.801Z",
  "networkType": "ethereum",
  "devdoc": {
    "details": "see https://github.com/ethereum/EIPs/blob/master/EIPS/eip-721.md",
    "methods": {
      "balanceOf(address)": {
        "details": "Gets the balance of the specified address",
        "params": {
          "owner": "address to query the balance of"
        },
        "return": "uint256 representing the amount owned by the passed address"
      },
      "isOwner()": {
        "return": "true if `msg.sender` is the owner of the contract."
      },
      "owner()": {
        "return": "the address of the owner."
      },
      "ownerOf(uint256)": {
        "details": "Gets the owner of the specified token ID",
        "params": {
          "tokenId": "uint256 ID of the token to query the owner of"
        },
        "return": "address currently marked as the owner of the given token ID"
      },
      "tokenByIndex(uint256)": {
        "details": "Gets the token ID at a given index of all the tokens in this contract Reverts if the index is greater or equal to the total number of tokens",
        "params": {
          "index": "uint256 representing the index to be accessed of the tokens list"
        },
        "return": "uint256 token ID at the given index of the tokens list"
      },
      "tokenOfOwnerByIndex(address,uint256)": {
        "details": "Gets the token ID at a given index of the tokens list of the requested owner",
        "params": {
          "index": "uint256 representing the index to be accessed of the requested tokens list",
          "owner": "address owning the tokens list to be accessed"
        },
        "return": "uint256 token ID at the given index of the tokens list owned by the requested address"
      },
      "totalSupply()": {
        "details": "Gets the total amount of tokens stored by the contract",
        "return": "uint256 representing the total amount of tokens"
      },
      "transferOwnership(address)": {
        "details": "Allows the current owner to transfer control of the contract to a newOwner.",
        "params": {
          "newOwner": "The address to transfer ownership to."
        }
      }
    },
    "title": "Full ERC721 Token This implementation includes all the requiredand some optional functionality of the ERC721 standard Moreover, it includes approve all functionality using operator terminology"
  },
  "userdoc": {
    "methods": {
      "tokenIssuerAddr(uint256)": {
        "notice": "ERC721Metadata"
      }
    }
  }
}