{
  "contractName": "EduCTXca",
  "abi": [
    {
      "constant": true,
      "inputs": [],
      "name": "owner",
      "outputs": [
        {
          "name": "",
          "type": "address"
        }
      ],
      "payable": false,
      "stateMutability": "view",
      "type": "function"
    },
    {
      "constant": true,
      "inputs": [],
      "name": "isOwner",
      "outputs": [
        {
          "name": "",
          "type": "bool"
        }
      ],
      "payable": false,
      "stateMutability": "view",
      "type": "function"
    },
    {
      "constant": false,
      "inputs": [
        {
          "name": "newOwner",
          "type": "address"
        }
      ],
      "name": "transferOwnership",
      "outputs": [],
      "payable": false,
      "stateMutability": "nonpayable",
      "type": "function"
    },
    {
      "inputs": [
        {
          "name": "_dependencyManagerAddress",
          "type": "address"
        }
      ],
      "payable": false,
      "stateMutability": "nonpayable",
      "type": "constructor"
    },
    {
      "anonymous": false,
      "inputs": [
        {
          "indexed": true,
          "name": "_from",
          "type": "address"
        },
        {
          "indexed": true,
          "name": "_caAddress",
          "type": "address"
        },
        {
          "indexed": false,
          "name": "_metaName",
          "type": "string"
        },
        {
          "indexed": false,
          "name": "_metaLogoURI",
          "type": "string"
        }
      ],
      "name": "AddCA",
      "type": "event"
    },
    {
      "anonymous": false,
      "inputs": [
        {
          "indexed": true,
          "name": "_from",
          "type": "address"
        },
        {
          "indexed": true,
          "name": "_caAddress",
          "type": "address"
        }
      ],
      "name": "RemoveCA",
      "type": "event"
    },
    {
      "anonymous": false,
      "inputs": [
        {
          "indexed": false,
          "name": "_type",
          "type": "string"
        },
        {
          "indexed": true,
          "name": "_from",
          "type": "address"
        },
        {
          "indexed": true,
          "name": "_caAddress",
          "type": "address"
        },
        {
          "indexed": false,
          "name": "_newMetaData",
          "type": "string"
        }
      ],
      "name": "ChangeCaMeta",
      "type": "event"
    },
    {
      "anonymous": false,
      "inputs": [
        {
          "indexed": true,
          "name": "_caAddress",
          "type": "address"
        },
        {
          "indexed": true,
          "name": "_authorizedAddress",
          "type": "address"
        }
      ],
      "name": "AddAuthorizedAddress",
      "type": "event"
    },
    {
      "anonymous": false,
      "inputs": [
        {
          "indexed": true,
          "name": "_caAddress",
          "type": "address"
        },
        {
          "indexed": true,
          "name": "_authorizedAddress",
          "type": "address"
        }
      ],
      "name": "RemoveAuthorizedAddress",
      "type": "event"
    },
    {
      "anonymous": false,
      "inputs": [
        {
          "indexed": true,
          "name": "previousOwner",
          "type": "address"
        },
        {
          "indexed": true,
          "name": "newOwner",
          "type": "address"
        }
      ],
      "name": "OwnershipTransferred",
      "type": "event"
    },
    {
      "constant": false,
      "inputs": [],
      "name": "init",
      "outputs": [],
      "payable": false,
      "stateMutability": "nonpayable",
      "type": "function"
    },
    {
      "constant": true,
      "inputs": [
        {
          "name": "_address",
          "type": "address"
        }
      ],
      "name": "isCa",
      "outputs": [
        {
          "name": "",
          "type": "bool"
        }
      ],
      "payable": false,
      "stateMutability": "view",
      "type": "function"
    },
    {
      "constant": true,
      "inputs": [
        {
          "name": "_address",
          "type": "address"
        }
      ],
      "name": "isAuthorizedAddress",
      "outputs": [
        {
          "name": "",
          "type": "bool"
        }
      ],
      "payable": false,
      "stateMutability": "view",
      "type": "function"
    },
    {
      "constant": false,
      "inputs": [
        {
          "name": "_caAddress",
          "type": "address"
        },
        {
          "name": "_metaName",
          "type": "string"
        },
        {
          "name": "_metaLogoURI",
          "type": "string"
        }
      ],
      "name": "addCa",
      "outputs": [],
      "payable": false,
      "stateMutability": "nonpayable",
      "type": "function"
    },
    {
      "constant": false,
      "inputs": [
        {
          "name": "_caAddress",
          "type": "address"
        }
      ],
      "name": "removeCa",
      "outputs": [],
      "payable": false,
      "stateMutability": "nonpayable",
      "type": "function"
    },
    {
      "constant": false,
      "inputs": [
        {
          "name": "_authorizedAddress",
          "type": "address"
        }
      ],
      "name": "addAuthorizedAddress",
      "outputs": [],
      "payable": false,
      "stateMutability": "nonpayable",
      "type": "function"
    },
    {
      "constant": false,
      "inputs": [
        {
          "name": "_authorizedAddress",
          "type": "address"
        }
      ],
      "name": "removeAuthorizedAddress",
      "outputs": [],
      "payable": false,
      "stateMutability": "nonpayable",
      "type": "function"
    },
    {
      "constant": false,
      "inputs": [
        {
          "name": "_newMetaName",
          "type": "string"
        },
        {
          "name": "_newMetaLogoURI",
          "type": "string"
        }
      ],
      "name": "changeMeta",
      "outputs": [],
      "payable": false,
      "stateMutability": "nonpayable",
      "type": "function"
    },
    {
      "constant": true,
      "inputs": [
        {
          "name": "_caAddress",
          "type": "address"
        }
      ],
      "name": "getCaMetaData",
      "outputs": [
        {
          "name": "",
          "type": "string"
        },
        {
          "name": "",
          "type": "string"
        }
      ],
      "payable": false,
      "stateMutability": "view",
      "type": "function"
    },
    {
      "constant": true,
      "inputs": [],
      "name": "getAllCa",
      "outputs": [
        {
          "name": "",
          "type": "address[]"
        }
      ],
      "payable": false,
      "stateMutability": "view",
      "type": "function"
    },
    {
      "constant": true,
      "inputs": [
        {
          "name": "_ca",
          "type": "address"
        }
      ],
      "name": "getAuthorizedAddressesByCa",
      "outputs": [
        {
          "name": "",
          "type": "address[]"
        }
      ],
      "payable": false,
      "stateMutability": "view",
      "type": "function"
    },
    {
      "constant": true,
      "inputs": [
        {
          "name": "_authorizedAddress",
          "type": "address"
        }
      ],
      "name": "getAuthorizedAddressCa",
      "outputs": [
        {
          "name": "",
          "type": "address"
        }
      ],
      "payable": false,
      "stateMutability": "view",
      "type": "function"
    }
  ],
  "bytecode": "0x608060405234801561001057600080fd5b5060405160208061248e8339810180604052602081101561003057600080fd5b505160008054600160a060020a0319163317808255604051600160a060020a039190911691907f8be0079c531659141344cd1fd0a4f28419497f9722a3daafe3b4186f6b6457e0908290a360018054600160a060020a031916600160a060020a038381169190911791829055604080517f39675c3d00000000000000000000000000000000000000000000000000000000815230602482015260048101829052600860448201527f45647543545863610000000000000000000000000000000000000000000000006064820152905192909116916339675c3d9160848082019260009290919082900301818387803b15801561012b57600080fd5b505af115801561013f573d6000803e3d6000fd5b505050505061233b806101536000396000f3fe608060405234801561001057600080fd5b5060043610610112576000357c01000000000000000000000000000000000000000000000000000000009004806370712939116100b4578063cc81227d11610083578063cc81227d14610429578063d0f9fe211461044f578063e1c7392a14610553578063f2fde38b1461055b57610112565b806370712939146103cf5780638da5cb5b146103f55780638f32d59b14610419578063a61650c71461042157610112565b806342f1181e116100f057806342f1181e1461023b57806348bfca8e146102615780634a85280e146102d75780636e9f2d1e146102fd57610112565b80630574a4ea146101175780630e20467c146101515780632a9307b414610215575b600080fd5b61013d6004803603602081101561012d57600080fd5b5035600160a060020a0316610581565b604080519115158252519081900360200190f35b6102136004803603604081101561016757600080fd5b81019060208101813564010000000081111561018257600080fd5b82018360208201111561019457600080fd5b803590602001918460018302840111640100000000831117156101b657600080fd5b9193909290916020810190356401000000008111156101d457600080fd5b8201836020820111156101e657600080fd5b8035906020019184600183028401116401000000008311171561020857600080fd5b50909250905061066c565b005b6102136004803603602081101561022b57600080fd5b5035600160a060020a0316610706565b6102136004803603602081101561025157600080fd5b5035600160a060020a0316610725565b6102876004803603602081101561027757600080fd5b5035600160a060020a0316610743565b60408051602080825283518183015283519192839290830191858101910280838360005b838110156102c35781810151838201526020016102ab565b505050509050019250505060405180910390f35b61013d600480360360208110156102ed57600080fd5b5035600160a060020a031661083e565b6102136004803603606081101561031357600080fd5b600160a060020a03823516919081019060408101602082013564010000000081111561033e57600080fd5b82018360208201111561035057600080fd5b8035906020019184600183028401116401000000008311171561037257600080fd5b91939092909160208101903564010000000081111561039057600080fd5b8201836020820111156103a257600080fd5b803590602001918460018302840111640100000000831117156103c457600080fd5b509092509050610922565b610213600480360360208110156103e557600080fd5b5035600160a060020a03166109b0565b6103fd6109ce565b60408051600160a060020a039092168252519081900360200190f35b61013d6109dd565b6102876109ee565b6103fd6004803603602081101561043f57600080fd5b5035600160a060020a0316610adc565b6104756004803603602081101561046557600080fd5b5035600160a060020a0316610b62565b604051808060200180602001838103835285818151815260200191508051906020019080838360005b838110156104b657818101518382015260200161049e565b50505050905090810190601f1680156104e35780820380516001836020036101000a031916815260200191505b50838103825284518152845160209182019186019080838360005b838110156105165781810151838201526020016104fe565b50505050905090810190601f1680156105435780820380516001836020036101000a031916815260200191505b5094505050505060405180910390f35b610213610d33565b6102136004803603602081101561057157600080fd5b5035600160a060020a0316610e31565b6002546040805160e160020a6320660965028152600160a060020a038481166004830152915160009392909216916340cc12ca916024808201928692909190829003018186803b1580156105d457600080fd5b505afa1580156105e8573d6000803e3d6000fd5b505050506040513d6000823e601f3d908101601f19168201604052602081101561061157600080fd5b81019080805164010000000081111561062957600080fd5b8201602081018481111561063c57600080fd5b815164010000000081118282018710171561065657600080fd5b505051159250610667915050575060015b919050565b61067533610581565b151561068057600080fd5b6106c03385858080601f016020809104026020016040519081016040528093929190818152602001838380828437600092019190915250610e4d92505050565b6107003383838080601f01602080910402602001604051908101604052809392919081815260200183838082843760009201919091525061117392505050565b50505050565b61070e6109dd565b151561071957600080fd5b6107228161146f565b50565b61072e33610581565b151561073957600080fd5b610722338261176a565b600254604080517f28140098000000000000000000000000000000000000000000000000000000008152600160a060020a03848116600483015291516060939290921691632814009891602480820192600092909190829003018186803b1580156107ad57600080fd5b505afa1580156107c1573d6000803e3d6000fd5b505050506040513d6000823e601f3d908101601f1916820160405260208110156107ea57600080fd5b81019080805164010000000081111561080257600080fd5b8201602081018481111561081557600080fd5b815185602082028301116401000000008211171561083257600080fd5b50909695505050505050565b6002546040805160e160020a63070e08fb028152600160a060020a038481166004830152915160009392909216916340cc12ca918391630e1c11f691602480820192602092909190829003018186803b15801561089a57600080fd5b505afa1580156108ae573d6000803e3d6000fd5b505050506040513d60208110156108c457600080fd5b5051604080517c010000000000000000000000000000000000000000000000000000000063ffffffff8516028152600160a060020a039092166004830152516024808301926000929190829003018186803b1580156105d457600080fd5b61092a6109dd565b151561093557600080fd5b6109a98585858080601f01602080910402602001604051908101604052809392919081815260200183838082843760009201919091525050604080516020601f8901819004810282018101909252878152925087915086908190840183828082843760009201919091525061198e92505050565b5050505050565b6109b933610581565b15156109c457600080fd5b6107223382611f9f565b600054600160a060020a031690565b600054600160a060020a0316331490565b600254604080517f582e0c240000000000000000000000000000000000000000000000000000000081529051606092600160a060020a03169163582e0c24916004808301926000929190829003018186803b158015610a4c57600080fd5b505afa158015610a60573d6000803e3d6000fd5b505050506040513d6000823e601f3d908101601f191682016040526020811015610a8957600080fd5b810190808051640100000000811115610aa157600080fd5b82016020810184811115610ab457600080fd5b8151856020820283011164010000000082111715610ad157600080fd5b509094505050505090565b6002546040805160e160020a63070e08fb028152600160a060020a03848116600483015291516000939290921691630e1c11f691602480820192602092909190829003018186803b158015610b3057600080fd5b505afa158015610b44573d6000803e3d6000fd5b505050506040513d6020811015610b5a57600080fd5b505192915050565b600254604080517fbcc3baf0000000000000000000000000000000000000000000000000000000008152600160a060020a03848116600483015291516060938493169163bcc3baf0916024808301926000929190829003018186803b158015610bca57600080fd5b505afa158015610bde573d6000803e3d6000fd5b505050506040513d6000823e601f3d908101601f191682016040526020811015610c0757600080fd5b810190808051640100000000811115610c1f57600080fd5b82016020810184811115610c3257600080fd5b8151640100000000811182820187101715610c4c57600080fd5b50506002546040805160e160020a6320660965028152600160a060020a038a811660048301529151939650911693506340cc12ca9250602480820192600092909190829003018186803b158015610ca257600080fd5b505afa158015610cb6573d6000803e3d6000fd5b505050506040513d6000823e601f3d908101601f191682016040526020811015610cdf57600080fd5b810190808051640100000000811115610cf757600080fd5b82016020810184811115610d0a57600080fd5b8151640100000000811182820187101715610d2457600080fd5b50949650945050505050915091565b610d3b6109dd565b1515610d4657600080fd5b600154604080517f82760fca000000000000000000000000000000000000000000000000000000008152602060048201819052600c60248301527f456475435458636144617461000000000000000000000000000000000000000060448301529151600160a060020a03909316926382760fca92606480840193919291829003018186803b158015610dd757600080fd5b505afa158015610deb573d6000803e3d6000fd5b505050506040513d6020811015610e0157600080fd5b50516002805473ffffffffffffffffffffffffffffffffffffffff1916600160a060020a03909216919091179055565b610e396109dd565b1515610e4457600080fd5b6107228161224f565b600160a060020a03821615801590610e655750805115155b1515610e7057600080fd5b6002546040805160e160020a6320660965028152600160a060020a038581166004830152915191909216916340cc12ca916024808301926000929190829003018186803b158015610ec057600080fd5b505afa158015610ed4573d6000803e3d6000fd5b505050506040513d6000823e601f3d908101601f191682016040526020811015610efd57600080fd5b810190808051640100000000811115610f1557600080fd5b82016020810184811115610f2857600080fd5b8151640100000000811182820187101715610f4257600080fd5b50505115159250610fa0915050576040805160e560020a62461bcd02815260206004820152601260248201527f436120646f6573206e6f74206578697374730000000000000000000000000000604482015290519081900360640190fd5b600254604080517f7ecca490000000000000000000000000000000000000000000000000000000008152600160a060020a0385811660048301908152602483019384528551604484015285519190941693637ecca4909387938793606490910190602085019080838360005b8381101561102457818101518382015260200161100c565b50505050905090810190601f1680156110515780820380516001836020036101000a031916815260200191505b509350505050600060405180830381600087803b15801561107157600080fd5b505af1158015611085573d6000803e3d6000fd5b5050505081600160a060020a031633600160a060020a03167f77791f27238098856afb1bddc6d2b379dfec1ec71ec5893af9476e353f770b3983604051808060200180602001838103835260048152602001807f6e616d6500000000000000000000000000000000000000000000000000000000815250602001838103825284818151815260200191508051906020019080838360005b8381101561113457818101518382015260200161111c565b50505050905090810190601f1680156111615780820380516001836020036101000a031916815260200191505b50935050505060405180910390a35050565b600160a060020a0382161580159061118b5750805115155b151561119657600080fd5b600254604080517fbcc3baf0000000000000000000000000000000000000000000000000000000008152600160a060020a0385811660048301529151919092169163bcc3baf0916024808301926000929190829003018186803b1580156111fc57600080fd5b505afa158015611210573d6000803e3d6000fd5b505050506040513d6000823e601f3d908101601f19168201604052602081101561123957600080fd5b81019080805164010000000081111561125157600080fd5b8201602081018481111561126457600080fd5b815164010000000081118282018710171561127e57600080fd5b505051151592506112dc915050576040805160e560020a62461bcd02815260206004820152601260248201527f436120646f6573206e6f74206578697374730000000000000000000000000000604482015290519081900360640190fd5b600254604080517f466c8dc0000000000000000000000000000000000000000000000000000000008152600160a060020a038581166004830190815260248301938452855160448401528551919094169363466c8dc09387938793606490910190602085019080838360005b83811015611360578181015183820152602001611348565b50505050905090810190601f16801561138d5780820380516001836020036101000a031916815260200191505b509350505050600060405180830381600087803b1580156113ad57600080fd5b505af11580156113c1573d6000803e3d6000fd5b5050505081600160a060020a031633600160a060020a03167f77791f27238098856afb1bddc6d2b379dfec1ec71ec5893af9476e353f770b3983604051808060200180602001838103835260078152602001807f6c6f676f55524900000000000000000000000000000000000000000000000000815250602001838103825284818151815260200191508051906020019080838360008381101561113457818101518382015260200161111c565b600160a060020a038116151561148457600080fd5b6002546040805160e160020a6320660965028152600160a060020a038481166004830152915191909216916340cc12ca916024808301926000929190829003018186803b1580156114d457600080fd5b505afa1580156114e8573d6000803e3d6000fd5b505050506040513d6000823e601f3d908101601f19168201604052602081101561151157600080fd5b81019080805164010000000081111561152957600080fd5b8201602081018481111561153c57600080fd5b815164010000000081118282018710171561155657600080fd5b505051151592506115b4915050576040805160e560020a62461bcd02815260206004820152601260248201527f434120646f6573206e6f74206578697374730000000000000000000000000000604482015290519081900360640190fd5b600254604080517f385a98a4000000000000000000000000000000000000000000000000000000008152600160a060020a0384811660048301529151919092169163385a98a491602480830192600092919082900301818387803b15801561161b57600080fd5b505af115801561162f573d6000803e3d6000fd5b5050600254604080517faccf4da4000000000000000000000000000000000000000000000000000000008152600160a060020a038681166004830152915191909216935063accf4da49250602480830192600092919082900301818387803b15801561169a57600080fd5b505af11580156116ae573d6000803e3d6000fd5b5050600254604080517fdc217b6c000000000000000000000000000000000000000000000000000000008152600160a060020a038681166004830152915191909216935063dc217b6c9250602480830192600092919082900301818387803b15801561171957600080fd5b505af115801561172d573d6000803e3d6000fd5b5050604051600160a060020a03841692503391507f3e88f5a3193ec4205517f497c83611c27bac009f91e7cb86147ec62cc5a68dae90600090a350565b600160a060020a038116151561177f57600080fd5b6002546040805160e160020a63070e08fb028152600160a060020a038481166004830152915160009390921691630e1c11f691602480820192602092909190829003018186803b1580156117d257600080fd5b505afa1580156117e6573d6000803e3d6000fd5b505050506040513d60208110156117fc57600080fd5b5051600160a060020a0316146118465760405160e560020a62461bcd0281526004018080602001828103825260218152602001806122ef6021913960400191505060405180910390fd5b600254604080517f32df1256000000000000000000000000000000000000000000000000000000008152600160a060020a0384811660048301528581166024830152915191909216916332df125691604480830192600092919082900301818387803b1580156118b557600080fd5b505af11580156118c9573d6000803e3d6000fd5b5050600254604080517f6fe96f5a000000000000000000000000000000000000000000000000000000008152600160a060020a03868116600483015287811660248301529151919092169350636fe96f5a9250604480830192600092919082900301818387803b15801561193c57600080fd5b505af1158015611950573d6000803e3d6000fd5b5050604051600160a060020a03841692503391507faf8508c0b8719450ed95136dd944afe9595c75876d242b741ae0bc1e5eaedba890600090a35050565b600160a060020a038316158015906119a65750815115155b80156119b25750805115155b15156119bd57600080fd5b6002546040805160e160020a6320660965028152600160a060020a038681166004830152915191909216916340cc12ca916024808301926000929190829003018186803b158015611a0d57600080fd5b505afa158015611a21573d6000803e3d6000fd5b505050506040513d6000823e601f3d908101601f191682016040526020811015611a4a57600080fd5b810190808051640100000000811115611a6257600080fd5b82016020810184811115611a7557600080fd5b8151640100000000811182820187101715611a8f57600080fd5b505051159250611aec915050576040805160e560020a62461bcd02815260206004820152601160248201527f434120616c726561647920657869737473000000000000000000000000000000604482015290519081900360640190fd5b600254604080517fbcc3baf0000000000000000000000000000000000000000000000000000000008152600160a060020a0386811660048301529151919092169163bcc3baf0916024808301926000929190829003018186803b158015611b5257600080fd5b505afa158015611b66573d6000803e3d6000fd5b505050506040513d6000823e601f3d908101601f191682016040526020811015611b8f57600080fd5b810190808051640100000000811115611ba757600080fd5b82016020810184811115611bba57600080fd5b8151640100000000811182820187101715611bd457600080fd5b505051159250611c31915050576040805160e560020a62461bcd02815260206004820152601160248201527f434120616c726561647920657869737473000000000000000000000000000000604482015290519081900360640190fd5b600254604080517f7ecca490000000000000000000000000000000000000000000000000000000008152600160a060020a0386811660048301908152602483019384528651604484015286519190941693637ecca4909388938893606490910190602085019080838360005b83811015611cb5578181015183820152602001611c9d565b50505050905090810190601f168015611ce25780820380516001836020036101000a031916815260200191505b509350505050600060405180830381600087803b158015611d0257600080fd5b505af1158015611d16573d6000803e3d6000fd5b5050600254604080517f466c8dc0000000000000000000000000000000000000000000000000000000008152600160a060020a03888116600483019081526024830193845287516044840152875191909416955063466c8dc094508893879390929091606490910190602085019080838360005b83811015611da2578181015183820152602001611d8a565b50505050905090810190601f168015611dcf5780820380516001836020036101000a031916815260200191505b509350505050600060405180830381600087803b158015611def57600080fd5b505af1158015611e03573d6000803e3d6000fd5b5050600254604080517fb9175009000000000000000000000000000000000000000000000000000000008152600160a060020a038881166004830152915191909216935063b91750099250602480830192600092919082900301818387803b158015611e6e57600080fd5b505af1158015611e82573d6000803e3d6000fd5b5050505082600160a060020a031633600160a060020a03167f05d99544891aedb34e2213b3a0633e88cf7c453bce27d6ccfbba439971c03ee98484604051808060200180602001838103835285818151815260200191508051906020019080838360005b83811015611efe578181015183820152602001611ee6565b50505050905090810190601f168015611f2b5780820380516001836020036101000a031916815260200191505b50838103825284518152845160209182019186019080838360005b83811015611f5e578181015183820152602001611f46565b50505050905090810190601f168015611f8b5780820380516001836020036101000a031916815260200191505b5094505050505060405180910390a3505050565b600160a060020a0381161515611fb457600080fd5b6002546040805160e160020a63070e08fb028152600160a060020a03848116600483015291518286169390921691630e1c11f691602480820192602092909190829003018186803b15801561200857600080fd5b505afa15801561201c573d6000803e3d6000fd5b505050506040513d602081101561203257600080fd5b5051600160a060020a03161461204757600080fd5b6002546040805160e160020a63070e08fb028152600160a060020a038481166004830152915160009390921691630e1c11f691602480820192602092909190829003018186803b15801561209a57600080fd5b505afa1580156120ae573d6000803e3d6000fd5b505050506040513d60208110156120c457600080fd5b5051600160a060020a0316141561210f5760405160e560020a62461bcd0281526004018080602001828103825260228152602001806122cd6022913960400191505060405180910390fd5b600254604080517faadc8fbb000000000000000000000000000000000000000000000000000000008152600160a060020a0384811660048301529151919092169163aadc8fbb91602480830192600092919082900301818387803b15801561217657600080fd5b505af115801561218a573d6000803e3d6000fd5b5050600254604080517f20fb3aa2000000000000000000000000000000000000000000000000000000008152600160a060020a038681166004830152878116602483015291519190921693506320fb3aa29250604480830192600092919082900301818387803b1580156121fd57600080fd5b505af1158015612211573d6000803e3d6000fd5b5050604051600160a060020a03841692503391507fc52c44f8a39fe604f1c629ebe19b1b045c4862110faa63d9fcfbb4e6655a8e9e90600090a35050565b600160a060020a038116151561226457600080fd5b60008054604051600160a060020a03808516939216917f8be0079c531659141344cd1fd0a4f28419497f9722a3daafe3b4186f6b6457e091a36000805473ffffffffffffffffffffffffffffffffffffffff1916600160a060020a039290921691909117905556fe417574686f72697a6564206164647265737320646f6573206e6f7420657869737473417574686f72697a6564206164647265737320616c726561647920657869737473a165627a7a72305820f3d08e0a870c23c4ff009c87e8a9602885608a06e7b275646484647e4cf7d32e0029",
  "source": "pragma solidity ^0.5.2;\n\nimport \"../upgradeable/DependencyManager.sol\";\nimport \"./EduCTXcaData.sol\";\nimport '../ownership/Ownable.sol';\n\ncontract EduCTXca is Ownable {\n    \n    DependencyManager private dependencyManager_;\n    EduCTXcaData private eduCTXcaData_;\n    \n    event AddCA(address indexed _from, address indexed _caAddress, string _metaName, string _metaLogoURI);\n    event RemoveCA(address indexed _from, address indexed _caAddress);\n    event ChangeCaMeta(string _type, address indexed _from, address indexed _caAddress, string _newMetaData);\n    event AddAuthorizedAddress(address indexed _caAddress, address indexed _authorizedAddress);\n    event RemoveAuthorizedAddress(address indexed _caAddress, address indexed _authorizedAddress);\n    \n    constructor(address _dependencyManagerAddress) public {\n        dependencyManager_ = DependencyManager(_dependencyManagerAddress);\n        dependencyManager_.addDependency(\"EduCTXca\", address(this));\n    }\n    \n    function init() external onlyOwner {\n        eduCTXcaData_ = EduCTXcaData(dependencyManager_.getContractAddressByName(\"EduCTXcaData\"));\n    }\n    \n    /// sender must be authorized address\n    modifier onlyAuthorizedAddress {\n        require(isAuthorizedAddress(msg.sender));\n        _;\n    }\n    \n    /// sender must be already added as ca\n    modifier onlyCa {\n        require(isCa(msg.sender));\n        _;\n    }\n    \n    /// Function that returns if address is on CA list or not\n    function isCa(address _address) public view returns(bool) {\n        if(bytes(eduCTXcaData_._get_caMetaName(_address)).length != 0) return true;\n    }\n    \n    /// Function that returns if address is on authorized address list\n    function isAuthorizedAddress(address _address) public view returns(bool) {\n        if(bytes(eduCTXcaData_._get_caMetaName(eduCTXcaData_._get_authorizedAddressCa(_address))).length != 0) return true;\n    }\n    \n    /// Function that add new address on CA address list - can be performed only by system owner\n    function addCa(address _caAddress, string calldata _metaName, string calldata _metaLogoURI) external onlyOwner {\n        _addCa(_caAddress, _metaName, _metaLogoURI);\n    }\n    \n    /// Function that add new address on CA address list - can be performed only by system owner\n    function removeCa(address _caAddress) external onlyOwner { \n        _removeCa(_caAddress);\n    }\n    \n    /// Function that add authorized address - can be performed only by ca\n    function addAuthorizedAddress(address _authorizedAddress) external onlyCa {\n        _addAuthorizedAddress(msg.sender, _authorizedAddress);\n    }\n    \n    /// Function that remove authorized address - can be performed only by ca\n    function removeAuthorizedAddress(address _authorizedAddress) external onlyCa {\n        _removeAuthorizedAddress(msg.sender, _authorizedAddress);\n    }\n    \n    function changeMeta(string calldata _newMetaName, string calldata _newMetaLogoURI) external onlyCa {\n        _changeCaMetaName(msg.sender, _newMetaName);\n        _changeCaMetaLogoURI(msg.sender, _newMetaLogoURI);\n\n    }\n    \n    /// Function that return CA Logo URI and NAME\n    function getCaMetaData(address _caAddress) public view returns(string memory, string memory) {\n        return (eduCTXcaData_._get_caMetaLogoURI(_caAddress), eduCTXcaData_._get_caMetaName(_caAddress));\n    }\n\n    /// Function that return all CA in the system\n    function getAllCa() public view returns(address[] memory) {\n        return eduCTXcaData_._get_caArray();\n    }\n\n    /// Function that return array of CA authorized addresses\n    function getAuthorizedAddressesByCa(address _ca) public view returns(address[] memory) {\n        return eduCTXcaData_._get_caAuthorizedAddresses(_ca);\n    }\n    \n    /// Function that return ca address which authorized address\n    function getAuthorizedAddressCa(address _authorizedAddress) public view returns(address) {\n        return eduCTXcaData_._get_authorizedAddressCa(_authorizedAddress);\n    }\n    \n    /// TO-DO avtomatsko ga dodaj v certPacketsveritifcation\n    function _addCa(address _caAddress, string memory _metaName, string memory _metaLogoURI) internal {\n        require(_caAddress != address(0) && bytes(_metaName).length != 0 && bytes(_metaLogoURI).length != 0);\n        require(bytes(eduCTXcaData_._get_caMetaName(_caAddress)).length == 0, \"CA already exists\");\n        require(bytes(eduCTXcaData_._get_caMetaLogoURI(_caAddress)).length == 0, \"CA already exists\");\n        eduCTXcaData_._set_caMetaName(_caAddress, _metaName);\n        eduCTXcaData_._set_caMetaLogoURI(_caAddress, _metaLogoURI);\n        eduCTXcaData_._set_caArray(_caAddress);\n        emit AddCA(msg.sender, _caAddress, _metaName, _metaLogoURI);\n    }\n    \n    function _removeCa(address _caAddress) internal {\n        require(_caAddress != address(0));\n        require(bytes(eduCTXcaData_._get_caMetaName(_caAddress)).length != 0, \"CA does not exists\");\n        eduCTXcaData_._delete_caMetaName(_caAddress);\n        eduCTXcaData_._delete_caMetaLogoURI(_caAddress);\n        eduCTXcaData_._delete_caArray(_caAddress);\n        emit RemoveCA(msg.sender, _caAddress);\n    }\n    \n    function _changeCaMetaName(address _caAddress, string memory _metaName) internal {\n        require(_caAddress != address(0) && bytes(_metaName).length != 0);\n        require(bytes(eduCTXcaData_._get_caMetaName(_caAddress)).length != 0, \"Ca does not exists\");\n        eduCTXcaData_._set_caMetaName(_caAddress, _metaName);\n        emit ChangeCaMeta(\"name\", msg.sender, _caAddress, _metaName);\n    }\n    \n   function _changeCaMetaLogoURI(address _caAddress, string memory _metaLogoURI) internal {\n        require(_caAddress != address(0) && bytes(_metaLogoURI).length != 0);\n        require(bytes(eduCTXcaData_._get_caMetaLogoURI(_caAddress)).length != 0, \"Ca does not exists\");\n        eduCTXcaData_._set_caMetaLogoURI(_caAddress, _metaLogoURI);\n        emit ChangeCaMeta(\"logoURI\", msg.sender, _caAddress, _metaLogoURI);\n    }\n    \n    function _addAuthorizedAddress(address _caAddress, address _authorizedAddress) internal {\n        require(_authorizedAddress != address(0));\n        require(eduCTXcaData_._get_authorizedAddressCa(_authorizedAddress) == address(0), \"Authorized address already exists\");\n        eduCTXcaData_._set_authorizedAddressCa(_authorizedAddress, _caAddress);\n        eduCTXcaData_._set_caAuthorizedAddresses(_authorizedAddress, _caAddress);\n        emit AddAuthorizedAddress(msg.sender, _authorizedAddress);\n    }\n    \n    function _removeAuthorizedAddress(address _caAddress, address _authorizedAddress) internal {\n        require(_authorizedAddress != address(0));\n        require(eduCTXcaData_._get_authorizedAddressCa(_authorizedAddress) == _caAddress);\n        require(eduCTXcaData_._get_authorizedAddressCa(_authorizedAddress) != address(0), \"Authorized address does not exists\");\n        eduCTXcaData_._delete_authorizedAddressCa(_authorizedAddress);\n        eduCTXcaData_._delete_caAuthorizedAddresses(_authorizedAddress, _caAddress);\n        emit RemoveAuthorizedAddress(msg.sender, _authorizedAddress);\n    }\n    \n}",
  "sourcePath": "/builds/gitlab/eductx/eductx-react/eductx-platform/contracts/ca/EduCTXca.sol",
  "compiler": {
    "name": "solc",
    "version": "0.5.2+commit.1df8f40c.Emscripten.clang"
  },
  "schemaVersion": "3.4.3",
  "updatedAt": "2021-10-12T07:49:43.763Z",
  "networkType": "ethereum",
  "devdoc": {
    "methods": {
      "isOwner()": {
        "return": "true if `msg.sender` is the owner of the contract."
      },
      "owner()": {
        "return": "the address of the owner."
      },
      "transferOwnership(address)": {
        "details": "Allows the current owner to transfer control of the contract to a newOwner.",
        "params": {
          "newOwner": "The address to transfer ownership to."
        }
      }
    }
  },
  "userdoc": {
    "methods": {
      "addAuthorizedAddress(address)": {
        "notice": "Function that add authorized address - can be performed only by ca"
      },
      "addCa(address,string,string)": {
        "notice": "Function that add new address on CA address list - can be performed only by system owner"
      },
      "getAllCa()": {
        "notice": "Function that return all CA in the system"
      },
      "getAuthorizedAddressCa(address)": {
        "notice": "Function that return ca address which authorized address"
      },
      "getAuthorizedAddressesByCa(address)": {
        "notice": "Function that return array of CA authorized addresses"
      },
      "getCaMetaData(address)": {
        "notice": "Function that return CA Logo URI and NAME"
      },
      "isAuthorizedAddress(address)": {
        "notice": "Function that returns if address is on authorized address list"
      },
      "isCa(address)": {
        "notice": "Function that returns if address is on CA list or not"
      },
      "removeAuthorizedAddress(address)": {
        "notice": "Function that remove authorized address - can be performed only by ca"
      },
      "removeCa(address)": {
        "notice": "Function that add new address on CA address list - can be performed only by system owner"
      }
    }
  }
}