{
  "contractName": "EduCTXtokenData",
  "abi": [
    {
      "constant": true,
      "inputs": [],
      "name": "owner",
      "outputs": [
        {
          "name": "",
          "type": "address"
        }
      ],
      "payable": false,
      "stateMutability": "view",
      "type": "function"
    },
    {
      "constant": true,
      "inputs": [],
      "name": "isOwner",
      "outputs": [
        {
          "name": "",
          "type": "bool"
        }
      ],
      "payable": false,
      "stateMutability": "view",
      "type": "function"
    },
    {
      "constant": false,
      "inputs": [
        {
          "name": "newOwner",
          "type": "address"
        }
      ],
      "name": "transferOwnership",
      "outputs": [],
      "payable": false,
      "stateMutability": "nonpayable",
      "type": "function"
    },
    {
      "inputs": [
        {
          "name": "_dependencyManagerAddress",
          "type": "address"
        }
      ],
      "payable": false,
      "stateMutability": "nonpayable",
      "type": "constructor"
    },
    {
      "anonymous": false,
      "inputs": [
        {
          "indexed": true,
          "name": "from",
          "type": "address"
        },
        {
          "indexed": true,
          "name": "to",
          "type": "address"
        },
        {
          "indexed": true,
          "name": "tokenId",
          "type": "uint256"
        }
      ],
      "name": "Transfer",
      "type": "event"
    },
    {
      "anonymous": false,
      "inputs": [
        {
          "indexed": true,
          "name": "previousOwner",
          "type": "address"
        },
        {
          "indexed": true,
          "name": "newOwner",
          "type": "address"
        }
      ],
      "name": "OwnershipTransferred",
      "type": "event"
    },
    {
      "constant": false,
      "inputs": [],
      "name": "init",
      "outputs": [],
      "payable": false,
      "stateMutability": "nonpayable",
      "type": "function"
    },
    {
      "constant": false,
      "inputs": [
        {
          "name": "_a",
          "type": "uint256"
        },
        {
          "name": "_b",
          "type": "address"
        }
      ],
      "name": "_set_tokenOwner",
      "outputs": [],
      "payable": false,
      "stateMutability": "nonpayable",
      "type": "function"
    },
    {
      "constant": true,
      "inputs": [
        {
          "name": "_a",
          "type": "uint256"
        }
      ],
      "name": "_get_tokenOwner",
      "outputs": [
        {
          "name": "",
          "type": "address"
        }
      ],
      "payable": false,
      "stateMutability": "view",
      "type": "function"
    },
    {
      "constant": false,
      "inputs": [
        {
          "name": "_a",
          "type": "uint256"
        }
      ],
      "name": "_delete_tokenOwner",
      "outputs": [],
      "payable": false,
      "stateMutability": "nonpayable",
      "type": "function"
    },
    {
      "constant": true,
      "inputs": [
        {
          "name": "_tokenId",
          "type": "uint256"
        }
      ],
      "name": "_get_tokenIdAuthorizedAddress",
      "outputs": [
        {
          "name": "",
          "type": "address"
        }
      ],
      "payable": false,
      "stateMutability": "view",
      "type": "function"
    },
    {
      "constant": false,
      "inputs": [
        {
          "name": "_tokenId",
          "type": "uint256"
        }
      ],
      "name": "_delete_tokenIdAuthorizedAddress",
      "outputs": [],
      "payable": false,
      "stateMutability": "nonpayable",
      "type": "function"
    },
    {
      "constant": false,
      "inputs": [
        {
          "name": "_a",
          "type": "uint256"
        },
        {
          "name": "_b",
          "type": "address"
        }
      ],
      "name": "_set_tokenIdAuthorizedAddress",
      "outputs": [],
      "payable": false,
      "stateMutability": "nonpayable",
      "type": "function"
    },
    {
      "constant": false,
      "inputs": [
        {
          "name": "_a",
          "type": "uint256"
        },
        {
          "name": "_b",
          "type": "address"
        }
      ],
      "name": "_set_authorizedAddressTokensId",
      "outputs": [],
      "payable": false,
      "stateMutability": "nonpayable",
      "type": "function"
    },
    {
      "constant": true,
      "inputs": [
        {
          "name": "_a",
          "type": "address"
        }
      ],
      "name": "_get_authorizedAddressTokensId",
      "outputs": [
        {
          "name": "",
          "type": "uint256[]"
        }
      ],
      "payable": false,
      "stateMutability": "view",
      "type": "function"
    },
    {
      "constant": false,
      "inputs": [
        {
          "name": "_tokenId",
          "type": "uint256"
        },
        {
          "name": "_authorizedAddress",
          "type": "address"
        }
      ],
      "name": "_delete_authorizedAddressTokensId",
      "outputs": [],
      "payable": false,
      "stateMutability": "nonpayable",
      "type": "function"
    },
    {
      "constant": false,
      "inputs": [
        {
          "name": "_a",
          "type": "uint256"
        },
        {
          "name": "_b",
          "type": "address"
        }
      ],
      "name": "_set_issuerTokensId",
      "outputs": [],
      "payable": false,
      "stateMutability": "nonpayable",
      "type": "function"
    },
    {
      "constant": true,
      "inputs": [
        {
          "name": "_a",
          "type": "address"
        }
      ],
      "name": "_get_issuerTokensId",
      "outputs": [
        {
          "name": "",
          "type": "uint256[]"
        }
      ],
      "payable": false,
      "stateMutability": "view",
      "type": "function"
    },
    {
      "constant": false,
      "inputs": [
        {
          "name": "_tokenId",
          "type": "uint256"
        },
        {
          "name": "_issuer",
          "type": "address"
        }
      ],
      "name": "_delete_issuerTokensId",
      "outputs": [],
      "payable": false,
      "stateMutability": "nonpayable",
      "type": "function"
    },
    {
      "constant": false,
      "inputs": [
        {
          "name": "_a",
          "type": "address"
        },
        {
          "name": "_b",
          "type": "uint256"
        }
      ],
      "name": "_set_ownedTokensCount",
      "outputs": [],
      "payable": false,
      "stateMutability": "nonpayable",
      "type": "function"
    },
    {
      "constant": true,
      "inputs": [
        {
          "name": "_a",
          "type": "address"
        }
      ],
      "name": "_get_ownedTokensCount",
      "outputs": [
        {
          "name": "",
          "type": "uint256"
        }
      ],
      "payable": false,
      "stateMutability": "view",
      "type": "function"
    },
    {
      "constant": false,
      "inputs": [
        {
          "name": "_a",
          "type": "address"
        }
      ],
      "name": "_delete_ownedTokensCount",
      "outputs": [],
      "payable": false,
      "stateMutability": "nonpayable",
      "type": "function"
    },
    {
      "constant": false,
      "inputs": [
        {
          "name": "_a",
          "type": "address"
        },
        {
          "name": "_b",
          "type": "uint256"
        }
      ],
      "name": "_set_ownedTokens_push",
      "outputs": [],
      "payable": false,
      "stateMutability": "nonpayable",
      "type": "function"
    },
    {
      "constant": false,
      "inputs": [
        {
          "name": "_a",
          "type": "address"
        },
        {
          "name": "_b",
          "type": "uint256"
        },
        {
          "name": "_c",
          "type": "uint256"
        }
      ],
      "name": "_set_ownedTokens_counter",
      "outputs": [],
      "payable": false,
      "stateMutability": "nonpayable",
      "type": "function"
    },
    {
      "constant": true,
      "inputs": [
        {
          "name": "_a",
          "type": "address"
        }
      ],
      "name": "_get_ownedTokens_all",
      "outputs": [
        {
          "name": "",
          "type": "uint256[]"
        }
      ],
      "payable": false,
      "stateMutability": "view",
      "type": "function"
    },
    {
      "constant": true,
      "inputs": [
        {
          "name": "_a",
          "type": "address"
        },
        {
          "name": "_b",
          "type": "uint256"
        }
      ],
      "name": "_get_ownedTokens_counter",
      "outputs": [
        {
          "name": "",
          "type": "uint256"
        }
      ],
      "payable": false,
      "stateMutability": "view",
      "type": "function"
    },
    {
      "constant": false,
      "inputs": [
        {
          "name": "_a",
          "type": "address"
        }
      ],
      "name": "_delete_ownedTokens_index",
      "outputs": [],
      "payable": false,
      "stateMutability": "nonpayable",
      "type": "function"
    },
    {
      "constant": false,
      "inputs": [
        {
          "name": "_a",
          "type": "address"
        },
        {
          "name": "_b",
          "type": "uint256"
        }
      ],
      "name": "_delete_ownedTokens_index",
      "outputs": [],
      "payable": false,
      "stateMutability": "nonpayable",
      "type": "function"
    },
    {
      "constant": false,
      "inputs": [
        {
          "name": "_a",
          "type": "address"
        },
        {
          "name": "_b",
          "type": "uint256"
        }
      ],
      "name": "_set_ownedTokens_length",
      "outputs": [],
      "payable": false,
      "stateMutability": "nonpayable",
      "type": "function"
    },
    {
      "constant": false,
      "inputs": [
        {
          "name": "_a",
          "type": "uint256"
        },
        {
          "name": "_b",
          "type": "uint256"
        }
      ],
      "name": "_set_ownedTokensIndex",
      "outputs": [],
      "payable": false,
      "stateMutability": "nonpayable",
      "type": "function"
    },
    {
      "constant": true,
      "inputs": [
        {
          "name": "_a",
          "type": "uint256"
        }
      ],
      "name": "_get_ownedTokensIndex",
      "outputs": [
        {
          "name": "",
          "type": "uint256"
        }
      ],
      "payable": false,
      "stateMutability": "view",
      "type": "function"
    },
    {
      "constant": false,
      "inputs": [
        {
          "name": "_a",
          "type": "uint256"
        }
      ],
      "name": "_delete_ownedTokensIndex",
      "outputs": [],
      "payable": false,
      "stateMutability": "nonpayable",
      "type": "function"
    },
    {
      "constant": false,
      "inputs": [
        {
          "name": "_a",
          "type": "uint256"
        }
      ],
      "name": "_set_allTokens_push",
      "outputs": [],
      "payable": false,
      "stateMutability": "nonpayable",
      "type": "function"
    },
    {
      "constant": false,
      "inputs": [
        {
          "name": "_a",
          "type": "uint256"
        },
        {
          "name": "_b",
          "type": "uint256"
        }
      ],
      "name": "_set_allTokens_counter",
      "outputs": [],
      "payable": false,
      "stateMutability": "nonpayable",
      "type": "function"
    },
    {
      "constant": true,
      "inputs": [],
      "name": "_get_allTokens",
      "outputs": [
        {
          "name": "",
          "type": "uint256[]"
        }
      ],
      "payable": false,
      "stateMutability": "view",
      "type": "function"
    },
    {
      "constant": true,
      "inputs": [
        {
          "name": "_a",
          "type": "uint256"
        }
      ],
      "name": "_get_allTokens_counter",
      "outputs": [
        {
          "name": "",
          "type": "uint256"
        }
      ],
      "payable": false,
      "stateMutability": "view",
      "type": "function"
    },
    {
      "constant": false,
      "inputs": [
        {
          "name": "_a",
          "type": "uint256"
        }
      ],
      "name": "_delete_allTokens_counter",
      "outputs": [],
      "payable": false,
      "stateMutability": "nonpayable",
      "type": "function"
    },
    {
      "constant": false,
      "inputs": [
        {
          "name": "_b",
          "type": "uint256"
        }
      ],
      "name": "_set_allTokens_length",
      "outputs": [],
      "payable": false,
      "stateMutability": "nonpayable",
      "type": "function"
    },
    {
      "constant": false,
      "inputs": [
        {
          "name": "_a",
          "type": "uint256"
        },
        {
          "name": "_b",
          "type": "uint256"
        }
      ],
      "name": "_set_allTokensIndex",
      "outputs": [],
      "payable": false,
      "stateMutability": "nonpayable",
      "type": "function"
    },
    {
      "constant": true,
      "inputs": [
        {
          "name": "_a",
          "type": "uint256"
        }
      ],
      "name": "_get_allTokensIndex",
      "outputs": [
        {
          "name": "",
          "type": "uint256"
        }
      ],
      "payable": false,
      "stateMutability": "view",
      "type": "function"
    },
    {
      "constant": false,
      "inputs": [
        {
          "name": "_a",
          "type": "uint256"
        }
      ],
      "name": "_delete_allTokensIndex",
      "outputs": [],
      "payable": false,
      "stateMutability": "nonpayable",
      "type": "function"
    },
    {
      "constant": false,
      "inputs": [
        {
          "name": "_a",
          "type": "uint256"
        },
        {
          "name": "_b",
          "type": "address"
        }
      ],
      "name": "_set_tokenIssuerAddr",
      "outputs": [],
      "payable": false,
      "stateMutability": "nonpayable",
      "type": "function"
    },
    {
      "constant": true,
      "inputs": [
        {
          "name": "_a",
          "type": "uint256"
        }
      ],
      "name": "_get_tokenIssuerAddr",
      "outputs": [
        {
          "name": "",
          "type": "address"
        }
      ],
      "payable": false,
      "stateMutability": "view",
      "type": "function"
    },
    {
      "constant": false,
      "inputs": [
        {
          "name": "_a",
          "type": "uint256"
        }
      ],
      "name": "_delete_tokenIssuerAddr",
      "outputs": [],
      "payable": false,
      "stateMutability": "nonpayable",
      "type": "function"
    },
    {
      "constant": false,
      "inputs": [
        {
          "name": "_a",
          "type": "uint256"
        },
        {
          "name": "_b",
          "type": "string"
        }
      ],
      "name": "_set_tokenDataHash",
      "outputs": [],
      "payable": false,
      "stateMutability": "nonpayable",
      "type": "function"
    },
    {
      "constant": true,
      "inputs": [
        {
          "name": "_a",
          "type": "uint256"
        }
      ],
      "name": "_get_tokenDataHash",
      "outputs": [
        {
          "name": "",
          "type": "string"
        }
      ],
      "payable": false,
      "stateMutability": "view",
      "type": "function"
    },
    {
      "constant": false,
      "inputs": [
        {
          "name": "_a",
          "type": "uint256"
        }
      ],
      "name": "_delete_tokenDataHash",
      "outputs": [],
      "payable": false,
      "stateMutability": "nonpayable",
      "type": "function"
    },
    {
      "constant": false,
      "inputs": [
        {
          "name": "_a",
          "type": "uint256"
        },
        {
          "name": "_b",
          "type": "string"
        }
      ],
      "name": "_set_tokenCipherText",
      "outputs": [],
      "payable": false,
      "stateMutability": "nonpayable",
      "type": "function"
    },
    {
      "constant": true,
      "inputs": [
        {
          "name": "_a",
          "type": "uint256"
        }
      ],
      "name": "_get_tokenCipherText",
      "outputs": [
        {
          "name": "",
          "type": "string"
        }
      ],
      "payable": false,
      "stateMutability": "view",
      "type": "function"
    },
    {
      "constant": false,
      "inputs": [
        {
          "name": "_a",
          "type": "uint256"
        }
      ],
      "name": "_delete_tokenCipherText",
      "outputs": [],
      "payable": false,
      "stateMutability": "nonpayable",
      "type": "function"
    },
    {
      "constant": false,
      "inputs": [
        {
          "name": "_a",
          "type": "uint256"
        }
      ],
      "name": "_set_issuedCerts",
      "outputs": [],
      "payable": false,
      "stateMutability": "nonpayable",
      "type": "function"
    },
    {
      "constant": true,
      "inputs": [],
      "name": "_get_issuedCerts",
      "outputs": [
        {
          "name": "",
          "type": "uint256"
        }
      ],
      "payable": false,
      "stateMutability": "view",
      "type": "function"
    }
  ],
  "bytecode": "0x608060405234801561001057600080fd5b506040516020806200310e8339810180604052602081101561003157600080fd5b505160008054600160a060020a0319163317808255604051600160a060020a039190911691907f8be0079c531659141344cd1fd0a4f28419497f9722a3daafe3b4186f6b6457e0908290a3600e8054600160a060020a031916600160a060020a038381169190911791829055604080517f39675c3d00000000000000000000000000000000000000000000000000000000815230602482015260048101829052600f60448201527f456475435458746f6b656e4461746100000000000000000000000000000000006064820152905192909116916339675c3d9160848082019260009290919082900301818387803b15801561012c57600080fd5b505af1158015610140573d6000803e3d6000fd5b5050505050612fb980620001556000396000f3fe608060405234801561001057600080fd5b50600436106102d8576000357c01000000000000000000000000000000000000000000000000000000009004806375fea37c1161019f578063d02cee5611610106578063e1c7392a116100bf578063f2fde38b11610099578063f2fde38b14610a53578063f59444b914610a79578063f8a4355914610a96578063fcd10e6914610a9e576102d8565b8063e1c7392a14610a0b578063ef464c6b14610a13578063f0ffa1ec14610a30576102d8565b8063d02cee5614610942578063d3cbea2d1461096e578063d6445a4714610994578063d7d588e6146109b1578063dd7feee4146109b9578063e0ec5c97146109df576102d8565b8063b400ffd611610158578063b400ffd614610858578063b8f17a7f14610884578063bba3e5a4146108a1578063bc9ef981146108cd578063c44e7939146108f9578063c74f24ec1461091f576102d8565b806375fea37c146106dc5780638da5cb5b1461070e5780638f32d59b1461071657806396c4df94146107325780639f93f142146107a9578063adf190931461083b576102d8565b80633dec1cf211610243578063628bf434116101fc578063628bf434146105fb57806367a87e8e1461061857806368c5ed25146106445780636b23c29b1461067057806371e6de9c1461068d578063749a4e37146106b9576102d8565b80633dec1cf2146104c35780633f04a948146104f2578063419835bc1461050f57806341a71b1b1461052c5780634e44109c146105a35780635d31665d146105cf576102d8565b806311d4fc821161029557806311d4fc821461039b578063192273d0146103b85780631bc06e39146103de57806321301b321461040457806332b8a4801461047a5780633a30e13e146104a6576102d8565b806302aeb769146102dd578063036f3b6a146102fc57806306491bc9146103195780630cd0059f146103195780630fd4b1471461033657806311cd21f41461036f575b600080fd5b6102fa600480360360208110156102f357600080fd5b5035610abb565b005b6102fa6004803603602081101561031257600080fd5b5035610b64565b6102fa6004803603602081101561032f57600080fd5b5035610c24565b6103536004803603602081101561034c57600080fd5b5035610ccd565b60408051600160a060020a039092168252519081900360200190f35b6102fa6004803603604081101561038557600080fd5b5080359060200135600160a060020a0316610d74565b610353600480360360208110156103b157600080fd5b5035610e2d565b6102fa600480360360208110156103ce57600080fd5b5035600160a060020a0316610ed4565b6102fa600480360360208110156103f457600080fd5b5035600160a060020a0316610f79565b61042a6004803603602081101561041a57600080fd5b5035600160a060020a0316611028565b60408051602080825283518183015283519192839290830191858101910280838360005b8381101561046657818101518382015260200161044e565b505050509050019250505060405180910390f35b6102fa6004803603604081101561049057600080fd5b50600160a060020a03813516906020013561111d565b6102fa600480360360208110156104bc57600080fd5b50356111c4565b6104e0600480360360208110156104d957600080fd5b5035611254565b60408051918252519081900360200190f35b6102fa6004803603602081101561050857600080fd5b50356112ff565b6102fa6004803603602081101561052557600080fd5b50356113a1565b6102fa6004803603604081101561054257600080fd5b8135919081019060408101602082013564010000000081111561056457600080fd5b82018360208201111561057657600080fd5b8035906020019184600183028401116401000000008311171561059857600080fd5b50909250905061143c565b6102fa600480360360408110156105b957600080fd5b50600160a060020a0381351690602001356114e6565b6102fa600480360360408110156105e557600080fd5b5080359060200135600160a060020a031661159d565b6103536004803603602081101561061157600080fd5b5035611656565b6104e06004803603604081101561062e57600080fd5b50600160a060020a0381351690602001356116fd565b6102fa6004803603604081101561065a57600080fd5b5080359060200135600160a060020a03166117bf565b6102fa6004803603602081101561068657600080fd5b5035611874565b6102fa600480360360408110156106a357600080fd5b5080359060200135600160a060020a0316611916565b6102fa600480360360408110156106cf57600080fd5b50803590602001356119cf565b6102fa600480360360608110156106f257600080fd5b50600160a060020a038135169060208101359060400135611a7a565b610353611b3d565b61071e611b4d565b604080519115158252519081900360200190f35b6102fa6004803603604081101561074857600080fd5b8135919081019060408101602082013564010000000081111561076a57600080fd5b82018360208201111561077c57600080fd5b8035906020019184600183028401116401000000008311171561079e57600080fd5b509092509050611b5e565b6107c6600480360360208110156107bf57600080fd5b5035611c02565b6040805160208082528351818301528351919283929083019185019080838360005b838110156108005781810151838201526020016107e8565b50505050905090810190601f16801561082d5780820380516001836020036101000a031916815260200191505b509250505060405180910390f35b6107c66004803603602081101561085157600080fd5b5035611d22565b6102fa6004803603604081101561086e57600080fd5b5080359060200135600160a060020a0316611e15565b6102fa6004803603602081101561089a57600080fd5b5035612026565b6102fa600480360360408110156108b757600080fd5b5080359060200135600160a060020a03166120cd565b6102fa600480360360408110156108e357600080fd5b5080359060200135600160a060020a03166122d5565b6104e06004803603602081101561090f57600080fd5b5035600160a060020a031661238a565b6102fa6004803603604081101561093557600080fd5b5080359060200135612431565b6102fa6004803603604081101561095857600080fd5b50600160a060020a0381351690602001356124ce565b61042a6004803603602081101561098457600080fd5b5035600160a060020a0316612582565b6104e0600480360360208110156109aa57600080fd5b5035612675565b6104e0612713565b61042a600480360360208110156109cf57600080fd5b5035600160a060020a03166127a5565b6102fa600480360360408110156109f557600080fd5b50600160a060020a038135169060200135612898565b6102fa612956565b6104e060048036036020811015610a2957600080fd5b5035612a47565b6102fa60048036036040811015610a4657600080fd5b5080359060200135612ae5565b6102fa60048036036020811015610a6957600080fd5b5035600160a060020a0316612b82565b6102fa60048036036020811015610a8f57600080fd5b5035612b9e565b61042a612c47565b6102fa60048036036020811015610ab457600080fd5b5035612d28565b600f546040805160e160020a63217689c10281523060048201523360248201529051600160a060020a03909216916342ed138291604480820192602092909190829003018186803b158015610b0f57600080fd5b505afa158015610b23573d6000803e3d6000fd5b505050506040513d6020811015610b3957600080fd5b50511515610b4657600080fd5b60009081526007602052604090208054600160a060020a0319169055565b600f546040805160e160020a63217689c10281523060048201523360248201529051600160a060020a03909216916342ed138291604480820192602092909190829003018186803b158015610bb857600080fd5b505afa158015610bcc573d6000803e3d6000fd5b505050506040513d6020811015610be257600080fd5b50511515610bef57600080fd5b600580546001810182556000919091527f036b6384b5eca791c62761152d0c79bb0604c104a5fb6f4eb0703f3154bb3db00155565b600f546040805160e160020a63217689c10281523060048201523360248201529051600160a060020a03909216916342ed138291604480820192602092909190829003018186803b158015610c7857600080fd5b505afa158015610c8c573d6000803e3d6000fd5b505050506040513d6020811015610ca257600080fd5b50511515610caf57600080fd5b60009081526001602052604090208054600160a060020a0319169055565b600f546040805160e160020a63217689c10281523060048201523360248201529051600092600160a060020a0316916342ed1382916044808301926020929190829003018186803b158015610d2157600080fd5b505afa158015610d35573d6000803e3d6000fd5b505050506040513d6020811015610d4b57600080fd5b50511515610d5857600080fd5b506000908152600c6020526040902054600160a060020a031690565b600f546040805160e160020a63217689c10281523060048201523360248201529051600160a060020a03909216916342ed138291604480820192602092909190829003018186803b158015610dc857600080fd5b505afa158015610ddc573d6000803e3d6000fd5b505050506040513d6020811015610df257600080fd5b50511515610dff57600080fd5b6000918252600160205260409091208054600160a060020a031916600160a060020a03909216919091179055565b600f546040805160e160020a63217689c10281523060048201523360248201529051600092600160a060020a0316916342ed1382916044808301926020929190829003018186803b158015610e8157600080fd5b505afa158015610e95573d6000803e3d6000fd5b505050506040513d6020811015610eab57600080fd5b50511515610eb857600080fd5b50600090815260016020526040902054600160a060020a031690565b600f546040805160e160020a63217689c10281523060048201523360248201529051600160a060020a03909216916342ed138291604480820192602092909190829003018186803b158015610f2857600080fd5b505afa158015610f3c573d6000803e3d6000fd5b505050506040513d6020811015610f5257600080fd5b50511515610f5f57600080fd5b600160a060020a0316600090815260026020526040812055565b600f546040805160e160020a63217689c10281523060048201523360248201529051600160a060020a03909216916342ed138291604480820192602092909190829003018186803b158015610fcd57600080fd5b505afa158015610fe1573d6000803e3d6000fd5b505050506040513d6020811015610ff757600080fd5b5051151561100457600080fd5b600160a060020a038116600090815260036020526040812061102591612e34565b50565b600f546040805160e160020a63217689c10281523060048201523360248201529051606092600160a060020a0316916342ed1382916044808301926020929190829003018186803b15801561107c57600080fd5b505afa158015611090573d6000803e3d6000fd5b505050506040513d60208110156110a657600080fd5b505115156110b357600080fd5b600160a060020a0382166000908152600a60209081526040918290208054835181840281018401909452808452909183018282801561111157602002820191906000526020600020905b8154815260200190600101908083116110fd575b50505050509050919050565b600f546040805160e160020a63217689c10281523060048201523360248201529051600160a060020a03909216916342ed138291604480820192602092909190829003018186803b15801561117157600080fd5b505afa158015611185573d6000803e3d6000fd5b505050506040513d602081101561119b57600080fd5b505115156111a857600080fd5b600160a060020a03909116600090815260026020526040902055565b600f546040805160e160020a63217689c10281523060048201523360248201529051600160a060020a03909216916342ed138291604480820192602092909190829003018186803b15801561121857600080fd5b505afa15801561122c573d6000803e3d6000fd5b505050506040513d602081101561124257600080fd5b5051151561124f57600080fd5b600d55565b600f546040805160e160020a63217689c10281523060048201523360248201529051600092600160a060020a0316916342ed1382916044808301926020929190829003018186803b1580156112a857600080fd5b505afa1580156112bc573d6000803e3d6000fd5b505050506040513d60208110156112d257600080fd5b505115156112df57600080fd5b60058054839081106112ed57fe5b90600052602060002001549050919050565b600f546040805160e160020a63217689c10281523060048201523360248201529051600160a060020a03909216916342ed138291604480820192602092909190829003018186803b15801561135357600080fd5b505afa158015611367573d6000803e3d6000fd5b505050506040513d602081101561137d57600080fd5b5051151561138a57600080fd5b600081815260086020526040812061102591612e52565b600f546040805160e160020a63217689c10281523060048201523360248201529051600160a060020a03909216916342ed138291604480820192602092909190829003018186803b1580156113f557600080fd5b505afa158015611409573d6000803e3d6000fd5b505050506040513d602081101561141f57600080fd5b5051151561142c57600080fd5b80611438600582612e96565b5050565b600f546040805160e160020a63217689c10281523060048201523360248201529051600160a060020a03909216916342ed138291604480820192602092909190829003018186803b15801561149057600080fd5b505afa1580156114a4573d6000803e3d6000fd5b505050506040513d60208110156114ba57600080fd5b505115156114c757600080fd5b60008381526008602052604090206114e0908383612eba565b50505050565b600f546040805160e160020a63217689c10281523060048201523360248201529051600160a060020a03909216916342ed138291604480820192602092909190829003018186803b15801561153a57600080fd5b505afa15801561154e573d6000803e3d6000fd5b505050506040513d602081101561156457600080fd5b5051151561157157600080fd5b600160a060020a0390911660009081526003602090815260408220805460018101825590835291200155565b600f546040805160e160020a63217689c10281523060048201523360248201529051600160a060020a03909216916342ed138291604480820192602092909190829003018186803b1580156115f157600080fd5b505afa158015611605573d6000803e3d6000fd5b505050506040513d602081101561161b57600080fd5b5051151561162857600080fd5b6000918252600760205260409091208054600160a060020a031916600160a060020a03909216919091179055565b600f546040805160e160020a63217689c10281523060048201523360248201529051600092600160a060020a0316916342ed1382916044808301926020929190829003018186803b1580156116aa57600080fd5b505afa1580156116be573d6000803e3d6000fd5b505050506040513d60208110156116d457600080fd5b505115156116e157600080fd5b50600090815260076020526040902054600160a060020a031690565b600f546040805160e160020a63217689c10281523060048201523360248201529051600092600160a060020a0316916342ed1382916044808301926020929190829003018186803b15801561175157600080fd5b505afa158015611765573d6000803e3d6000fd5b505050506040513d602081101561177b57600080fd5b5051151561178857600080fd5b600160a060020a03831660009081526003602052604090208054839081106117ac57fe5b9060005260206000200154905092915050565b600f546040805160e160020a63217689c10281523060048201523360248201529051600160a060020a03909216916342ed138291604480820192602092909190829003018186803b15801561181357600080fd5b505afa158015611827573d6000803e3d6000fd5b505050506040513d602081101561183d57600080fd5b5051151561184a57600080fd5b600160a060020a03166000908152600b602090815260408220805460018101825590835291200155565b600f546040805160e160020a63217689c10281523060048201523360248201529051600160a060020a03909216916342ed138291604480820192602092909190829003018186803b1580156118c857600080fd5b505afa1580156118dc573d6000803e3d6000fd5b505050506040513d60208110156118f257600080fd5b505115156118ff57600080fd5b600081815260096020526040812061102591612e52565b600f546040805160e160020a63217689c10281523060048201523360248201529051600160a060020a03909216916342ed138291604480820192602092909190829003018186803b15801561196a57600080fd5b505afa15801561197e573d6000803e3d6000fd5b505050506040513d602081101561199457600080fd5b505115156119a157600080fd5b6000918252600c60205260409091208054600160a060020a031916600160a060020a03909216919091179055565b600f546040805160e160020a63217689c10281523060048201523360248201529051600160a060020a03909216916342ed138291604480820192602092909190829003018186803b158015611a2357600080fd5b505afa158015611a37573d6000803e3d6000fd5b505050506040513d6020811015611a4d57600080fd5b50511515611a5a57600080fd5b80600583815481101515611a6a57fe5b6000918252602090912001555050565b600f546040805160e160020a63217689c10281523060048201523360248201529051600160a060020a03909216916342ed138291604480820192602092909190829003018186803b158015611ace57600080fd5b505afa158015611ae2573d6000803e3d6000fd5b505050506040513d6020811015611af857600080fd5b50511515611b0557600080fd5b600160a060020a0383166000908152600360205260409020805482919084908110611b2c57fe5b600091825260209091200155505050565b600054600160a060020a03165b90565b600054600160a060020a0316331490565b600f546040805160e160020a63217689c10281523060048201523360248201529051600160a060020a03909216916342ed138291604480820192602092909190829003018186803b158015611bb257600080fd5b505afa158015611bc6573d6000803e3d6000fd5b505050506040513d6020811015611bdc57600080fd5b50511515611be957600080fd5b60008381526009602052604090206114e0908383612eba565b600f546040805160e160020a63217689c10281523060048201523360248201529051606092600160a060020a0316916342ed1382916044808301926020929190829003018186803b158015611c5657600080fd5b505afa158015611c6a573d6000803e3d6000fd5b505050506040513d6020811015611c8057600080fd5b50511515611c8d57600080fd5b60008281526008602090815260409182902080548351601f6002600019610100600186161502019093169290920491820184900484028101840190945280845290918301828280156111115780601f10611cf557610100808354040283529160200191611111565b820191906000526020600020905b815481529060010190602001808311611d035750939695505050505050565b600f546040805160e160020a63217689c10281523060048201523360248201529051606092600160a060020a0316916342ed1382916044808301926020929190829003018186803b158015611d7657600080fd5b505afa158015611d8a573d6000803e3d6000fd5b505050506040513d6020811015611da057600080fd5b50511515611dad57600080fd5b60008281526009602090815260409182902080548351601f6002600019610100600186161502019093169290920491820184900484028101840190945280845290918301828280156111115780601f10611cf557610100808354040283529160200191611111565b600f546040805160e160020a63217689c10281523060048201523360248201529051600160a060020a03909216916342ed138291604480820192602092909190829003018186803b158015611e6957600080fd5b505afa158015611e7d573d6000803e3d6000fd5b505050506040513d6020811015611e9357600080fd5b50511515611ea057600080fd5b60606001600b600084600160a060020a0316600160a060020a031681526020019081526020016000208054905003604051908082528060200260200182016040528015611ef7578160200160208202803883390190505b509050600080805b600160a060020a0385166000908152600b6020526040902054811015611f6557600160a060020a0385166000908152600b60205260409020805482908110611f4357fe5b9060005260206000200154861415611f5d57600191508092505b600101611eff565b50801515611f7257600080fd5b6000805b600160a060020a0386166000908152600b6020526040902054811015611ff357808414611feb57600160a060020a0386166000908152600b60205260409020805482908110611fc157fe5b90600052602060002001548583815181101515611fda57fe5b602090810290910101526001909101905b600101611f76565b50600160a060020a0385166000908152600b60209081526040909120855161201d92870190612f38565b50505050505050565b600f546040805160e160020a63217689c10281523060048201523360248201529051600160a060020a03909216916342ed138291604480820192602092909190829003018186803b15801561207a57600080fd5b505afa15801561208e573d6000803e3d6000fd5b505050506040513d60208110156120a457600080fd5b505115156120b157600080fd5b60058054829081106120bf57fe5b600091825260208220015550565b600f546040805160e160020a63217689c10281523060048201523360248201529051600160a060020a03909216916342ed138291604480820192602092909190829003018186803b15801561212157600080fd5b505afa158015612135573d6000803e3d6000fd5b505050506040513d602081101561214b57600080fd5b5051151561215857600080fd5b60606001600a600084600160a060020a0316600160a060020a0316815260200190815260200160002080549050036040519080825280602002602001820160405280156121af578160200160208202803883390190505b509050600080805b600160a060020a0385166000908152600a602052604090205481101561221d57600160a060020a0385166000908152600a602052604090208054829081106121fb57fe5b906000526020600020015486141561221557600191508092505b6001016121b7565b5080151561222a57600080fd5b6000805b600160a060020a0386166000908152600a60205260409020548110156122ab578084146122a357600160a060020a0386166000908152600a6020526040902080548290811061227957fe5b9060005260206000200154858381518110151561229257fe5b602090810290910101526001909101905b60010161222e565b50600160a060020a0385166000908152600a60209081526040909120855161201d92870190612f38565b600f546040805160e160020a63217689c10281523060048201523360248201529051600160a060020a03909216916342ed138291604480820192602092909190829003018186803b15801561232957600080fd5b505afa15801561233d573d6000803e3d6000fd5b505050506040513d602081101561235357600080fd5b5051151561236057600080fd5b600160a060020a03166000908152600a602090815260408220805460018101825590835291200155565b600f546040805160e160020a63217689c10281523060048201523360248201529051600092600160a060020a0316916342ed1382916044808301926020929190829003018186803b1580156123de57600080fd5b505afa1580156123f2573d6000803e3d6000fd5b505050506040513d602081101561240857600080fd5b5051151561241557600080fd5b50600160a060020a031660009081526002602052604090205490565b600f546040805160e160020a63217689c10281523060048201523360248201529051600160a060020a03909216916342ed138291604480820192602092909190829003018186803b15801561248557600080fd5b505afa158015612499573d6000803e3d6000fd5b505050506040513d60208110156124af57600080fd5b505115156124bc57600080fd5b60009182526006602052604090912055565b600f546040805160e160020a63217689c10281523060048201523360248201529051600160a060020a03909216916342ed138291604480820192602092909190829003018186803b15801561252257600080fd5b505afa158015612536573d6000803e3d6000fd5b505050506040513d602081101561254c57600080fd5b5051151561255957600080fd5b600160a060020a0382166000908152600360205260409020819061257d9082612e96565b505050565b600f546040805160e160020a63217689c10281523060048201523360248201529051606092600160a060020a0316916342ed1382916044808301926020929190829003018186803b1580156125d657600080fd5b505afa1580156125ea573d6000803e3d6000fd5b505050506040513d602081101561260057600080fd5b5051151561260d57600080fd5b600160a060020a0382166000908152600360209081526040918290208054835181840281018401909452808452909183018282801561111157602002820191906000526020600020908154815260200190600101908083116110fd5750505050509050919050565b600f546040805160e160020a63217689c10281523060048201523360248201529051600092600160a060020a0316916342ed1382916044808301926020929190829003018186803b1580156126c957600080fd5b505afa1580156126dd573d6000803e3d6000fd5b505050506040513d60208110156126f357600080fd5b5051151561270057600080fd5b5060009081526006602052604090205490565b600f546040805160e160020a63217689c10281523060048201523360248201529051600092600160a060020a0316916342ed1382916044808301926020929190829003018186803b15801561276757600080fd5b505afa15801561277b573d6000803e3d6000fd5b505050506040513d602081101561279157600080fd5b5051151561279e57600080fd5b50600d5490565b600f546040805160e160020a63217689c10281523060048201523360248201529051606092600160a060020a0316916342ed1382916044808301926020929190829003018186803b1580156127f957600080fd5b505afa15801561280d573d6000803e3d6000fd5b505050506040513d602081101561282357600080fd5b5051151561283057600080fd5b600160a060020a0382166000908152600b60209081526040918290208054835181840281018401909452808452909183018282801561111157602002820191906000526020600020908154815260200190600101908083116110fd5750505050509050919050565b600f546040805160e160020a63217689c10281523060048201523360248201529051600160a060020a03909216916342ed138291604480820192602092909190829003018186803b1580156128ec57600080fd5b505afa158015612900573d6000803e3d6000fd5b505050506040513d602081101561291657600080fd5b5051151561292357600080fd5b600160a060020a038216600090815260036020526040902080548290811061294757fe5b60009182526020822001555050565b61295e611b4d565b151561296957600080fd5b600e54604080517f82760fca000000000000000000000000000000000000000000000000000000008152602060048201819052601460248301527f436f6d6d756e69636174696f6e4d616e6167657200000000000000000000000060448301529151600160a060020a03909316926382760fca92606480840193919291829003018186803b1580156129fa57600080fd5b505afa158015612a0e573d6000803e3d6000fd5b505050506040513d6020811015612a2457600080fd5b5051600f8054600160a060020a031916600160a060020a03909216919091179055565b600f546040805160e160020a63217689c10281523060048201523360248201529051600092600160a060020a0316916342ed1382916044808301926020929190829003018186803b158015612a9b57600080fd5b505afa158015612aaf573d6000803e3d6000fd5b505050506040513d6020811015612ac557600080fd5b50511515612ad257600080fd5b5060009081526004602052604090205490565b600f546040805160e160020a63217689c10281523060048201523360248201529051600160a060020a03909216916342ed138291604480820192602092909190829003018186803b158015612b3957600080fd5b505afa158015612b4d573d6000803e3d6000fd5b505050506040513d6020811015612b6357600080fd5b50511515612b7057600080fd5b60009182526004602052604090912055565b612b8a611b4d565b1515612b9557600080fd5b61102581612dc4565b600f546040805160e160020a63217689c10281523060048201523360248201529051600160a060020a03909216916342ed138291604480820192602092909190829003018186803b158015612bf257600080fd5b505afa158015612c06573d6000803e3d6000fd5b505050506040513d6020811015612c1c57600080fd5b50511515612c2957600080fd5b6000908152600c602052604090208054600160a060020a0319169055565b600f546040805160e160020a63217689c10281523060048201523360248201529051606092600160a060020a0316916342ed1382916044808301926020929190829003018186803b158015612c9b57600080fd5b505afa158015612caf573d6000803e3d6000fd5b505050506040513d6020811015612cc557600080fd5b50511515612cd257600080fd5b6005805480602002602001604051908101604052809291908181526020018280548015612d1e57602002820191906000526020600020905b815481526020019060010190808311612d0a575b5050505050905090565b600f546040805160e160020a63217689c10281523060048201523360248201529051600160a060020a03909216916342ed138291604480820192602092909190829003018186803b158015612d7c57600080fd5b505afa158015612d90573d6000803e3d6000fd5b505050506040513d6020811015612da657600080fd5b50511515612db357600080fd5b600090815260046020526040812055565b600160a060020a0381161515612dd957600080fd5b60008054604051600160a060020a03808516939216917f8be0079c531659141344cd1fd0a4f28419497f9722a3daafe3b4186f6b6457e091a360008054600160a060020a031916600160a060020a0392909216919091179055565b50805460008255906000526020600020908101906110259190612f73565b50805460018160011615610100020316600290046000825580601f10612e785750611025565b601f0160209004906000526020600020908101906110259190612f73565b81548183558181111561257d5760008381526020902061257d918101908301612f73565b828054600181600116156101000203166002900490600052602060002090601f016020900481019282601f10612efb5782800160ff19823516178555612f28565b82800160010185558215612f28579182015b82811115612f28578235825591602001919060010190612f0d565b50612f34929150612f73565b5090565b828054828255906000526020600020908101928215612f28579160200282015b82811115612f28578251825591602001919060010190612f58565b611b4a91905b80821115612f345760008155600101612f7956fea165627a7a723058200eee83118a896ff5beee9b9bd5eb68a499cc5761fdc1122ae9acf2de5e96b9cc0029",
  "source": "pragma solidity ^0.5.2;\n\n// import \"../ca/EduCTXca.sol\";\n// import \"../users/RegisteredUser.sol\";\n// import \"../math/SafeMath.sol\";\n// import \"../drafts/Counters.sol\";\nimport \"../upgradeable/DependencyManager.sol\";\nimport \"../upgradeable/CommunicationManager.sol\";\nimport '../ownership/Ownable.sol';\n\n/**\n * @title Full ERC721 Token\n * This implementation includes all the required and some optional functionality of the ERC721 standard\n * Moreover, it includes approve all functionality using operator terminology\n * @dev see https://github.com/ethereum/EIPs/blob/master/EIPS/eip-721.md\n */\ncontract EduCTXtokenData is Ownable {\n    \n     \n    // using SafeMath for uint256;\n    // using Counters for Counters.Counter;\n    \n    event Transfer(address indexed from, address indexed to, uint256 indexed tokenId);\n\n    /// ERC721 DATA\n    // Mapping from token ID to owner\n    mapping (uint256 => address) private _tokenOwner;\n\n    // Mapping from owner to number of owned token\n    mapping (address => uint) private _ownedTokensCount;\n    \n    //// ENUMEBRABLE CONTRACT DATA\n    // Mapping from owner to list of owned token IDs\n    mapping(address => uint256[]) private _ownedTokens;\n\n    // Mapping from token ID to index of the owner tokens list\n    mapping(uint256 => uint256) private _ownedTokensIndex;\n\n    // Array with all token ids, used for enumeration\n    uint256[] private _allTokens;\n\n    // Mapping from token id to position in the allTokens array\n    mapping(uint256 => uint256) private _allTokensIndex;\n\n    // Optional mapping for token URIs\n    mapping(uint256 => address) private _tokenIssuerAddr;\n    \n    mapping(uint256 => string) private _tokenDataHash;\n    \n    mapping(uint256 => string) private _tokenCipherText;\n\n    //Mapping from issuer to array of token IDs\n    mapping (address => uint256[]) private _issuerTokensId;\n\n    //Mapping from authorized address to array of token IDs\n    mapping (address => uint256[]) private _authorizedAddressTokensId;\n\n    //Mapping from token ID to authorized address\n    mapping (uint => address) private _tokenIdAuthorizedAddress;\n\n    uint private _issuedCerts;\n    \n    DependencyManager internal dependencyManager_;\n    CommunicationManager internal communicationManager_;\n    \n    modifier _onlyAllowedContract {\n       require(communicationManager_.checkCommunication(address(this), msg.sender));\n       _;\n    }\n\n    constructor(address _dependencyManagerAddress) public {\n        dependencyManager_ = DependencyManager(_dependencyManagerAddress);\n        dependencyManager_.addDependency(\"EduCTXtokenData\", address(this));\n    }\n    \n    function init() external onlyOwner {\n       communicationManager_ = CommunicationManager(dependencyManager_.getContractAddressByName(\"CommunicationManager\"));\n    }\n    \n    /// GET, SET, DELETE - mapping _tokenOwner\n    function _set_tokenOwner(uint _a, address _b) external _onlyAllowedContract {\n\t    _tokenOwner[_a] = _b;\n    }\n    \n    function _get_tokenOwner(uint _a) external view _onlyAllowedContract returns(address) {\n    \treturn _tokenOwner[_a];\n    }\n    \n    function _delete_tokenOwner(uint _a) external _onlyAllowedContract {\n    \tdelete _tokenOwner[_a];\n    }\n\n    //// GET - mapping _tokenIdAuthorizedAddress\n    function _get_tokenIdAuthorizedAddress(uint _tokenId) external view _onlyAllowedContract returns(address) {\n    \treturn _tokenIdAuthorizedAddress[_tokenId];\n    }\n\n    function _delete_tokenIdAuthorizedAddress(uint _tokenId) external _onlyAllowedContract {\n    \tdelete _tokenIdAuthorizedAddress[_tokenId];\n    }\n\n    function _set_tokenIdAuthorizedAddress(uint _a, address _b) external _onlyAllowedContract {\n        _tokenIdAuthorizedAddress[_a]=_b;\n    }\n\n    /// GET, SET, DELETE - mapping _issuerTokensId\n    function _set_authorizedAddressTokensId(uint _a, address _b) external _onlyAllowedContract {\n\t    _authorizedAddressTokensId[_b].push(_a);\n    }\n    \n    function _get_authorizedAddressTokensId(address _a) external view _onlyAllowedContract returns(uint256[] memory) {\n    \treturn _authorizedAddressTokensId[_a];\n    }\n    \n    function _delete_authorizedAddressTokensId(uint _tokenId, address _authorizedAddress) external _onlyAllowedContract {\n    \tuint256[] memory tempArray=new uint256[](_authorizedAddressTokensId[_authorizedAddress].length-1);\n        uint indexFound=0;\n        bool found=false;\n        for(uint256 i = 0; i < _authorizedAddressTokensId[_authorizedAddress].length; i++) {\n            if(_tokenId == _authorizedAddressTokensId[_authorizedAddress][i]) {\n                found=true;\n                indexFound=i;\n            }\n        }\n        require(found);\n        uint j=0;\n        for (uint i=0; i<_authorizedAddressTokensId[_authorizedAddress].length; i++){\n            if (i!=indexFound){\n                tempArray[j]=_authorizedAddressTokensId[_authorizedAddress][i];\n                j++;\n            }\n        }\n        _authorizedAddressTokensId[_authorizedAddress]=tempArray;\n    }\n\n    /// GET, SET, DELETE - mapping _issuerTokensId\n    function _set_issuerTokensId(uint _a, address _b) external _onlyAllowedContract {\n\t    _issuerTokensId[_b].push(_a);\n    }\n    \n    function _get_issuerTokensId(address _a) external view _onlyAllowedContract returns(uint256[] memory) {\n    \treturn _issuerTokensId[_a];\n    }\n    \n    function _delete_issuerTokensId(uint _tokenId, address _issuer) external _onlyAllowedContract {\n    \tuint256[] memory tempArray=new uint256[](_issuerTokensId[_issuer].length-1);\n        uint indexFound=0;\n        bool found=false;\n        for(uint256 i = 0; i < _issuerTokensId[_issuer].length; i++) {\n            if(_tokenId == _issuerTokensId[_issuer][i]) {\n                found=true;\n                indexFound=i;\n            }\n        }\n        require(found);\n        uint j=0;\n        for (uint i=0; i<_issuerTokensId[_issuer].length; i++){\n            if (i!=indexFound){\n                tempArray[j]=_issuerTokensId[_issuer][i];\n                j++;\n            }\n        }\n        _issuerTokensId[_issuer]=tempArray;\n    }\n    \n    \n    /// GET, SET, DELETE - mapping _ownedTokensCount\n    function _set_ownedTokensCount(address _a, uint _b) external _onlyAllowedContract {\n\t    _ownedTokensCount[_a] = _b;\n    }\n\n    function _get_ownedTokensCount(address _a) external view _onlyAllowedContract returns(uint)  {\n    \treturn  _ownedTokensCount[_a];\n    }\n    \n    function _delete_ownedTokensCount(address _a) external _onlyAllowedContract {\n    \tdelete _ownedTokensCount[_a];\n    }\n    \n    /// GET, SET, DELETE, LENGTH - mapping _ownedTokens\n    function _set_ownedTokens_push(address _a, uint _b) external _onlyAllowedContract {\n    \t_ownedTokens[_a].push(_b);\n    }\n    \n    function _set_ownedTokens_counter(address _a, uint _b, uint _c) external _onlyAllowedContract {\n    \t_ownedTokens[_a][_b] = _c;\n    }\n    \n    function _get_ownedTokens_all(address _a) external view _onlyAllowedContract returns(uint[] memory) {\n    \treturn _ownedTokens[_a];\n    }\n    \n    function _get_ownedTokens_counter(address _a, uint _b) external view _onlyAllowedContract returns(uint) {\n    \treturn _ownedTokens[_a][_b];\n    }\n    \n    function _delete_ownedTokens_index(address _a) external _onlyAllowedContract  {\n    \tdelete _ownedTokens[_a];\n    }\n    \n    function _delete_ownedTokens_index(address _a, uint _b) external _onlyAllowedContract  {\n    \tdelete _ownedTokens[_a][_b];\n    }\n    \n    function _set_ownedTokens_length(address _a, uint _b) external _onlyAllowedContract {\n        _ownedTokens[_a].length = _b;\n    }\n    \n    /// GET, SET, DELETE - mapping _ownedTokensIndex\n    function _set_ownedTokensIndex(uint _a, uint _b) external _onlyAllowedContract {\n\t    _ownedTokensIndex[_a] = _b;\n    }\n    \n    function _get_ownedTokensIndex(uint _a) external view _onlyAllowedContract returns(uint) {\n    \treturn _ownedTokensIndex[_a];\n    }\n    \n    function _delete_ownedTokensIndex(uint _a) external _onlyAllowedContract {\n    \tdelete _ownedTokensIndex[_a];\n    }\n    \n    /// GET, SET, DELETE, SET LENGTH - mapping _allToken\n    function _set_allTokens_push(uint _a) external _onlyAllowedContract {\n\t    _allTokens.push(_a);\n    }\n    \n    function _set_allTokens_counter(uint _a, uint _b) external _onlyAllowedContract {\n    \t_allTokens[_a] = _b;\n    }\n    \n    function _get_allTokens() external view _onlyAllowedContract returns(uint[] memory) {\n    \treturn _allTokens;\n    }\n    \n    function _get_allTokens_counter(uint _a) external view _onlyAllowedContract returns(uint) {\n    \treturn _allTokens[_a];\n    }\n    \n    function _delete_allTokens_counter(uint _a) external _onlyAllowedContract {\n    \tdelete _allTokens[_a];\n    }\n    \n    function _set_allTokens_length(uint _b) external _onlyAllowedContract {\n    \t_allTokens.length = _b;\n    }\n    \n    /// GET, SET, DELETE - mapping _allTokens\n    function _set_allTokensIndex(uint _a, uint _b) external _onlyAllowedContract {\n\t    _allTokensIndex[_a] = _b;\n    }\n    \n    function _get_allTokensIndex(uint _a) external view _onlyAllowedContract returns(uint) {\n    \treturn _allTokensIndex[_a];\n    }\n    \n    function _delete_allTokensIndex(uint _a) external _onlyAllowedContract {\n    \tdelete _tokenOwner[_a];\n    }\n    \n    /// GET, SET, DELETE - mapping _tokenIssuerAddr\n    \n    function _set_tokenIssuerAddr(uint _a, address _b) external _onlyAllowedContract {\n    \t_tokenIssuerAddr[_a] = _b;\n    }\n    \n    function _get_tokenIssuerAddr(uint _a) external view _onlyAllowedContract returns(address) {\n    \treturn _tokenIssuerAddr[_a];\n    }\n    \n    function _delete_tokenIssuerAddr(uint _a) external _onlyAllowedContract {\n    \tdelete _tokenIssuerAddr[_a];\n    }\n    \n    /// GET, SET, DELETE - mapping _tokenDataHash\n    function _set_tokenDataHash(uint _a, string calldata _b) external _onlyAllowedContract {\n    \t_tokenDataHash[_a] = _b;\n    }\n    \n    function _get_tokenDataHash(uint _a) external view _onlyAllowedContract returns(string memory) {\n    \treturn _tokenDataHash[_a];\n    }\n    \n    function _delete_tokenDataHash(uint _a) external _onlyAllowedContract {\n    \tdelete _tokenDataHash[_a];\n    }\n    \n    /// GET, SET, DELETE - mapping _set_token CIPHERTEXT\n    function _set_tokenCipherText(uint _a, string calldata _b) external _onlyAllowedContract {\n    \t_tokenCipherText[_a] = _b;\n    }\n    \n    function _get_tokenCipherText(uint _a) external view _onlyAllowedContract returns(string memory) {\n    \treturn _tokenCipherText[_a];\n    }\n    \n    function _delete_tokenCipherText(uint _a) external _onlyAllowedContract {\n    \tdelete _tokenCipherText[_a];\n    }\n    \n    \n    /// GET, SET - uint - _issuedCerts\n     function _set_issuedCerts(uint _a) external _onlyAllowedContract {\n    \t_issuedCerts = _a;\n    }\n    \n    function _get_issuedCerts() external view _onlyAllowedContract returns(uint) {\n    \treturn _issuedCerts;\n    }\n    \n}\n",
  "sourcePath": "/builds/gitlab/eductx/eductx-react/eductx-platform/contracts/token/EduCTXtokenData.sol",
  "compiler": {
    "name": "solc",
    "version": "0.5.2+commit.1df8f40c.Emscripten.clang"
  },
  "schemaVersion": "3.4.3",
  "updatedAt": "2021-10-12T07:49:43.822Z",
  "networkType": "ethereum",
  "devdoc": {
    "details": "see https://github.com/ethereum/EIPs/blob/master/EIPS/eip-721.md",
    "methods": {
      "isOwner()": {
        "return": "true if `msg.sender` is the owner of the contract."
      },
      "owner()": {
        "return": "the address of the owner."
      },
      "transferOwnership(address)": {
        "details": "Allows the current owner to transfer control of the contract to a newOwner.",
        "params": {
          "newOwner": "The address to transfer ownership to."
        }
      }
    },
    "title": "Full ERC721 Token This implementation includes all the required and some optional functionality of the ERC721 standard Moreover, it includes approve all functionality using operator terminology"
  },
  "userdoc": {
    "methods": {
      "_get_tokenIdAuthorizedAddress(uint256)": {
        "notice": "/ GET - mapping _tokenIdAuthorizedAddress"
      },
      "_set_allTokensIndex(uint256,uint256)": {
        "notice": "GET, SET, DELETE - mapping _allTokens"
      },
      "_set_allTokens_push(uint256)": {
        "notice": "GET, SET, DELETE, SET LENGTH - mapping _allToken"
      },
      "_set_authorizedAddressTokensId(uint256,address)": {
        "notice": "GET, SET, DELETE - mapping _issuerTokensId"
      },
      "_set_issuedCerts(uint256)": {
        "notice": "GET, SET - uint - _issuedCerts"
      },
      "_set_issuerTokensId(uint256,address)": {
        "notice": "GET, SET, DELETE - mapping _issuerTokensId"
      },
      "_set_ownedTokensCount(address,uint256)": {
        "notice": "GET, SET, DELETE - mapping _ownedTokensCount"
      },
      "_set_ownedTokensIndex(uint256,uint256)": {
        "notice": "GET, SET, DELETE - mapping _ownedTokensIndex"
      },
      "_set_ownedTokens_push(address,uint256)": {
        "notice": "GET, SET, DELETE, LENGTH - mapping _ownedTokens"
      },
      "_set_tokenCipherText(uint256,string)": {
        "notice": "GET, SET, DELETE - mapping _set_token CIPHERTEXT"
      },
      "_set_tokenDataHash(uint256,string)": {
        "notice": "GET, SET, DELETE - mapping _tokenDataHash"
      },
      "_set_tokenIssuerAddr(uint256,address)": {
        "notice": "GET, SET, DELETE - mapping _tokenIssuerAddr"
      },
      "_set_tokenOwner(uint256,address)": {
        "notice": "GET, SET, DELETE - mapping _tokenOwner"
      }
    }
  }
}