{
  "contractName": "RegisteredUser",
  "abi": [
    {
      "constant": true,
      "inputs": [],
      "name": "owner",
      "outputs": [
        {
          "name": "",
          "type": "address"
        }
      ],
      "payable": false,
      "stateMutability": "view",
      "type": "function"
    },
    {
      "constant": true,
      "inputs": [],
      "name": "isOwner",
      "outputs": [
        {
          "name": "",
          "type": "bool"
        }
      ],
      "payable": false,
      "stateMutability": "view",
      "type": "function"
    },
    {
      "constant": false,
      "inputs": [
        {
          "name": "newOwner",
          "type": "address"
        }
      ],
      "name": "transferOwnership",
      "outputs": [],
      "payable": false,
      "stateMutability": "nonpayable",
      "type": "function"
    },
    {
      "inputs": [
        {
          "name": "_dependencyManagerAddress",
          "type": "address"
        }
      ],
      "payable": false,
      "stateMutability": "nonpayable",
      "type": "constructor"
    },
    {
      "anonymous": false,
      "inputs": [
        {
          "indexed": true,
          "name": "previousOwner",
          "type": "address"
        },
        {
          "indexed": true,
          "name": "newOwner",
          "type": "address"
        }
      ],
      "name": "OwnershipTransferred",
      "type": "event"
    },
    {
      "constant": false,
      "inputs": [],
      "name": "init",
      "outputs": [],
      "payable": false,
      "stateMutability": "nonpayable",
      "type": "function"
    },
    {
      "constant": true,
      "inputs": [
        {
          "name": "_id",
          "type": "uint256"
        }
      ],
      "name": "isRegisteredUser",
      "outputs": [
        {
          "name": "",
          "type": "bool"
        }
      ],
      "payable": false,
      "stateMutability": "view",
      "type": "function"
    },
    {
      "constant": false,
      "inputs": [
        {
          "name": "_userAddress",
          "type": "address"
        },
        {
          "name": "_userPubKey",
          "type": "bytes"
        },
        {
          "name": "_id",
          "type": "uint256"
        }
      ],
      "name": "registerUser",
      "outputs": [],
      "payable": false,
      "stateMutability": "nonpayable",
      "type": "function"
    },
    {
      "constant": true,
      "inputs": [
        {
          "name": "_userAddress",
          "type": "address"
        }
      ],
      "name": "getIDbyAddress",
      "outputs": [
        {
          "name": "",
          "type": "uint256"
        }
      ],
      "payable": false,
      "stateMutability": "view",
      "type": "function"
    },
    {
      "constant": true,
      "inputs": [
        {
          "name": "_id",
          "type": "uint256"
        }
      ],
      "name": "getUserPubKeyById",
      "outputs": [
        {
          "name": "",
          "type": "bytes"
        }
      ],
      "payable": false,
      "stateMutability": "view",
      "type": "function"
    },
    {
      "constant": true,
      "inputs": [
        {
          "name": "_id",
          "type": "uint256"
        }
      ],
      "name": "getAddressById",
      "outputs": [
        {
          "name": "",
          "type": "address"
        }
      ],
      "payable": false,
      "stateMutability": "view",
      "type": "function"
    }
  ],
  "bytecode": "0x608060405234801561001057600080fd5b50604051602080610cb98339810180604052602081101561003057600080fd5b505160008054600160a060020a0319163317808255604051600160a060020a039190911691907f8be0079c531659141344cd1fd0a4f28419497f9722a3daafe3b4186f6b6457e0908290a360018054600160a060020a031916600160a060020a038381169190911791829055604080517f39675c3d00000000000000000000000000000000000000000000000000000000815230602482015260048101829052600e60448201527f52656769737465726564557365720000000000000000000000000000000000006064820152905192909116916339675c3d9160848082019260009290919082900301818387803b15801561012b57600080fd5b505af115801561013f573d6000803e3d6000fd5b5050505050610b66806101536000396000f3fe608060405234801561001057600080fd5b50600436106100b0576000357c0100000000000000000000000000000000000000000000000000000000900480638da5cb5b116100835780638da5cb5b146102115780638f32d59b14610219578063bd90f0d914610221578063e1c7392a146102b3578063f2fde38b146102bb576100b0565b80631642bb91146100b5578063186ee1e31461016f5780631a422550146101a75780638d80c922146101d8575b600080fd5b61016d600480360360608110156100cb57600080fd5b600160a060020a0382351691908101906040810160208201356401000000008111156100f657600080fd5b82018360208201111561010857600080fd5b8035906020019184600183028401116401000000008311171561012a57600080fd5b91908080601f01602080910402602001604051908101604052809392919081815260200183838082843760009201919091525092955050913592506102e1915050565b005b6101956004803603602081101561018557600080fd5b5035600160a060020a03166106b5565b60408051918252519081900360200190f35b6101c4600480360360208110156101bd57600080fd5b5035610753565b604080519115158252519081900360200190f35b6101f5600480360360208110156101ee57600080fd5b50356107ff565b60408051600160a060020a039092168252519081900360200190f35b6101f5610864565b6101c4610873565b61023e6004803603602081101561023757600080fd5b5035610884565b6040805160208082528351818301528351919283929083019185019080838360005b83811015610278578181015183820152602001610260565b50505050905090810190601f1680156102a55780820380516001836020036101000a031916815260200191505b509250505060405180910390f35b61016d610977565b61016d600480360360208110156102d157600080fd5b5035600160a060020a0316610a75565b815115156102ee57600080fd5b60006102f983610a94565b9050600160a060020a038082169085161461031357600080fd5b600254604080517f0d9d2ba5000000000000000000000000000000000000000000000000000000008152600160a060020a03848116600483015291519190921691630d9d2ba5916024808301926020929190829003018186803b15801561037957600080fd5b505afa15801561038d573d6000803e3d6000fd5b505050506040513d60208110156103a357600080fd5b5051156103af57600080fd5b600254604080517f0e4f8a550000000000000000000000000000000000000000000000000000000081529051600160a060020a039092169163d59ad8ca91610454916001918591630e4f8a5591600480820192602092909190829003018186803b15801561041c57600080fd5b505afa158015610430573d6000803e3d6000fd5b505050506040513d602081101561044657600080fd5b50519063ffffffff610aa416565b6040518263ffffffff167c010000000000000000000000000000000000000000000000000000000002815260040180828152602001915050600060405180830381600087803b1580156104a657600080fd5b505af11580156104ba573d6000803e3d6000fd5b5050600254604080517f5fb5c76f00000000000000000000000000000000000000000000000000000000815260048101879052600160a060020a0386811660248301529151919092169350635fb5c76f9250604480830192600092919082900301818387803b15801561052c57600080fd5b505af1158015610540573d6000803e3d6000fd5b5050600254604080517f94dabfe4000000000000000000000000000000000000000000000000000000008152600160a060020a0386811660048301526024820188905291519190921693506394dabfe49250604480830192600092919082900301818387803b1580156105b257600080fd5b505af11580156105c6573d6000803e3d6000fd5b5050600254604080517f348cc0d30000000000000000000000000000000000000000000000000000000081526004810187815260248201928352885160448301528851600160a060020a03909416955063348cc0d3945087938993919260640190602085019080838360005b8381101561064a578181015183820152602001610632565b50505050905090810190601f1680156106775780820380516001836020036101000a031916815260200191505b509350505050600060405180830381600087803b15801561069757600080fd5b505af11580156106ab573d6000803e3d6000fd5b5050505050505050565b600254604080517f0d9d2ba5000000000000000000000000000000000000000000000000000000008152600160a060020a03848116600483015291516000939290921691630d9d2ba591602480820192602092909190829003018186803b15801561071f57600080fd5b505afa158015610733573d6000803e3d6000fd5b505050506040513d602081101561074957600080fd5b505190505b919050565b600254604080517f10116ed70000000000000000000000000000000000000000000000000000000081526004810184905290516000928392600160a060020a03909116916310116ed791602480820192602092909190829003018186803b1580156107bd57600080fd5b505afa1580156107d1573d6000803e3d6000fd5b505050506040513d60208110156107e757600080fd5b5051600160a060020a03161461074e5750600161074e565b600254604080517f10116ed7000000000000000000000000000000000000000000000000000000008152600481018490529051600092600160a060020a0316916310116ed7916024808301926020929190829003018186803b15801561071f57600080fd5b600054600160a060020a031690565b600054600160a060020a0316331490565b600254604080517fd4545fe3000000000000000000000000000000000000000000000000000000008152600481018490529051606092600160a060020a03169163d4545fe3916024808301926000929190829003018186803b1580156108e957600080fd5b505afa1580156108fd573d6000803e3d6000fd5b505050506040513d6000823e601f3d908101601f19168201604052602081101561092657600080fd5b81019080805164010000000081111561093e57600080fd5b8201602081018481111561095157600080fd5b815164010000000081118282018710171561096b57600080fd5b50909695505050505050565b61097f610873565b151561098a57600080fd5b600154604080517f82760fca000000000000000000000000000000000000000000000000000000008152602060048201819052601260248301527f526567697374657265645573657244617461000000000000000000000000000060448301529151600160a060020a03909316926382760fca92606480840193919291829003018186803b158015610a1b57600080fd5b505afa158015610a2f573d6000803e3d6000fd5b505050506040513d6020811015610a4557600080fd5b50516002805473ffffffffffffffffffffffffffffffffffffffff1916600160a060020a03909216919091179055565b610a7d610873565b1515610a8857600080fd5b610a9181610abd565b50565b8051602090910120600081905290565b600082820183811015610ab657600080fd5b9392505050565b600160a060020a0381161515610ad257600080fd5b60008054604051600160a060020a03808516939216917f8be0079c531659141344cd1fd0a4f28419497f9722a3daafe3b4186f6b6457e091a36000805473ffffffffffffffffffffffffffffffffffffffff1916600160a060020a039290921691909117905556fea165627a7a72305820583fcbb9f01e943df0c97a6d9a8fd818c64411be8a795124a40bfcf1fe699ed70029",
  "source": "pragma solidity ^0.5.2;\n\nimport \"../upgradeable/DependencyManager.sol\";\nimport \"./RegisteredUserData.sol\";\nimport \"../math/SafeMath.sol\";\nimport \"../ca/EduCTXca.sol\";\n\n\ncontract RegisteredUser is Ownable {\n    \n    using SafeMath for uint256;\n    \n    DependencyManager internal dependencyManager_;\n    RegisteredUserData internal registeredUserData_;\n    EduCTXca internal eduCTXca_;\n\n\n    constructor(address _dependencyManagerAddress) public {\n        dependencyManager_ = DependencyManager(_dependencyManagerAddress);\n        dependencyManager_.addDependency(\"RegisteredUser\", address(this));\n    }\n    \n    function init() external onlyOwner {\n        registeredUserData_ = RegisteredUserData(dependencyManager_.getContractAddressByName(\"RegisteredUserData\"));\n    }\n    \n    /// Check if user exists\n    modifier onlyRegisteredUser(uint _id) {\n        require(registeredUserData_._get_userIDtoAddress(_id) != address(0));\n        _;\n    }\n    \n    function isRegisteredUser(uint _id) external view returns(bool) {\n        if(registeredUserData_._get_userIDtoAddress(_id) != address(0)) return true;\n    }\n    \n    /// Register user with address and public key // CHECK!! EID\n    function registerUser(address _userAddress, bytes memory _userPubKey, uint256 _id) public {\n        // eduCTXca_ = EduCTXca(dependencyManager_.getContractAddressByName(\"EduCTXca\"));\n        // require(eduCTXca_.isCa(msg.sender) || eduCTXca_.isAuthorizedAddress(msg.sender));\n        require(bytes(_userPubKey).length != 0);\n        address userAddress = _getAddressFromPublicKey(_userPubKey);\n        require(userAddress == _userAddress);\n        require(registeredUserData_._get_addressToUserID(userAddress) == 0);\n        registeredUserData_._set_totalUsers(registeredUserData_._get_totalUsers().add(1));\n        registeredUserData_._set_userIDtoAddress(_id, userAddress);\n        registeredUserData_._set_addressToUserID(userAddress,_id);\n        registeredUserData_._set_userIDtoPubKey(_id,_userPubKey);\n    }\n    \n    /// get user ID by user address\n    function getIDbyAddress(address _userAddress) public view returns (uint256) {\n        return registeredUserData_._get_addressToUserID(_userAddress);\n    }\n    \n    /// get user public key with user ID\n    function getUserPubKeyById(uint256 _id) public view returns (bytes memory) {\n         return registeredUserData_._get_userIDtoPubKey(_id);\n    }\n    \n    /// get user address with user ID\n    function getAddressById(uint256 _id) public view returns (address) {\n         return registeredUserData_._get_userIDtoAddress(_id);\n    }\n      \n    function _getAddressFromPublicKey(bytes memory pub) internal pure returns(address addr) {\n      bytes32 hash = keccak256(pub);\n        assembly {\n            mstore(0, hash)\n            addr := mload(0)\n        }    \n    }\n\n      \n}\n",
  "sourcePath": "/builds/gitlab/eductx/eductx-react/eductx-platform/contracts/users/RegisteredUser.sol",
  "compiler": {
    "name": "solc",
    "version": "0.5.2+commit.1df8f40c.Emscripten.clang"
  },
  "schemaVersion": "3.4.3",
  "updatedAt": "2021-10-12T07:49:43.784Z",
  "networkType": "ethereum",
  "devdoc": {
    "methods": {
      "isOwner()": {
        "return": "true if `msg.sender` is the owner of the contract."
      },
      "owner()": {
        "return": "the address of the owner."
      },
      "transferOwnership(address)": {
        "details": "Allows the current owner to transfer control of the contract to a newOwner.",
        "params": {
          "newOwner": "The address to transfer ownership to."
        }
      }
    }
  },
  "userdoc": {
    "methods": {
      "getAddressById(uint256)": {
        "notice": "get user address with user ID"
      },
      "getIDbyAddress(address)": {
        "notice": "get user ID by user address"
      },
      "getUserPubKeyById(uint256)": {
        "notice": "get user public key with user ID"
      },
      "registerUser(address,bytes,uint256)": {
        "notice": "Register user with address and public key // CHECK!! EID"
      }
    }
  }
}