{
  "contractName": "RegisteredVTData",
  "abi": [
    {
      "constant": true,
      "inputs": [],
      "name": "owner",
      "outputs": [
        {
          "name": "",
          "type": "address"
        }
      ],
      "payable": false,
      "stateMutability": "view",
      "type": "function"
    },
    {
      "constant": true,
      "inputs": [],
      "name": "isOwner",
      "outputs": [
        {
          "name": "",
          "type": "bool"
        }
      ],
      "payable": false,
      "stateMutability": "view",
      "type": "function"
    },
    {
      "constant": false,
      "inputs": [
        {
          "name": "newOwner",
          "type": "address"
        }
      ],
      "name": "transferOwnership",
      "outputs": [],
      "payable": false,
      "stateMutability": "nonpayable",
      "type": "function"
    },
    {
      "inputs": [
        {
          "name": "_dependencyManagerAddress",
          "type": "address"
        }
      ],
      "payable": false,
      "stateMutability": "nonpayable",
      "type": "constructor"
    },
    {
      "anonymous": false,
      "inputs": [
        {
          "indexed": true,
          "name": "previousOwner",
          "type": "address"
        },
        {
          "indexed": true,
          "name": "newOwner",
          "type": "address"
        }
      ],
      "name": "OwnershipTransferred",
      "type": "event"
    },
    {
      "constant": false,
      "inputs": [],
      "name": "init",
      "outputs": [],
      "payable": false,
      "stateMutability": "nonpayable",
      "type": "function"
    },
    {
      "constant": false,
      "inputs": [
        {
          "name": "_a",
          "type": "address"
        },
        {
          "name": "_b",
          "type": "bytes"
        }
      ],
      "name": "set_addressToPubKey",
      "outputs": [],
      "payable": false,
      "stateMutability": "nonpayable",
      "type": "function"
    },
    {
      "constant": false,
      "inputs": [
        {
          "name": "_a",
          "type": "uint256"
        }
      ],
      "name": "set_totalOfVT",
      "outputs": [],
      "payable": false,
      "stateMutability": "nonpayable",
      "type": "function"
    },
    {
      "constant": true,
      "inputs": [
        {
          "name": "_a",
          "type": "address"
        }
      ],
      "name": "get_addressToPubKey",
      "outputs": [
        {
          "name": "",
          "type": "bytes"
        }
      ],
      "payable": false,
      "stateMutability": "view",
      "type": "function"
    },
    {
      "constant": true,
      "inputs": [],
      "name": "get_totalOfVT",
      "outputs": [
        {
          "name": "",
          "type": "uint256"
        }
      ],
      "payable": false,
      "stateMutability": "view",
      "type": "function"
    },
    {
      "constant": false,
      "inputs": [
        {
          "name": "_a",
          "type": "address"
        }
      ],
      "name": "delete_addressToPubKey",
      "outputs": [],
      "payable": false,
      "stateMutability": "nonpayable",
      "type": "function"
    }
  ],
  "bytecode": "0x6080604052600060025534801561001557600080fd5b50604051602080610a738339810180604052602081101561003557600080fd5b505160008054600160a060020a0319163317808255604051600160a060020a039190911691907f8be0079c531659141344cd1fd0a4f28419497f9722a3daafe3b4186f6b6457e0908290a360038054600160a060020a031916600160a060020a038381169190911791829055604080517f39675c3d00000000000000000000000000000000000000000000000000000000815230602482015260048101829052601060448201527f52656769737465726564565444617461000000000000000000000000000000006064820152905192909116916339675c3d9160848082019260009290919082900301818387803b15801561013057600080fd5b505af1158015610144573d6000803e3d6000fd5b505050505061091b806101586000396000f3fe608060405234801561001057600080fd5b50600436106100b0576000357c0100000000000000000000000000000000000000000000000000000000900480638f32d59b116100835780638f32d59b1461021c578063e1c7392a14610238578063f04808a914610240578063f1918af11461025d578063f2fde38b14610277576100b0565b80631bffe8f1146100b5578063263ec42414610150578063748736a4146101785780638da5cb5b146101f8575b600080fd5b6100db600480360360208110156100cb57600080fd5b5035600160a060020a031661029d565b6040805160208082528351818301528351919283929083019185019080838360005b838110156101155781810151838201526020016100fd565b50505050905090810190601f1680156101425780820380516001836020036101000a031916815260200191505b509250505060405180910390f35b6101766004803603602081101561016657600080fd5b5035600160a060020a03166103d4565b005b6101766004803603604081101561018e57600080fd5b600160a060020a0382351691908101906040810160208201356401000000008111156101b957600080fd5b8201836020820111156101cb57600080fd5b803590602001918460018302840111640100000000831117156101ed57600080fd5b509092509050610484565b610200610539565b60408051600160a060020a039092168252519081900360200190f35b610224610549565b604080519115158252519081900360200190f35b61017661055a565b6101766004803603602081101561025657600080fd5b5035610658565b6102656106e9565b60408051918252519081900360200190f35b6101766004803603602081101561028d57600080fd5b5035600160a060020a031661077f565b600480546040805160e160020a63217689c1028152309381019390935233602484015251606092600160a060020a03909216916342ed1382916044808301926020929190829003018186803b1580156102f557600080fd5b505afa158015610309573d6000803e3d6000fd5b505050506040513d602081101561031f57600080fd5b5051151561032c57600080fd5b600160a060020a03821660009081526001602081815260409283902080548451600294821615610100026000190190911693909304601f81018390048302840183019094528383529192908301828280156103c85780601f1061039d576101008083540402835291602001916103c8565b820191906000526020600020905b8154815290600101906020018083116103ab57829003601f168201915b50505050509050919050565b600480546040805160e160020a63217689c1028152309381019390935233602484015251600160a060020a03909116916342ed1382916044808301926020929190829003018186803b15801561042957600080fd5b505afa15801561043d573d6000803e3d6000fd5b505050506040513d602081101561045357600080fd5b5051151561046057600080fd5b600160a060020a038116600090815260016020526040812061048191610813565b50565b600480546040805160e160020a63217689c1028152309381019390935233602484015251600160a060020a03909116916342ed1382916044808301926020929190829003018186803b1580156104d957600080fd5b505afa1580156104ed573d6000803e3d6000fd5b505050506040513d602081101561050357600080fd5b5051151561051057600080fd5b600160a060020a0383166000908152600160205260409020610533908383610857565b50505050565b600054600160a060020a03165b90565b600054600160a060020a0316331490565b610562610549565b151561056d57600080fd5b600354604080517f82760fca000000000000000000000000000000000000000000000000000000008152602060048201819052601460248301527f436f6d6d756e69636174696f6e4d616e6167657200000000000000000000000060448301529151600160a060020a03909316926382760fca92606480840193919291829003018186803b1580156105fe57600080fd5b505afa158015610612573d6000803e3d6000fd5b505050506040513d602081101561062857600080fd5b50516004805473ffffffffffffffffffffffffffffffffffffffff1916600160a060020a03909216919091179055565b600480546040805160e160020a63217689c1028152309381019390935233602484015251600160a060020a03909116916342ed1382916044808301926020929190829003018186803b1580156106ad57600080fd5b505afa1580156106c1573d6000803e3d6000fd5b505050506040513d60208110156106d757600080fd5b505115156106e457600080fd5b600255565b600480546040805160e160020a63217689c1028152309381019390935233602484015251600092600160a060020a03909216916342ed1382916044808301926020929190829003018186803b15801561074157600080fd5b505afa158015610755573d6000803e3d6000fd5b505050506040513d602081101561076b57600080fd5b5051151561077857600080fd5b5060025490565b610787610549565b151561079257600080fd5b61048181600160a060020a03811615156107ab57600080fd5b60008054604051600160a060020a03808516939216917f8be0079c531659141344cd1fd0a4f28419497f9722a3daafe3b4186f6b6457e091a36000805473ffffffffffffffffffffffffffffffffffffffff1916600160a060020a0392909216919091179055565b50805460018160011615610100020316600290046000825580601f106108395750610481565b601f01602090049060005260206000209081019061048191906108d5565b828054600181600116156101000203166002900490600052602060002090601f016020900481019282601f106108985782800160ff198235161785556108c5565b828001600101855582156108c5579182015b828111156108c55782358255916020019190600101906108aa565b506108d19291506108d5565b5090565b61054691905b808211156108d157600081556001016108db56fea165627a7a72305820174f3662a8824932878dbad5ee3d2471eeadd12b6d39db7d0fc29ffac7086b750029",
  "source": "pragma solidity ^0.5.2;\n\nimport \"../upgradeable/DependencyManager.sol\";\nimport \"../upgradeable/CommunicationManager.sol\";\n\ncontract RegisteredVTData is Ownable {\n    \n    /// KEY = verification target id : VALUE = verification target public key\n    mapping(address => bytes) private _addressToPubKey;\n    \n    uint256 private totalOfVT = 0;\n    \n    DependencyManager internal dependencyManager_;\n    CommunicationManager internal communicationManager_;\n    \n    \n    modifier _onlyAllowedContract {\n       require(communicationManager_.checkCommunication(address(this), msg.sender));\n       _;\n    }\n\n    constructor(address _dependencyManagerAddress) public {\n        dependencyManager_ = DependencyManager(_dependencyManagerAddress);\n        dependencyManager_.addDependency(\"RegisteredVTData\", address(this));\n    }\n    \n    function init() external onlyOwner {\n       communicationManager_ = CommunicationManager(dependencyManager_.getContractAddressByName(\"CommunicationManager\"));\n    }\n    \n    function set_addressToPubKey(address _a, bytes calldata _b) external _onlyAllowedContract {\n        _addressToPubKey[_a] = _b;\n    }\n    \n    function set_totalOfVT(uint256 _a) external _onlyAllowedContract {\n        totalOfVT = _a;\n    }\n    \n    function get_addressToPubKey(address _a) external view _onlyAllowedContract returns(bytes memory) {\n        return _addressToPubKey[_a];\n    }\n    \n    function get_totalOfVT() external view _onlyAllowedContract returns(uint256) {\n        return totalOfVT;\n    }\n    \n    function delete_addressToPubKey(address _a) external _onlyAllowedContract {\n        delete _addressToPubKey[_a];\n    }\n    \n}\n",
  "sourcePath": "/builds/gitlab/eductx/eductx-react/eductx-platform/contracts/verificationTargets/RegisteredVTData.sol",
  "compiler": {
    "name": "solc",
    "version": "0.5.2+commit.1df8f40c.Emscripten.clang"
  },
  "schemaVersion": "3.4.3",
  "updatedAt": "2021-10-12T07:49:05.796Z",
  "devdoc": {
    "methods": {
      "isOwner()": {
        "return": "true if `msg.sender` is the owner of the contract."
      },
      "owner()": {
        "return": "the address of the owner."
      },
      "transferOwnership(address)": {
        "details": "Allows the current owner to transfer control of the contract to a newOwner.",
        "params": {
          "newOwner": "The address to transfer ownership to."
        }
      }
    }
  },
  "userdoc": {
    "methods": {}
  }
}