{
  "contractName": "RegisteredUserData",
  "abi": [
    {
      "constant": true,
      "inputs": [],
      "name": "owner",
      "outputs": [
        {
          "name": "",
          "type": "address"
        }
      ],
      "payable": false,
      "stateMutability": "view",
      "type": "function"
    },
    {
      "constant": true,
      "inputs": [],
      "name": "isOwner",
      "outputs": [
        {
          "name": "",
          "type": "bool"
        }
      ],
      "payable": false,
      "stateMutability": "view",
      "type": "function"
    },
    {
      "constant": false,
      "inputs": [
        {
          "name": "newOwner",
          "type": "address"
        }
      ],
      "name": "transferOwnership",
      "outputs": [],
      "payable": false,
      "stateMutability": "nonpayable",
      "type": "function"
    },
    {
      "inputs": [
        {
          "name": "_dependencyManagerAddress",
          "type": "address"
        }
      ],
      "payable": false,
      "stateMutability": "nonpayable",
      "type": "constructor"
    },
    {
      "anonymous": false,
      "inputs": [
        {
          "indexed": true,
          "name": "previousOwner",
          "type": "address"
        },
        {
          "indexed": true,
          "name": "newOwner",
          "type": "address"
        }
      ],
      "name": "OwnershipTransferred",
      "type": "event"
    },
    {
      "constant": false,
      "inputs": [],
      "name": "init",
      "outputs": [],
      "payable": false,
      "stateMutability": "nonpayable",
      "type": "function"
    },
    {
      "constant": false,
      "inputs": [
        {
          "name": "_a",
          "type": "address"
        },
        {
          "name": "_b",
          "type": "uint256"
        }
      ],
      "name": "_set_addressToUserID",
      "outputs": [],
      "payable": false,
      "stateMutability": "nonpayable",
      "type": "function"
    },
    {
      "constant": false,
      "inputs": [
        {
          "name": "_a",
          "type": "uint256"
        },
        {
          "name": "_b",
          "type": "address"
        }
      ],
      "name": "_set_userIDtoAddress",
      "outputs": [],
      "payable": false,
      "stateMutability": "nonpayable",
      "type": "function"
    },
    {
      "constant": false,
      "inputs": [
        {
          "name": "_a",
          "type": "uint256"
        },
        {
          "name": "_b",
          "type": "bytes"
        }
      ],
      "name": "_set_userIDtoPubKey",
      "outputs": [],
      "payable": false,
      "stateMutability": "nonpayable",
      "type": "function"
    },
    {
      "constant": false,
      "inputs": [
        {
          "name": "_a",
          "type": "uint256"
        }
      ],
      "name": "_set_totalUsers",
      "outputs": [],
      "payable": false,
      "stateMutability": "nonpayable",
      "type": "function"
    },
    {
      "constant": true,
      "inputs": [
        {
          "name": "_a",
          "type": "address"
        }
      ],
      "name": "_get_addressToUserID",
      "outputs": [
        {
          "name": "",
          "type": "uint256"
        }
      ],
      "payable": false,
      "stateMutability": "view",
      "type": "function"
    },
    {
      "constant": true,
      "inputs": [
        {
          "name": "_a",
          "type": "uint256"
        }
      ],
      "name": "_get_userIDtoAddress",
      "outputs": [
        {
          "name": "",
          "type": "address"
        }
      ],
      "payable": false,
      "stateMutability": "view",
      "type": "function"
    },
    {
      "constant": true,
      "inputs": [
        {
          "name": "_a",
          "type": "uint256"
        }
      ],
      "name": "_get_userIDtoPubKey",
      "outputs": [
        {
          "name": "",
          "type": "bytes"
        }
      ],
      "payable": false,
      "stateMutability": "view",
      "type": "function"
    },
    {
      "constant": true,
      "inputs": [],
      "name": "_get_totalUsers",
      "outputs": [
        {
          "name": "",
          "type": "uint256"
        }
      ],
      "payable": false,
      "stateMutability": "view",
      "type": "function"
    },
    {
      "constant": false,
      "inputs": [
        {
          "name": "_a",
          "type": "address"
        }
      ],
      "name": "_delete_addressToUserID",
      "outputs": [],
      "payable": false,
      "stateMutability": "nonpayable",
      "type": "function"
    },
    {
      "constant": false,
      "inputs": [
        {
          "name": "_a",
          "type": "uint256"
        }
      ],
      "name": "_delete_userIDtoAddress",
      "outputs": [],
      "payable": false,
      "stateMutability": "nonpayable",
      "type": "function"
    },
    {
      "constant": false,
      "inputs": [
        {
          "name": "_a",
          "type": "uint256"
        }
      ],
      "name": "_delete_userIDtoPubKey",
      "outputs": [],
      "payable": false,
      "stateMutability": "nonpayable",
      "type": "function"
    }
  ],
  "bytecode": "0x6080604052600060045534801561001557600080fd5b50604051602080610fa78339810180604052602081101561003557600080fd5b505160008054600160a060020a0319163317808255604051600160a060020a039190911691907f8be0079c531659141344cd1fd0a4f28419497f9722a3daafe3b4186f6b6457e0908290a360058054600160a060020a031916600160a060020a038381169190911791829055604080517f39675c3d00000000000000000000000000000000000000000000000000000000815230602482015260048101829052601260448201527f52656769737465726564557365724461746100000000000000000000000000006064820152905192909116916339675c3d9160848082019260009290919082900301818387803b15801561013057600080fd5b505af1158015610144573d6000803e3d6000fd5b5050505050610e4f806101586000396000f3fe608060405234801561001057600080fd5b5060043610610112576000357c01000000000000000000000000000000000000000000000000000000009004806394dabfe4116100b4578063d59ad8ca11610083578063d59ad8ca14610351578063e1c7392a1461036e578063f0fcc82714610376578063f2fde38b1461039c57610112565b806394dabfe414610259578063994baa1d14610285578063b75dd72b146102a2578063d4545fe3146102bf57610112565b8063348cc0d3116100f0578063348cc0d3146101905780635fb5c76f146102095780638da5cb5b146102355780638f32d59b1461023d57610112565b80630d9d2ba5146101175780630e4f8a551461014f57806310116ed714610157575b600080fd5b61013d6004803603602081101561012d57600080fd5b5035600160a060020a03166103c2565b60408051918252519081900360200190f35b61013d610469565b6101746004803603602081101561016d57600080fd5b50356104fc565b60408051600160a060020a039092168252519081900360200190f35b610207600480360360408110156101a657600080fd5b813591908101906040810160208201356401000000008111156101c857600080fd5b8201836020820111156101da57600080fd5b803590602001918460018302840111640100000000831117156101fc57600080fd5b5090925090506105a3565b005b6102076004803603604081101561021f57600080fd5b5080359060200135600160a060020a031661064d565b610174610738565b610245610747565b604080519115158252519081900360200190f35b6102076004803603604081101561026f57600080fd5b50600160a060020a038135169060200135610758565b6102076004803603602081101561029b57600080fd5b50356107ff565b610207600480360360208110156102b857600080fd5b50356108a4565b6102dc600480360360208110156102d557600080fd5b503561095a565b6040805160208082528351818301528351919283929083019185019080838360005b838110156103165781810151838201526020016102fe565b50505050905090810190601f1680156103435780820380516001836020036101000a031916815260200191505b509250505060405180910390f35b6102076004803603602081101561036757600080fd5b5035610a84565b610207610b14565b6102076004803603602081101561038c57600080fd5b5035600160a060020a0316610c12565b610207600480360360208110156103b257600080fd5b5035600160a060020a0316610cb7565b6006546040805160e160020a63217689c10281523060048201523360248201529051600092600160a060020a0316916342ed1382916044808301926020929190829003018186803b15801561041657600080fd5b505afa15801561042a573d6000803e3d6000fd5b505050506040513d602081101561044057600080fd5b5051151561044d57600080fd5b50600160a060020a031660009081526001602052604090205490565b6006546040805160e160020a63217689c10281523060048201523360248201529051600092600160a060020a0316916342ed1382916044808301926020929190829003018186803b1580156104bd57600080fd5b505afa1580156104d1573d6000803e3d6000fd5b505050506040513d60208110156104e757600080fd5b505115156104f457600080fd5b506004545b90565b6006546040805160e160020a63217689c10281523060048201523360248201529051600092600160a060020a0316916342ed1382916044808301926020929190829003018186803b15801561055057600080fd5b505afa158015610564573d6000803e3d6000fd5b505050506040513d602081101561057a57600080fd5b5051151561058757600080fd5b50600090815260026020526040902054600160a060020a031690565b6006546040805160e160020a63217689c10281523060048201523360248201529051600160a060020a03909216916342ed138291604480820192602092909190829003018186803b1580156105f757600080fd5b505afa15801561060b573d6000803e3d6000fd5b505050506040513d602081101561062157600080fd5b5051151561062e57600080fd5b6000838152600360205260409020610647908383610d4b565b50505050565b6006546040805160e160020a63217689c10281523060048201523360248201529051600160a060020a03909216916342ed138291604480820192602092909190829003018186803b1580156106a157600080fd5b505afa1580156106b5573d6000803e3d6000fd5b505050506040513d60208110156106cb57600080fd5b505115156106d857600080fd5b6000828152600260205260409020548290600160a060020a0316156106fc57600080fd5b50600091825260026020526040909120805473ffffffffffffffffffffffffffffffffffffffff1916600160a060020a03909216919091179055565b600054600160a060020a031690565b600054600160a060020a0316331490565b6006546040805160e160020a63217689c10281523060048201523360248201529051600160a060020a03909216916342ed138291604480820192602092909190829003018186803b1580156107ac57600080fd5b505afa1580156107c0573d6000803e3d6000fd5b505050506040513d60208110156107d657600080fd5b505115156107e357600080fd5b600160a060020a03909116600090815260016020526040902055565b6006546040805160e160020a63217689c10281523060048201523360248201529051600160a060020a03909216916342ed138291604480820192602092909190829003018186803b15801561085357600080fd5b505afa158015610867573d6000803e3d6000fd5b505050506040513d602081101561087d57600080fd5b5051151561088a57600080fd5b60008181526003602052604081206108a191610dc9565b50565b6006546040805160e160020a63217689c10281523060048201523360248201529051600160a060020a03909216916342ed138291604480820192602092909190829003018186803b1580156108f857600080fd5b505afa15801561090c573d6000803e3d6000fd5b505050506040513d602081101561092257600080fd5b5051151561092f57600080fd5b6000908152600260205260409020805473ffffffffffffffffffffffffffffffffffffffff19169055565b6006546040805160e160020a63217689c10281523060048201523360248201529051606092600160a060020a0316916342ed1382916044808301926020929190829003018186803b1580156109ae57600080fd5b505afa1580156109c2573d6000803e3d6000fd5b505050506040513d60208110156109d857600080fd5b505115156109e557600080fd5b60008281526003602090815260409182902080548351601f600260001961010060018616150201909316929092049182018490048402810184019094528084529091830182828015610a785780601f10610a4d57610100808354040283529160200191610a78565b820191906000526020600020905b815481529060010190602001808311610a5b57829003601f168201915b50505050509050919050565b6006546040805160e160020a63217689c10281523060048201523360248201529051600160a060020a03909216916342ed138291604480820192602092909190829003018186803b158015610ad857600080fd5b505afa158015610aec573d6000803e3d6000fd5b505050506040513d6020811015610b0257600080fd5b50511515610b0f57600080fd5b600455565b610b1c610747565b1515610b2757600080fd5b600554604080517f82760fca000000000000000000000000000000000000000000000000000000008152602060048201819052601460248301527f436f6d6d756e69636174696f6e4d616e6167657200000000000000000000000060448301529151600160a060020a03909316926382760fca92606480840193919291829003018186803b158015610bb857600080fd5b505afa158015610bcc573d6000803e3d6000fd5b505050506040513d6020811015610be257600080fd5b50516006805473ffffffffffffffffffffffffffffffffffffffff1916600160a060020a03909216919091179055565b6006546040805160e160020a63217689c10281523060048201523360248201529051600160a060020a03909216916342ed138291604480820192602092909190829003018186803b158015610c6657600080fd5b505afa158015610c7a573d6000803e3d6000fd5b505050506040513d6020811015610c9057600080fd5b50511515610c9d57600080fd5b600160a060020a0316600090815260016020526040812055565b610cbf610747565b1515610cca57600080fd5b6108a181600160a060020a0381161515610ce357600080fd5b60008054604051600160a060020a03808516939216917f8be0079c531659141344cd1fd0a4f28419497f9722a3daafe3b4186f6b6457e091a36000805473ffffffffffffffffffffffffffffffffffffffff1916600160a060020a0392909216919091179055565b828054600181600116156101000203166002900490600052602060002090601f016020900481019282601f10610d8c5782800160ff19823516178555610db9565b82800160010185558215610db9579182015b82811115610db9578235825591602001919060010190610d9e565b50610dc5929150610e09565b5090565b50805460018160011615610100020316600290046000825580601f10610def57506108a1565b601f0160209004906000526020600020908101906108a191905b6104f991905b80821115610dc55760008155600101610e0f56fea165627a7a72305820c4e067c92f6d72f52c41b164fd103763a9c7f483861ebdb790a3e883850140930029",
  "source": "pragma solidity ^0.5.2;\n\nimport \"../math/SafeMath.sol\";\nimport \"../upgradeable/DependencyManager.sol\";\nimport \"../upgradeable/CommunicationManager.sol\";\n\ncontract RegisteredUserData is Ownable {\n    \n    using SafeMath for uint256;\n    \n    /// KEY = address : VALUE = userid\n    mapping(address => uint256) private _addressToUserID;\n    \n    /// KEY = userid : VALUE = address\n    mapping(uint256 => address) private _userIDtoAddress;\n    \n    /// KEY = userid : VALUE = user public key\n    mapping(uint256 => bytes) private _userIDtoPubKey;\n    \n    uint256 private totalUsers = 0;\n    \n    DependencyManager internal dependencyManager_;\n    CommunicationManager internal communicationManager_;\n    \n    modifier _onlyAllowedContract {\n       require(communicationManager_.checkCommunication(address(this), msg.sender));\n       _;\n    }\n    \n    modifier _onlyIfIdNotExists (uint _id) {\n       require(_userIDtoAddress[_id] == address(0));\n       _;\n    }\n    \n    constructor(address _dependencyManagerAddress) public {\n        dependencyManager_ = DependencyManager(_dependencyManagerAddress);\n        dependencyManager_.addDependency(\"RegisteredUserData\", address(this));\n    }\n    \n    function init() external onlyOwner {\n       communicationManager_ = CommunicationManager(dependencyManager_.getContractAddressByName(\"CommunicationManager\"));\n    }\n    \n    function _set_addressToUserID(address _a, uint256 _b) external _onlyAllowedContract {\n        _addressToUserID[_a] = _b;\n    }\n    \n    function _set_userIDtoAddress(uint256 _a, address _b) external _onlyAllowedContract _onlyIfIdNotExists(_a) {\n        _userIDtoAddress[_a] = _b;\n    }\n    \n    function _set_userIDtoPubKey(uint256 _a, bytes calldata _b) external _onlyAllowedContract {\n        _userIDtoPubKey[_a] = _b;\n    }\n    \n    function _set_totalUsers(uint256 _a) external _onlyAllowedContract {\n        totalUsers = _a;\n    }\n    \n    function _get_addressToUserID(address _a) external view _onlyAllowedContract returns(uint256) {\n        return _addressToUserID[_a];\n    }\n    \n    function _get_userIDtoAddress(uint256 _a) external view _onlyAllowedContract returns(address) {\n        return _userIDtoAddress[_a];\n    }\n    \n    function _get_userIDtoPubKey(uint256 _a) external view _onlyAllowedContract returns(bytes memory) {\n        return _userIDtoPubKey[_a];\n    }\n    \n    function _get_totalUsers() external view _onlyAllowedContract returns(uint256) {\n        return totalUsers;\n    }\n    \n    function _delete_addressToUserID(address _a) external _onlyAllowedContract {\n        delete _addressToUserID[_a];\n    }\n    \n    function _delete_userIDtoAddress(uint256 _a) external _onlyAllowedContract {\n        delete _userIDtoAddress[_a];\n    }\n    \n    function _delete_userIDtoPubKey(uint256 _a) external _onlyAllowedContract {\n        delete _userIDtoPubKey[_a];\n    }\n    \n}\n",
  "sourcePath": "/builds/gitlab/eductx/eductx-react/eductx-platform/contracts/users/RegisteredUserData.sol",
  "compiler": {
    "name": "solc",
    "version": "0.5.2+commit.1df8f40c.Emscripten.clang"
  },
  "schemaVersion": "3.4.3",
  "updatedAt": "2021-10-12T07:49:43.789Z",
  "networkType": "ethereum",
  "devdoc": {
    "methods": {
      "isOwner()": {
        "return": "true if `msg.sender` is the owner of the contract."
      },
      "owner()": {
        "return": "the address of the owner."
      },
      "transferOwnership(address)": {
        "details": "Allows the current owner to transfer control of the contract to a newOwner.",
        "params": {
          "newOwner": "The address to transfer ownership to."
        }
      }
    }
  },
  "userdoc": {
    "methods": {}
  }
}